{
  "_format": "hh-sol-artifact-1",
  "contractName": "AnalyticMath",
  "sourceName": "libraries/AnalyticMath.sol",
  "abi": [
    {
      "inputs": [],
      "name": "init",
      "outputs": [],
      "stateMutability": "nonpayable",
      "type": "function"
    },
    {
      "inputs": [
        {
          "internalType": "uint256",
          "name": "a",
          "type": "uint256"
        },
        {
          "internalType": "uint256",
          "name": "b",
          "type": "uint256"
        },
        {
          "internalType": "uint256",
          "name": "c",
          "type": "uint256"
        },
        {
          "internalType": "uint256",
          "name": "d",
          "type": "uint256"
        }
      ],
      "name": "pow",
      "outputs": [
        {
          "internalType": "uint256",
          "name": "",
          "type": "uint256"
        },
        {
          "internalType": "uint256",
          "name": "",
          "type": "uint256"
        }
      ],
      "stateMutability": "view",
      "type": "function"
    }
  ],
  "bytecode": "0x608060405234801561001057600080fd5b506128e0806100206000396000f3fe608060405234801561001057600080fd5b50600436106100365760003560e01c80635aff34dc1461003b578063e1c7392a1461006c575b600080fd5b61005560048036038101906100509190612673565b610076565b6040516100639291906126e9565b60405180910390f35b6100746100dc565b005b6000808486106100a65761009d610096607f60ff166001901b88886100e6565b8585610104565b915091506100d3565b6000806100c66100bf607f60ff166001901b898b6100e6565b8787610104565b9150915080829350935050505b94509492505050565b6100e4610126565b565b60006100fb6100f6858585611198565b61127d565b90509392505050565b60008061011a610115868686611198565b6112b9565b91509150935093915050565b701c35fedd14ffffffffffffffffffffffff600060206080811061014d5761014c612712565b5b0181905550701b0ce43b323fffffffffffffffffffffff600060216080811061017957610178612712565b5b01819055507019f0028ec1ffffffffffffffffffffffff60006022608081106101a5576101a4612712565b5b01819055507018ded91f0e7fffffffffffffffffffffff60006023608081106101d1576101d0612712565b5b01819055507017d8ec7f0417ffffffffffffffffffffff60006024608081106101fd576101fc612712565b5b01819055507016ddc6556cdbffffffffffffffffffffff600060256080811061022957610228612712565b5b01819055507015ecf52776a1ffffffffffffffffffffff600060266080811061025557610254612712565b5b01819055507015060c256cb2ffffffffffffffffffffff600060276080811061028157610280612712565b5b0181905550701428a2f98d72ffffffffffffffffffffff60006028608081106102ad576102ac612712565b5b01819055507013545598e5c23fffffffffffffffffffff60006029608081106102d9576102d8612712565b5b0181905550701288c4161ce1dfffffffffffffffffffff6000602a6080811061030557610304612712565b5b01819055507011c592761c666fffffffffffffffffffff6000602b6080811061033157610330612712565b5b018190555070110a688680a757ffffffffffffffffffff6000602c6080811061035d5761035c612712565b5b0181905550701056f1b5bedf77ffffffffffffffffffff6000602d6080811061038957610388612712565b5b0181905550700faadceceeff8bffffffffffffffffffff6000602e608081106103b5576103b4612712565b5b0181905550700f05dc6b27edadffffffffffffffffffff6000602f608081106103e1576103e0612712565b5b0181905550700e67a5a25da4107fffffffffffffffffff600060306080811061040d5761040c612712565b5b0181905550700dcff115b14eedffffffffffffffffffff600060316080811061043957610438612712565b5b0181905550700d3e7a392431239fffffffffffffffffff600060326080811061046557610464612712565b5b0181905550700cb2ff529eb71e4fffffffffffffffffff600060336080811061049157610490612712565b5b0181905550700c2d415c3db974afffffffffffffffffff60006034608081106104bd576104bc612712565b5b0181905550700bad03e7d883f69bffffffffffffffffff60006035608081106104e9576104e8612712565b5b0181905550700b320d03b2c343d5ffffffffffffffffff600060366080811061051557610514612712565b5b0181905550700abc25204e02828dffffffffffffffffff600060376080811061054157610540612712565b5b0181905550700a4b16f74ee4bb207fffffffffffffffff600060386080811061056d5761056c612712565b5b01819055507009deaf736ac1f569ffffffffffffffffff600060396080811061059957610598612712565b5b0181905550700976bd9952c7aa957fffffffffffffffff6000603a608081106105c5576105c4612712565b5b01819055507009131271922eaa606fffffffffffffffff6000603b608081106105f1576105f0612712565b5b01819055507008b380f3558668c46fffffffffffffffff6000603c6080811061061d5761061c612712565b5b0181905550700857ddf0117efa215bffffffffffffffff6000603d6080811061064957610648612712565b5b01819055507007ffffffffffffffffffffffffffffffff6000603e6080811061067557610674612712565b5b01819055507007abbf6f6abb9d087fffffffffffffffff6000603f608081106106a1576106a0612712565b5b018190555070075af62cbac95f7dfa7fffffffffffffff60006040608081106106cd576106cc612712565b5b018190555070070d7fb7452e187ac13fffffffffffffff60006041608081106106f9576106f8612712565b5b01819055507006c3390ecc8af379295fffffffffffffff600060426080811061072557610724612712565b5b018190555070067c00a3b07ffc01fd6fffffffffffffff600060436080811061075157610750612712565b5b0181905550700637b647c39cbb9d3d27ffffffffffffff600060446080811061077d5761077c612712565b5b01819055507005f63b1fc104dbd39587ffffffffffffff60006045608081106107a9576107a8612712565b5b01819055507005b771955b36e12f7235ffffffffffffff60006046608081106107d5576107d4612712565b5b018190555070057b3d49dda84556d6f6ffffffffffffff600060476080811061080157610800612712565b5b018190555070054183095b2c8ececf30ffffffffffffff600060486080811061082d5761082c612712565b5b018190555070050a28be635ca2b888f77fffffffffffff600060496080811061085957610858612712565b5b01819055507004d5156639708c9db33c3fffffffffffff6000604a6080811061088557610884612712565b5b01819055507004a23105873875bd52dfdfffffffffffff6000604b608081106108b1576108b0612712565b5b0181905550700471649d87199aa990756fffffffffffff6000604c608081106108dd576108dc612712565b5b01819055507004429a21a029d4c1457cfbffffffffffff6000604d6080811061090957610908612712565b5b0181905550700415bc6d6fb7dd71af2cb3ffffffffffff6000604e6080811061093557610934612712565b5b01819055507003eab73b3bbfe282243ce1ffffffffffff6000604f6080811061096157610960612712565b5b01819055507003c1771ac9fb6b4c18e229ffffffffffff600060506080811061098d5761098c612712565b5b0181905550700399e96897690418f785257fffffffffff60006051608081106109b9576109b8612712565b5b0181905550700373fc456c53bb779bf0ea9fffffffffff60006052608081106109e5576109e4612712565b5b018190555070034f9e8e490c48e67e6ab8bfffffffffff6000605360808110610a1157610a10612712565b5b018190555070032cbfd4a7adc790560b3337ffffffffff6000605460808110610a3d57610a3c612712565b5b018190555070030b50570f6e5d2acca94613ffffffffff6000605560808110610a6957610a68612712565b5b01819055507002eb40f9f620fda6b56c2861ffffffffff6000605660808110610a9557610a94612712565b5b01819055507002cc8340ecb0d0f520a6af58ffffffffff6000605760808110610ac157610ac0612712565b5b01819055507002af09481380a0a35cf1ba02ffffffffff6000605860808110610aed57610aec612712565b5b0181905550700292c5bdd3b92ec810287b1b3fffffffff6000605960808110610b1957610b18612712565b5b0181905550700277abdcdab07d5a77ac6d6b9fffffffff6000605a60808110610b4557610b44612712565b5b018190555070025daf6654b1eaa55fd64df5efffffffff6000605b60808110610b7157610b70612712565b5b0181905550700244c49c648baa98192dce88b7ffffffff6000605c60808110610b9d57610b9c612712565b5b018190555070022ce03cd5619a311b2471268bffffffff6000605d60808110610bc957610bc8612712565b5b0181905550700215f77c045fbe885654a44a0fffffffff6000605e60808110610bf557610bf4612712565b5b01819055507001ffffffffffffffffffffffffffffffff6000605f60808110610c2157610c20612712565b5b01819055507001eaefdbdaaee7421fc4d3ede5ffffffff6000606060808110610c4d57610c4c612712565b5b01819055507001d6bd8b2eb257df7e8ca57b09bfffffff6000606160808110610c7957610c78612712565b5b01819055507001c35fedd14b861eb0443f7f133fffffff6000606260808110610ca557610ca4612712565b5b01819055507001b0ce43b322bcde4a56e8ada5afffffff6000606360808110610cd157610cd0612712565b5b018190555070019f0028ec1fff007f5a195a39dfffffff6000606460808110610cfd57610cfc612712565b5b018190555070018ded91f0e72ee74f49b15ba527ffffff6000606560808110610d2957610d28612712565b5b018190555070017d8ec7f04136f4e5615fd41a63ffffff6000606660808110610d5557610d54612712565b5b018190555070016ddc6556cdb84bdc8d12d22e6fffffff6000606760808110610d8157610d80612712565b5b018190555070015ecf52776a1155b5bd8395814f7fffff6000606860808110610dad57610dac612712565b5b018190555070015060c256cb23b3b3cc3754cf40ffffff6000606960808110610dd957610dd8612712565b5b01819055507001428a2f98d728ae223ddab715be3fffff6000606a60808110610e0557610e04612712565b5b018190555070013545598e5c23276ccf0ede68034fffff6000606b60808110610e3157610e30612712565b5b01819055507001288c4161ce1d6f54b7f61081194fffff6000606c60808110610e5d57610e5c612712565b5b018190555070011c592761c666aa641d5a01a40f17ffff6000606d60808110610e8957610e88612712565b5b0181905550700110a688680a7530515f3e6e6cfdcdffff6000606e60808110610eb557610eb4612712565b5b01819055507001056f1b5bedf75c6bcb2ce8aed428ffff6000606f60808110610ee157610ee0612712565b5b01819055506ffaadceceeff8a0890f3875f008277fff6000607060808110610f0c57610f0b612712565b5b01819055506ff05dc6b27edad306388a600f6ba0bfff6000607160808110610f3757610f36612712565b5b01819055506fe67a5a25da41063de1495d5b18cdbfff6000607260808110610f6257610f61612712565b5b01819055506fdcff115b14eedde6fc3aa5353f2e4fff6000607360808110610f8d57610f8c612712565b5b01819055506fd3e7a3924312399f9aae2e0f868f8fff6000607460808110610fb857610fb7612712565b5b01819055506fcb2ff529eb71e41582cccd5a1ee26fff6000607560808110610fe357610fe2612712565b5b01819055506fc2d415c3db974ab32a51840c0b67edff600060766080811061100e5761100d612712565b5b01819055506fbad03e7d883f69ad5b0a186184e06bff600060776080811061103957611038612712565b5b01819055506fb320d03b2c343d4829abd6075f0cc5ff600060786080811061106457611063612712565b5b01819055506fabc25204e02828d73c6e80bcdb1a95bf600060796080811061108f5761108e612712565b5b01819055506fa4b16f74ee4bb2040a1ec6c15fbbf2df6000607a608081106110ba576110b9612712565b5b01819055506f9deaf736ac1f569deb1b5ae3f36c130f6000607b608081106110e5576110e4612712565b5b01819055506f976bd9952c7aa957f5937d790ef650376000607c608081106111105761110f612712565b5b01819055506f9131271922eaa6064b73a22d0bd4f2bf6000607d6080811061113b5761113a612712565b5b01819055506f8b380f3558668c46c91c49a2f8e967b96000607e6080811061116657611165612712565b5b01819055506f857ddf0117efa215952912839f6473e66000607f6080811061119157611190612712565b5b0181905550565b60008060006111a78686611323565b91509150600082036111cd578381816111c3576111c2612741565b5b0492505050611276565b838210156112715760006111e2878787611374565b90506000806111f2858585611391565b915091506000820361121b5786818161120e5761120d612741565b5b0495505050505050611276565b60008761122960008a6113c3565b16905060006112398484846113d9565b90506000611256838b816112505761124f612741565b5b04611429565b90506112628282611470565b98505050505050505050611276565b600080fd5b9392505050565b600070015bf0a8b1457695355fb8ac404e7a79e48210156112a8576112a182611486565b90506112b4565b6112b182611a36565b90505b919050565b6000807008000000000000000000000000000000008310156112f0576112de83611b3b565b607f60ff166001901b9150915061131e565b60006112fb846120d9565b905061131081607f0360ff1685901c826121d6565b8160ff166001901b92509250505b915091565b60008060006113328585612578565b905060006113408686611470565b9050808210611358578082038193509350505061136d565b600161136483836113c3565b03819350935050505b9250929050565b6000818061138557611384612741565b5b83850990509392505050565b6000808284106113a85784838503915091506113bb565b600185036113b685856113c3565b915091505b935093915050565b600081836113d1919061279f565b905092915050565b600080611401836113eb6000866113c3565b816113f9576113f8612741565b5b0460016125b4565b905082848161141357611412612741565b5b0461141e8683611470565b179150509392505050565b6000806001905060005b60088110156114665761145982611454600261144f8689611470565b6113c3565b611470565b9150806001019050611433565b5080915050919050565b6000818361147e91906127d3565b905092915050565b6000806000905060008060006fd3094c70f034de4b96ff7d5b6f99fcd986106114ec576f40000000000000000000000000000000840193506fd3094c70f034de4b96ff7d5b6f99fcd9607f60ff166001901b8702816114e8576114e7612741565b5b0495505b6fa45af1e1f40c333b3de1db4dd55f29a88610611546576f20000000000000000000000000000000840193506fa45af1e1f40c333b3de1db4dd55f29a8607f60ff166001901b87028161154257611541612741565b5b0495505b6f910b022db7ae67ce76b441c27035c6a286106115a0576f10000000000000000000000000000000840193506f910b022db7ae67ce76b441c27035c6a2607f60ff166001901b87028161159c5761159b612741565b5b0495505b6f88415abbe9a76bead8d00cf112e4d4a986106115fa576f08000000000000000000000000000000840193506f88415abbe9a76bead8d00cf112e4d4a9607f60ff166001901b8702816115f6576115f5612741565b5b0495505b6f84102b00893f64c705e841d5d4064bd48610611654576f04000000000000000000000000000000840193506f84102b00893f64c705e841d5d4064bd4607f60ff166001901b8702816116505761164f612741565b5b0495505b6f8204055aaef1c8bd5c3259f4822735a386106116ae576f02000000000000000000000000000000840193506f8204055aaef1c8bd5c3259f4822735a3607f60ff166001901b8702816116aa576116a9612741565b5b0495505b6f810100ab00222d861931c15e39b44e9a8610611708576f01000000000000000000000000000000840193506f810100ab00222d861931c15e39b44e9a607f60ff166001901b87028161170457611703612741565b5b0495505b6f808040155aabbbe9451521693554f7348610611761576e800000000000000000000000000000840193506f808040155aabbbe9451521693554f734607f60ff166001901b87028161175d5761175c612741565b5b0495505b607f60ff166001901b86039250829150607f60ff166001901b8384028161178b5761178a612741565b5b04905070010000000000000000000000000000000083700100000000000000000000000000000000038302816117c4576117c3612741565b5b0484019350607f60ff166001901b818302816117e3576117e2612741565b5b049150700200000000000000000000000000000000836faaaaaaaaaaaaaaaaaaaaaaaaaaaaaaaa0383028161181b5761181a612741565b5b0484019350607f60ff166001901b8183028161183a57611839612741565b5b049150700300000000000000000000000000000000836f999999999999999999999999999999990383028161187257611871612741565b5b0484019350607f60ff166001901b8183028161189157611890612741565b5b049150700400000000000000000000000000000000836f92492492492492492492492492492492038302816118c9576118c8612741565b5b0484019350607f60ff166001901b818302816118e8576118e7612741565b5b049150700500000000000000000000000000000000836f8e38e38e38e38e38e38e38e38e38e38e038302816119205761191f612741565b5b0484019350607f60ff166001901b8183028161193f5761193e612741565b5b049150700600000000000000000000000000000000836f8ba2e8ba2e8ba2e8ba2e8ba2e8ba2e8b0383028161197757611976612741565b5b0484019350607f60ff166001901b8183028161199657611995612741565b5b049150700700000000000000000000000000000000836f89d89d89d89d89d89d89d89d89d89d89038302816119ce576119cd612741565b5b0484019350607f60ff166001901b818302816119ed576119ec612741565b5b049150700800000000000000000000000000000000836f8888888888888888888888888888888803830281611a2557611a24612741565b5b048401935083945050505050919050565b60008060009050607f60ff166002901b8310611a8c576000611a6f607f60ff166001901b8581611a6957611a68612741565b5b046125bc565b90508060ff1684901c9350607f60ff166001901b8160ff16029150505b607f60ff166001901b831115611b00576000607f90505b60008160ff161115611afe57607f60ff166001901b84850281611ac957611ac8612741565b5b049350607f60ff166002901b8410611af257600184901c93506001810360ff166001901b820191505b80600190039050611aa3565b505b6f05b9de1d10bf4103d647b0955897ba806f03f80fe03f80fe03f80fe03f80fe03f8820281611b3257611b31612741565b5b04915050919050565b600080600090506000806f100000000000000000000000000000008581611b6557611b64612741565b5b069150819050607f60ff166001901b82820281611b8557611b84612741565b5b0490506710e1b3be415a0000810283019250607f60ff166001901b82820281611bb157611bb0612741565b5b0490506705a0913f6b1e0000810283019250607f60ff166001901b82820281611bdd57611bdc612741565b5b049050670168244fdac78000810283019250607f60ff166001901b82820281611c0957611c08612741565b5b049050664807432bc18000810283019250607f60ff166001901b82820281611c3457611c33612741565b5b049050660c0135dca04000810283019250607f60ff166001901b82820281611c5f57611c5e612741565b5b0490506601b707b1cdc000810283019250607f60ff166001901b82820281611c8a57611c89612741565b5b0490506536e0f639b800810283019250607f60ff166001901b82820281611cb457611cb3612741565b5b049050650618fee9f800810283019250607f60ff166001901b82820281611cde57611cdd612741565b5b049050649c197dcc00810283019250607f60ff166001901b82820281611d0757611d06612741565b5b049050640e30dce400810283019250607f60ff166001901b82820281611d3057611d2f612741565b5b04905064012ebd1300810283019250607f60ff166001901b82820281611d5957611d58612741565b5b0490506317499f00810283019250607f60ff166001901b82820281611d8157611d80612741565b5b0490506301a9d480810283019250607f60ff166001901b82820281611da957611da8612741565b5b049050621c6380810283019250607f60ff166001901b82820281611dd057611dcf612741565b5b0490506201c638810283019250607f60ff166001901b82820281611df757611df6612741565b5b049050611ab8810283019250607f60ff166001901b82820281611e1d57611e1c612741565b5b04905061017c810283019250607f60ff166001901b82820281611e4357611e42612741565b5b0490506014810283019250607f60ff166001901b82820281611e6857611e67612741565b5b0490506001810283019250607f60ff166001901b826721c3677c82b400008581611e9557611e94612741565b5b040101925060006f10000000000000000000000000000000861614611eec5770018ebef9eac820ae8682b9793ac6d1e7767001c3d6a24ed82218787d624d3e5eba95f9840281611ee857611ee7612741565b5b0492505b60006f20000000000000000000000000000000861614611f3e577001368b2fc6f9609fe7aceb46aa619baed470018ebef9eac820ae8682b9793ac6d1e778840281611f3a57611f39612741565b5b0492505b60006f40000000000000000000000000000000861614611f8f576fbc5ab1b16779be3575bd8f0520a9f21f7001368b2fc6f9609fe7aceb46aa619baed5840281611f8b57611f8a612741565b5b0492505b60006f80000000000000000000000000000000861614611fdf576f454aaa8efe072e7f6ddbab84b40a55c96fbc5ab1b16779be3575bd8f0520a9f21e840281611fdb57611fda612741565b5b0492505b6000700100000000000000000000000000000000861614612030576f0960aadc109e7a3bf4578099615711ea6f454aaa8efe072e7f6ddbab84b40a55c584028161202c5761202b612741565b5b0492505b6000700200000000000000000000000000000000861614612080576e2bf84208204f5977f9a8cf01fdce3d6f0960aadc109e7a3bf4578099615711d784028161207c5761207b612741565b5b0492505b60007004000000000000000000000000000000008616146120ce576d03c6ab775dd0b95b4cbee7e65d116e2bf84208204f5977f9a8cf01fdc3078402816120ca576120c9612741565b5b0492505b829350505050919050565b600080602090506000607f90505b8060ff166001830160ff161015612144576000600282840160ff16816121105761210f612741565b5b0490508460008260ff166080811061212b5761212a612712565b5b01541061213a5780925061213e565b8091505b506120e7565b8360008260ff166080811061215c5761215b612712565b5b01541061216d5780925050506121d1565b8360008360ff166080811061218557612184612712565b5b0154106121965781925050506121d1565b6040517f08c379a00000000000000000000000000000000000000000000000000000000081526004016121c89061288a565b60405180910390fd5b919050565b60008083905060008360ff16858302901c91506f03442c4e6074a82f1797f72ac00000008202810190508360ff16858302901c91506f0116b96f757c380fb287fd0e400000008202810190508360ff16858302901c91506e45ae5bdd5f0e03eca1ff43900000008202810190508360ff16858302901c91506e0defabf91302cd95b9ffda500000008202810190508360ff16858302901c91506e02529ca9832b22439efff9b80000008202810190508360ff16858302901c91506d54f1cf12bd04e516b6da880000008202810190508360ff16858302901c91506d0a9e39e257a09ca2d6db510000008202810190508360ff16858302901c91506d012e066e7b839fa050c3090000008202810190508360ff16858302901c91506c1e33d7d926c329a1ad1a8000008202810190508360ff16858302901c91506c02bee513bdb4a6b19b5f8000008202810190508360ff16858302901c91506b3a9316fa79b88eccf2a000008202810190508360ff16858302901c91506b048177ebe1fa8123752000008202810190508360ff16858302901c91506a5263fe90242dcbacf000008202810190508360ff16858302901c91506a057e22099c030d941000008202810190508360ff16858302901c91506957e22099c030d94100008202810190508360ff16858302901c915069052b6b545699763100008202810190508360ff16858302901c9150684985f67696bf7480008202810190508360ff16858302901c91506803dea12ea99e4980008202810190508360ff16858302901c91506731880f2214b6e0008202810190508360ff16858302901c915067025bcff56eb360008202810190508360ff16858302901c9150661b722e10ab10008202810190508360ff16858302901c91506601317c700770008202810190508360ff16858302901c9150650cba84aafa008202810190508360ff16858302901c91506482573a0a008202810190508360ff16858302901c91506405035ad9008202810190508360ff16858302901c9150632f881b008202810190508360ff16858302901c91506301b293408202810190508360ff16858302901c9150620efc408202810190508360ff16858302901c9150617fe08202810190508360ff16858302901c91506104208202810190508360ff16858302901c915060218202810190508360ff16858302901c915060018202810190508360ff166001901b856f0688589cc0e9505e2f2fee5580000000838161256b5761256a612741565b5b0401019250505092915050565b60007fffffffffffffffffffffffffffffffffffffffffffffffffffffffffffffffff806125a9576125a8612741565b5b828409905092915050565b600092915050565b600080600090506101008310156125ee575b60018311156125e957600183901c92506001810190506125ce565b61262f565b6000608090505b60008160ff16111561262d578060ff166001901b841061261e578060ff1684901c935080821791505b60018160ff16901c90506125f5565b505b80915050919050565b600080fd5b6000819050919050565b6126508161263d565b811461265b57600080fd5b50565b60008135905061266d81612647565b92915050565b6000806000806080858703121561268d5761268c612638565b5b600061269b8782880161265e565b94505060206126ac8782880161265e565b93505060406126bd8782880161265e565b92505060606126ce8782880161265e565b91505092959194509250565b6126e38161263d565b82525050565b60006040820190506126fe60008301856126da565b61270b60208301846126da565b9392505050565b7f4e487b7100000000000000000000000000000000000000000000000000000000600052603260045260246000fd5b7f4e487b7100000000000000000000000000000000000000000000000000000000600052601260045260246000fd5b7f4e487b7100000000000000000000000000000000000000000000000000000000600052601160045260246000fd5b60006127aa8261263d565b91506127b58361263d565b9250828210156127c8576127c7612770565b5b828203905092915050565b60006127de8261263d565b91506127e98361263d565b9250817fffffffffffffffffffffffffffffffffffffffffffffffffffffffffffffffff048311821515161561282257612821612770565b5b828202905092915050565b600082825260208201905092915050565b7f66696e64506f736974696f6e3a2078203e206d61780000000000000000000000600082015250565b600061287460158361282d565b915061287f8261283e565b602082019050919050565b600060208201905081810360008301526128a381612867565b905091905056fea2646970667358221220bd6897822c8c076e9ab81350ea963b19fb2ec8f72e52729b2dffcdd01ef3257f64736f6c634300080e0033",
  "linkReferences": {},
  "deployedLinkReferences": {}
}