{
  "_format": "hh-sol-artifact-1",
  "contractName": "CompoundInterestPendency",
  "sourceName": "contracts/CompoundInterestPendency.sol",
  "abi": [
    {
      "inputs": [
        {
          "internalType": "address",
          "name": "_analyticMath",
          "type": "address"
        }
      ],
      "stateMutability": "nonpayable",
      "type": "constructor"
    },
    {
      "inputs": [],
      "name": "DECIMALS",
      "outputs": [
        {
          "internalType": "uint8",
          "name": "",
          "type": "uint8"
        }
      ],
      "stateMutability": "view",
      "type": "function"
    },
    {
      "inputs": [],
      "name": "INITIAL_SUPPLY",
      "outputs": [
        {
          "internalType": "uint256",
          "name": "",
          "type": "uint256"
        }
      ],
      "stateMutability": "view",
      "type": "function"
    },
    {
      "inputs": [],
      "name": "MAX_SUPPLY",
      "outputs": [
        {
          "internalType": "uint256",
          "name": "",
          "type": "uint256"
        }
      ],
      "stateMutability": "view",
      "type": "function"
    },
    {
      "inputs": [
        {
          "internalType": "address",
          "name": "account",
          "type": "address"
        }
      ],
      "name": "balance",
      "outputs": [
        {
          "internalType": "uint256",
          "name": "",
          "type": "uint256"
        }
      ],
      "stateMutability": "view",
      "type": "function"
    },
    {
      "inputs": [
        {
          "internalType": "address",
          "name": "from",
          "type": "address"
        },
        {
          "internalType": "uint256",
          "name": "amount",
          "type": "uint256"
        }
      ],
      "name": "burn",
      "outputs": [],
      "stateMutability": "nonpayable",
      "type": "function"
    },
    {
      "inputs": [],
      "name": "checkForConsistency",
      "outputs": [
        {
          "internalType": "uint256",
          "name": "collective",
          "type": "uint256"
        },
        {
          "internalType": "uint256",
          "name": "marginal",
          "type": "uint256"
        },
        {
          "internalType": "uint256",
          "name": "abs_error",
          "type": "uint256"
        },
        {
          "internalType": "uint256",
          "name": "rel_error",
          "type": "uint256"
        },
        {
          "internalType": "uint256",
          "name": "solidityTruth",
          "type": "uint256"
        },
        {
          "internalType": "uint256",
          "name": "blockNo",
          "type": "uint256"
        }
      ],
      "stateMutability": "view",
      "type": "function"
    },
    {
      "inputs": [],
      "name": "getTotalState",
      "outputs": [
        {
          "internalType": "uint256",
          "name": "totalBalance",
          "type": "uint256"
        },
        {
          "internalType": "uint256",
          "name": "_latestBlock",
          "type": "uint256"
        },
        {
          "internalType": "uint256",
          "name": "_accRewardPerShare12",
          "type": "uint256"
        },
        {
          "internalType": "uint256",
          "name": "_rewordPool",
          "type": "uint256"
        },
        {
          "internalType": "uint256",
          "name": "_totalPendingReward",
          "type": "uint256"
        }
      ],
      "stateMutability": "view",
      "type": "function"
    },
    {
      "inputs": [
        {
          "internalType": "address",
          "name": "user",
          "type": "address"
        }
      ],
      "name": "getUserState",
      "outputs": [
        {
          "internalType": "uint256",
          "name": "_share",
          "type": "uint256"
        },
        {
          "internalType": "uint256",
          "name": "_reward",
          "type": "uint256"
        },
        {
          "internalType": "uint256",
          "name": "_rewardDebt",
          "type": "uint256"
        },
        {
          "internalType": "uint256",
          "name": "_userPendingReward",
          "type": "uint256"
        }
      ],
      "stateMutability": "view",
      "type": "function"
    },
    {
      "inputs": [],
      "name": "internals",
      "outputs": [
        {
          "internalType": "uint256",
          "name": "_initBlock",
          "type": "uint256"
        },
        {
          "internalType": "uint256",
          "name": "_rate",
          "type": "uint256"
        },
        {
          "internalType": "uint256",
          "name": "_scale",
          "type": "uint256"
        },
        {
          "internalType": "uint256",
          "name": "_cycle",
          "type": "uint256"
        },
        {
          "internalType": "uint256",
          "name": "_init_supply",
          "type": "uint256"
        }
      ],
      "stateMutability": "view",
      "type": "function"
    },
    {
      "inputs": [
        {
          "internalType": "address",
          "name": "to",
          "type": "address"
        },
        {
          "internalType": "uint256",
          "name": "amount",
          "type": "uint256"
        }
      ],
      "name": "mint",
      "outputs": [],
      "stateMutability": "nonpayable",
      "type": "function"
    },
    {
      "inputs": [],
      "name": "pendency",
      "outputs": [
        {
          "internalType": "uint256",
          "name": "",
          "type": "uint256"
        }
      ],
      "stateMutability": "view",
      "type": "function"
    },
    {
      "inputs": [
        {
          "internalType": "address",
          "name": "user",
          "type": "address"
        }
      ],
      "name": "pending",
      "outputs": [
        {
          "internalType": "uint256",
          "name": "pending",
          "type": "uint256"
        }
      ],
      "stateMutability": "view",
      "type": "function"
    },
    {
      "inputs": [],
      "name": "totalBalance",
      "outputs": [
        {
          "internalType": "uint256",
          "name": "",
          "type": "uint256"
        }
      ],
      "stateMutability": "view",
      "type": "function"
    },
    {
      "inputs": [],
      "name": "totalPending",
      "outputs": [
        {
          "internalType": "uint256",
          "name": "pending",
          "type": "uint256"
        }
      ],
      "stateMutability": "view",
      "type": "function"
    },
    {
      "inputs": [
        {
          "internalType": "address",
          "name": "recipient",
          "type": "address"
        },
        {
          "internalType": "uint256",
          "name": "amount",
          "type": "uint256"
        }
      ],
      "name": "transfer",
      "outputs": [
        {
          "internalType": "bool",
          "name": "",
          "type": "bool"
        }
      ],
      "stateMutability": "nonpayable",
      "type": "function"
    },
    {
      "inputs": [],
      "name": "update",
      "outputs": [],
      "stateMutability": "nonpayable",
      "type": "function"
    }
  ],
  "bytecode": "0x60806040523480156200001157600080fd5b5060405162002f3738038062002f37833981810160405281019062000037919062000a95565b80600a60006101000a81548173ffffffffffffffffffffffffffffffffffffffff021916908373ffffffffffffffffffffffffffffffffffffffff160217905550436002819055507370997970c51812dc3a010c7d01b50e0d17dc79c8600760006101000a81548173ffffffffffffffffffffffffffffffffffffffff021916908373ffffffffffffffffffffffffffffffffffffffff160217905550733c44cdddb6a900fa2b585dd299e03d12fa4293bc600860006101000a81548173ffffffffffffffffffffffffffffffffffffffff021916908373ffffffffffffffffffffffffffffffffffffffff1602179055507390f79bf6eb2c4f870365e785982e1f101e93b906600960006101000a81548173ffffffffffffffffffffffffffffffffffffffff021916908373ffffffffffffffffffffffffffffffffffffffff16021790555033600660006101000a81548173ffffffffffffffffffffffffffffffffffffffff021916908373ffffffffffffffffffffffffffffffffffffffff1602179055506200021e600660009054906101000a900473ffffffffffffffffffffffffffffffffffffffff16600360096012620001f8919062000b03565b600a62000206919062000c9f565b62000212919062000d1f565b6200029c60201b60201c565b620002956040518060400160405280601781526020017f496e697461696c206d696e7420746f204f776e65723a200000000000000000008152506003600960126200026a919062000b03565b600a62000278919062000c9f565b62000284919062000d1f565b6200038860201b62000c721760201c565b5062001051565b600073ffffffffffffffffffffffffffffffffffffffff168273ffffffffffffffffffffffffffffffffffffffff1614156040518060400160405280600c81526020017f5a65726f206164647265737300000000000000000000000000000000000000008152509062000347576040517f08c379a00000000000000000000000000000000000000000000000000000000081526004016200033e919062000dfb565b60405180910390fd5b506200035c600083836200042e60201b60201c565b62000370828260016200043360201b60201c565b62000384600083836200063d60201b60201c565b5050565b6200042a8282604051602401620003a192919062000e30565b6040516020818303038152906040527fb60e72cc000000000000000000000000000000000000000000000000000000007bffffffffffffffffffffffffffffffffffffffffffffffffffffffff19166020820180517bffffffffffffffffffffffffffffffffffffffffffffffffffffffff83818316178352505050506200064260201b60201c565b5050565b505050565b620004436200066b60201b60201c565b60006200045684620007da60201b60201c565b90506000811115620004ef576200047660045482620009be60201b60201c565b600481905550806000808673ffffffffffffffffffffffffffffffffffffffff1673ffffffffffffffffffffffffffffffffffffffff1681526020019081526020016000206000828254620004cc919062000e64565b925050819055508060016000828254620004e7919062000e64565b925050819055505b60025443620004ff919062000ec1565b600560008673ffffffffffffffffffffffffffffffffffffffff1673ffffffffffffffffffffffffffffffffffffffff168152602001908152602001600020600201819055508115620005c457826000808673ffffffffffffffffffffffffffffffffffffffff1673ffffffffffffffffffffffffffffffffffffffff16815260200190815260200160002060008282546200059c919062000e64565b925050819055508260016000828254620005b7919062000e64565b9250508190555062000637565b826000808673ffffffffffffffffffffffffffffffffffffffff1673ffffffffffffffffffffffffffffffffffffffff168152602001908152602001600020600082825462000614919062000ec1565b9250508190555082600160008282546200062f919062000ec1565b925050819055505b50505050565b505050565b620006688162000663620009ea60201b62000d0e1762000a0b60201b60201c565b60201c565b50565b60006003546002544362000680919062000ec1565b6200068c919062000ec1565b90506000811115620007d7576000600454600154620006ac919062000e64565b9050600080600a60009054906101000a900473ffffffffffffffffffffffffffffffffffffffff1673ffffffffffffffffffffffffffffffffffffffff16635aff34dc6101da620f424062000702919062000e64565b620f424087600a6040518563ffffffff1660e01b81526004016200072a949392919062000efc565b6040805180830381865afa15801562000747573d6000803e3d6000fd5b505050506040513d601f19601f820116820180604052508101906200076d919062000f7a565b9150915060006200079f82848662000786919062000fc1565b62000792919062000d1f565b85620009be60201b60201c565b90508060046000828254620007b5919062000e64565b9250508190555060025443620007cc919062000ec1565b600381905550505050505b50565b600080600560008473ffffffffffffffffffffffffffffffffffffffff1673ffffffffffffffffffffffffffffffffffffffff168152602001908152602001600020600201546002544362000830919062000ec1565b6200083c919062000ec1565b90506000811115620009b857600080600a60009054906101000a900473ffffffffffffffffffffffffffffffffffffffff1673ffffffffffffffffffffffffffffffffffffffff16635aff34dc6101da620f42406200089c919062000e64565b620f424086600a6040518563ffffffff1660e01b8152600401620008c4949392919062000efc565b6040805180830381865afa158015620008e1573d6000803e3d6000fd5b505050506040513d601f19601f8201168201806040525081019062000907919062000f7a565b91509150620009b381836000808973ffffffffffffffffffffffffffffffffffffffff1673ffffffffffffffffffffffffffffffffffffffff168152602001908152602001600020546200095c919062000fc1565b62000968919062000d1f565b6000808873ffffffffffffffffffffffffffffffffffffffff1673ffffffffffffffffffffffffffffffffffffffff16815260200190815260200160002054620009be60201b60201c565b935050505b50919050565b600081831115620009df578183620009d7919062000ec1565b9050620009e4565b600090505b92915050565b60006a636f6e736f6c652e6c6f679050600080835160208501845afa505050565b62000a1f60201b620016fd17819050919050565b62000a2962001022565b565b600080fd5b600073ffffffffffffffffffffffffffffffffffffffff82169050919050565b600062000a5d8262000a30565b9050919050565b62000a6f8162000a50565b811462000a7b57600080fd5b50565b60008151905062000a8f8162000a64565b92915050565b60006020828403121562000aae5762000aad62000a2b565b5b600062000abe8482850162000a7e565b91505092915050565b600060ff82169050919050565b7f4e487b7100000000000000000000000000000000000000000000000000000000600052601160045260246000fd5b600062000b108262000ac7565b915062000b1d8362000ac7565b92508260ff0382111562000b365762000b3562000ad4565b5b828201905092915050565b60008160011c9050919050565b6000808291508390505b600185111562000ba05780860481111562000b785762000b7762000ad4565b5b600185161562000b885780820291505b808102905062000b988562000b41565b945062000b58565b94509492505050565b60008262000bbb576001905062000c8e565b8162000bcb576000905062000c8e565b816001811462000be4576002811462000bef5762000c25565b600191505062000c8e565b60ff84111562000c045762000c0362000ad4565b5b8360020a91508482111562000c1e5762000c1d62000ad4565b5b5062000c8e565b5060208310610133831016604e8410600b841016171562000c5f5782820a90508381111562000c595762000c5862000ad4565b5b62000c8e565b62000c6e848484600162000b4e565b9250905081840481111562000c885762000c8762000ad4565b5b81810290505b9392505050565b6000819050919050565b600062000cac8262000c95565b915062000cb98362000ac7565b925062000ce87fffffffffffffffffffffffffffffffffffffffffffffffffffffffffffffffff848462000ba9565b905092915050565b7f4e487b7100000000000000000000000000000000000000000000000000000000600052601260045260246000fd5b600062000d2c8262000c95565b915062000d398362000c95565b92508262000d4c5762000d4b62000cf0565b5b828204905092915050565b600081519050919050565b600082825260208201905092915050565b60005b8381101562000d9357808201518184015260208101905062000d76565b8381111562000da3576000848401525b50505050565b6000601f19601f8301169050919050565b600062000dc78262000d57565b62000dd3818562000d62565b935062000de581856020860162000d73565b62000df08162000da9565b840191505092915050565b6000602082019050818103600083015262000e17818462000dba565b905092915050565b62000e2a8162000c95565b82525050565b6000604082019050818103600083015262000e4c818562000dba565b905062000e5d602083018462000e1f565b9392505050565b600062000e718262000c95565b915062000e7e8362000c95565b9250827fffffffffffffffffffffffffffffffffffffffffffffffffffffffffffffffff0382111562000eb65762000eb562000ad4565b5b828201905092915050565b600062000ece8262000c95565b915062000edb8362000c95565b92508282101562000ef15762000ef062000ad4565b5b828203905092915050565b600060808201905062000f13600083018762000e1f565b62000f22602083018662000e1f565b62000f31604083018562000e1f565b62000f40606083018462000e1f565b95945050505050565b62000f548162000c95565b811462000f6057600080fd5b50565b60008151905062000f748162000f49565b92915050565b6000806040838503121562000f945762000f9362000a2b565b5b600062000fa48582860162000f63565b925050602062000fb78582860162000f63565b9150509250929050565b600062000fce8262000c95565b915062000fdb8362000c95565b9250817fffffffffffffffffffffffffffffffffffffffffffffffffffffffffffffffff048311821515161562001017576200101662000ad4565b5b828202905092915050565b7f4e487b7100000000000000000000000000000000000000000000000000000000600052605160045260246000fd5b611ed680620010616000396000f3fe608060405234801561001057600080fd5b50600436106101005760003560e01c80639dc29fac11610097578063bdfeb1e511610066578063bdfeb1e514610293578063ddc5eddc146102b5578063df94cf1d146102d3578063e3d670d7146102f557610100565b80639dc29fac1461021f578063a2e620451461023b578063a9059cbb14610245578063ad7a672f1461027557610100565b806340c10f19116100d357806340c10f191461017d578063416ae768146101995780635eebea20146101cc57806373957289146101fc57610100565b80632e0f2625146101055780632ff2e9dc1461012357806332cb6b0c146101415780633f90916a1461015f575b600080fd5b61010d610325565b60405161011a9190611723565b60405180910390f35b61012b61032a565b6040516101389190611757565b60405180910390f35b610149610353565b6040516101569190611757565b60405180910390f35b610167610388565b6040516101749190611757565b60405180910390f35b61019760048036038101906101929190611801565b6104bc565b005b6101b360048036038101906101ae9190611841565b610550565b6040516101c3949392919061186e565b60405180910390f35b6101e660048036038101906101e19190611841565b610633565b6040516101f39190611757565b60405180910390f35b6102046107ff565b604051610216969594939291906118b3565b60405180910390f35b61023960048036038101906102349190611801565b610a62565b005b610243610a70565b005b61025f600480360381019061025a9190611801565b610bc1565b60405161026c919061192f565b60405180910390f35b61027d610bd8565b60405161028a9190611757565b60405180910390f35b61029b610be7565b6040516102ac95949392919061194a565b60405180910390f35b6102bd610c0f565b6040516102ca9190611757565b60405180910390f35b6102db610c15565b6040516102ec95949392919061194a565b60405180910390f35b61030f600480360381019061030a9190611841565b610c60565b60405161031c9190611757565b60405180910390f35b601281565b60036009601261033a91906119cc565b600a6103469190611b36565b6103509190611bb0565b81565b60036009601261036391906119cc565b600a61036f9190611b36565b6103799190611bb0565b60646103859190611be1565b81565b600060045490506000600354600254436103a29190611c3b565b6103ac9190611c3b565b905060008111156104b85760006004546001546103c99190611c6f565b9050600080600a60009054906101000a900473ffffffffffffffffffffffffffffffffffffffff1673ffffffffffffffffffffffffffffffffffffffff16635aff34dc6101da620f424061041d9190611c6f565b620f424087600a6040518563ffffffff1660e01b8152600401610443949392919061186e565b6040805180830381865afa15801561045f573d6000803e3d6000fd5b505050506040513d601f19601f820116820180604052508101906104839190611cda565b915091506104a78183856104979190611be1565b6104a19190611bb0565b84610d2f565b856104b29190611c6f565b94505050505b5090565b6003600960126104cc91906119cc565b600a6104d89190611b36565b6104e29190611bb0565b60646104ee9190611be1565b816104f7610d57565b6105019190611c6f565b1115610542576040517f08c379a000000000000000000000000000000000000000000000000000000000815260040161053990611d77565b60405180910390fd5b61054c8282610d73565b5050565b6000806000806000808673ffffffffffffffffffffffffffffffffffffffff1673ffffffffffffffffffffffffffffffffffffffff168152602001908152602001600020549350600560008673ffffffffffffffffffffffffffffffffffffffff1673ffffffffffffffffffffffffffffffffffffffff168152602001908152602001600020600101549250600560008673ffffffffffffffffffffffffffffffffffffffff1673ffffffffffffffffffffffffffffffffffffffff16815260200190815260200160002060000154915061062a85610633565b90509193509193565b600080600560008473ffffffffffffffffffffffffffffffffffffffff1673ffffffffffffffffffffffffffffffffffffffff16815260200190815260200160002060020154600254436106879190611c3b565b6106919190611c3b565b905060008111156107f957600080600a60009054906101000a900473ffffffffffffffffffffffffffffffffffffffff1673ffffffffffffffffffffffffffffffffffffffff16635aff34dc6101da620f42406106ee9190611c6f565b620f424086600a6040518563ffffffff1660e01b8152600401610714949392919061186e565b6040805180830381865afa158015610730573d6000803e3d6000fd5b505050506040513d601f19601f820116820180604052508101906107549190611cda565b915091506107f481836000808973ffffffffffffffffffffffffffffffffffffffff1673ffffffffffffffffffffffffffffffffffffffff168152602001908152602001600020546107a69190611be1565b6107b09190611bb0565b6000808873ffffffffffffffffffffffffffffffffffffffff1673ffffffffffffffffffffffffffffffffffffffff16815260200190815260200160002054610d2f565b935050505b50919050565b600080600080600080610810610bd8565b955061083d600660009054906101000a900473ffffffffffffffffffffffffffffffffffffffff16610c60565b856108489190611c6f565b9450610875600760009054906101000a900473ffffffffffffffffffffffffffffffffffffffff16610c60565b856108809190611c6f565b94506108ad600860009054906101000a900473ffffffffffffffffffffffffffffffffffffffff16610c60565b856108b89190611c6f565b94506108e5600960009054906101000a900473ffffffffffffffffffffffffffffffffffffffff16610c60565b856108f09190611c6f565b94506000858710156109125786866109089190611c3b565b9450859050610924565b858761091e9190611c3b565b94508690505b60008111156109535785856b033b2e3c9fd0803ce80000006109469190611be1565b6109509190611bb0565b93505b6000600254436109639190611c3b565b9050600080600a60009054906101000a900473ffffffffffffffffffffffffffffffffffffffff1673ffffffffffffffffffffffffffffffffffffffff16635aff34dc6101da620f42406109b79190611c6f565b620f424086600a6040518563ffffffff1660e01b81526004016109dd949392919061186e565b6040805180830381865afa1580156109f9573d6000803e3d6000fd5b505050506040513d601f19601f82011682018060405250810190610a1d9190611cda565b91509150610a51600360096012610a3491906119cc565b600a610a409190611b36565b610a4a9190611bb0565b8383610e44565b955043945050505050909192939495565b610a6c8282610e86565b5050565b600060035460025443610a839190611c3b565b610a8d9190611c3b565b90506000811115610bbe576000600454600154610aaa9190611c6f565b9050600080600a60009054906101000a900473ffffffffffffffffffffffffffffffffffffffff1673ffffffffffffffffffffffffffffffffffffffff16635aff34dc6101da620f4240610afe9190611c6f565b620f424087600a6040518563ffffffff1660e01b8152600401610b24949392919061186e565b6040805180830381865afa158015610b40573d6000803e3d6000fd5b505050506040513d601f19601f82011682018060405250810190610b649190611cda565b915091506000610b8a828486610b7a9190611be1565b610b849190611bb0565b85610d2f565b90508060046000828254610b9e9190611c6f565b9250508190555060025443610bb39190611c3b565b600381905550505050505b50565b6000610bce338484610fe1565b6001905092915050565b6000610be2610d57565b905090565b6000806000806000600154945060035493506004549150610c06610388565b90509091929394565b60045481565b600080600080600060025494506101da9350620f42409250600a9150600360096012610c4191906119cc565b600a610c4d9190611b36565b610c579190611bb0565b90509091929394565b6000610c6b826111f0565b9050919050565b610d0a8282604051602401610c88929190611e1f565b6040516020818303038152906040527fb60e72cc000000000000000000000000000000000000000000000000000000007bffffffffffffffffffffffffffffffffffffffffffffffffffffffff19166020820180517bffffffffffffffffffffffffffffffffffffffffffffffffffffffff838183161783525050505061124b565b5050565b60006a636f6e736f6c652e6c6f679050600080835160208501845afa505050565b600081831115610d4c578183610d459190611c3b565b9050610d51565b600090505b92915050565b6000610d61610388565b600154610d6e9190611c6f565b905090565b600073ffffffffffffffffffffffffffffffffffffffff168273ffffffffffffffffffffffffffffffffffffffff1614156040518060400160405280600c81526020017f5a65726f2061646472657373000000000000000000000000000000000000000081525090610e1b576040517f08c379a0000000000000000000000000000000000000000000000000000000008152600401610e129190611e4f565b60405180910390fd5b50610e2860008383611265565b610e348282600161126a565b610e406000838361144b565b5050565b600080610e52858585611450565b90506000610e61868686611535565b1115610e7a57610e72816001611552565b915050610e7f565b809150505b9392505050565b600073ffffffffffffffffffffffffffffffffffffffff168273ffffffffffffffffffffffffffffffffffffffff1614156040518060400160405280600c81526020017f5a65726f2061646472657373000000000000000000000000000000000000000081525090610f2e576040517f08c379a0000000000000000000000000000000000000000000000000000000008152600401610f259190611e4f565b60405180910390fd5b506000610f3a836111f0565b9050818110156040518060400160405280600f81526020017f457863656564732062616c616e6365000000000000000000000000000000000081525090610fb7576040517f08c379a0000000000000000000000000000000000000000000000000000000008152600401610fae9190611e4f565b60405180910390fd5b50610fc483600084611265565b610fd08383600061126a565b610fdc8360008461144b565b505050565b600073ffffffffffffffffffffffffffffffffffffffff168373ffffffffffffffffffffffffffffffffffffffff1614156040518060400160405280600c81526020017f5a65726f2061646472657373000000000000000000000000000000000000000081525090611089576040517f08c379a00000000000000000000000000000000000000000000000000000000081526004016110809190611e4f565b60405180910390fd5b50600073ffffffffffffffffffffffffffffffffffffffff168273ffffffffffffffffffffffffffffffffffffffff1614156040518060400160405280600c81526020017f5a65726f2061646472657373000000000000000000000000000000000000000081525090611132576040517f08c379a00000000000000000000000000000000000000000000000000000000081526004016111299190611e4f565b60405180910390fd5b50600061113e846111f0565b9050818110156040518060400160405280600f81526020017f457863656564732062616c616e63650000000000000000000000000000000000815250906111bb576040517f08c379a00000000000000000000000000000000000000000000000000000000081526004016111b29190611e4f565b60405180910390fd5b506111c7848484611265565b6111d38483600061126a565b6111df8383600161126a565b6111ea84848461144b565b50505050565b60006111fb82610633565b6000808473ffffffffffffffffffffffffffffffffffffffff1673ffffffffffffffffffffffffffffffffffffffff168152602001908152602001600020546112449190611c6f565b9050919050565b6112628161125a610d0e611568565b63ffffffff16565b50565b505050565b611272610a70565b600061127d84610633565b905060008111156113095761129460045482610d2f565b600481905550806000808673ffffffffffffffffffffffffffffffffffffffff1673ffffffffffffffffffffffffffffffffffffffff16815260200190815260200160002060008282546112e89190611c6f565b9250508190555080600160008282546113019190611c6f565b925050819055505b600254436113179190611c3b565b600560008673ffffffffffffffffffffffffffffffffffffffff1673ffffffffffffffffffffffffffffffffffffffff1681526020019081526020016000206002018190555081156113d657826000808673ffffffffffffffffffffffffffffffffffffffff1673ffffffffffffffffffffffffffffffffffffffff16815260200190815260200160002060008282546113b19190611c6f565b9250508190555082600160008282546113ca9190611c6f565b92505081905550611445565b826000808673ffffffffffffffffffffffffffffffffffffffff1673ffffffffffffffffffffffffffffffffffffffff16815260200190815260200160002060008282546114249190611c3b565b92505081905550826001600082825461143d9190611c3b565b925050819055505b50505050565b505050565b600080600061145f8686611573565b91509150600082036114855783818161147b5761147a611b81565b5b049250505061152e565b8382101561152957600061149a878787611535565b90506000806114aa8585856115c4565b91509150600082036114d3578681816114c6576114c5611b81565b5b049550505050505061152e565b6000876114e160008a6115f6565b16905060006114f184848461160c565b9050600061150e838b8161150857611507611b81565b5b0461165c565b905061151a82826116a3565b9850505050505050505061152e565b600080fd5b9392505050565b6000818061154657611545611b81565b5b83850990509392505050565b600081836115609190611c6f565b905092915050565b6116fd819050919050565b600080600061158285856116b9565b9050600061159086866116a3565b90508082106115a857808203819350935050506115bd565b60016115b483836115f6565b03819350935050505b9250929050565b6000808284106115db5784838503915091506115ee565b600185036115e985856115f6565b915091505b935093915050565b600081836116049190611c3b565b905092915050565b6000806116348361161e6000866115f6565b8161162c5761162b611b81565b5b0460016116f5565b905082848161164657611645611b81565b5b0461165186836116a3565b179150509392505050565b6000806001905060005b60088110156116995761168c82611687600261168286896116a3565b6115f6565b6116a3565b9150806001019050611666565b5080915050919050565b600081836116b19190611be1565b905092915050565b60007fffffffffffffffffffffffffffffffffffffffffffffffffffffffffffffffff806116ea576116e9611b81565b5b828409905092915050565b600092915050565b611705611e71565b565b600060ff82169050919050565b61171d81611707565b82525050565b60006020820190506117386000830184611714565b92915050565b6000819050919050565b6117518161173e565b82525050565b600060208201905061176c6000830184611748565b92915050565b600080fd5b600073ffffffffffffffffffffffffffffffffffffffff82169050919050565b60006117a282611777565b9050919050565b6117b281611797565b81146117bd57600080fd5b50565b6000813590506117cf816117a9565b92915050565b6117de8161173e565b81146117e957600080fd5b50565b6000813590506117fb816117d5565b92915050565b6000806040838503121561181857611817611772565b5b6000611826858286016117c0565b9250506020611837858286016117ec565b9150509250929050565b60006020828403121561185757611856611772565b5b6000611865848285016117c0565b91505092915050565b60006080820190506118836000830187611748565b6118906020830186611748565b61189d6040830185611748565b6118aa6060830184611748565b95945050505050565b600060c0820190506118c86000830189611748565b6118d56020830188611748565b6118e26040830187611748565b6118ef6060830186611748565b6118fc6080830185611748565b61190960a0830184611748565b979650505050505050565b60008115159050919050565b61192981611914565b82525050565b60006020820190506119446000830184611920565b92915050565b600060a08201905061195f6000830188611748565b61196c6020830187611748565b6119796040830186611748565b6119866060830185611748565b6119936080830184611748565b9695505050505050565b7f4e487b7100000000000000000000000000000000000000000000000000000000600052601160045260246000fd5b60006119d782611707565b91506119e283611707565b92508260ff038211156119f8576119f761199d565b5b828201905092915050565b60008160011c9050919050565b6000808291508390505b6001851115611a5a57808604811115611a3657611a3561199d565b5b6001851615611a455780820291505b8081029050611a5385611a03565b9450611a1a565b94509492505050565b600082611a735760019050611b2f565b81611a815760009050611b2f565b8160018114611a975760028114611aa157611ad0565b6001915050611b2f565b60ff841115611ab357611ab261199d565b5b8360020a915084821115611aca57611ac961199d565b5b50611b2f565b5060208310610133831016604e8410600b8410161715611b055782820a905083811115611b0057611aff61199d565b5b611b2f565b611b128484846001611a10565b92509050818404811115611b2957611b2861199d565b5b81810290505b9392505050565b6000611b418261173e565b9150611b4c83611707565b9250611b797fffffffffffffffffffffffffffffffffffffffffffffffffffffffffffffffff8484611a63565b905092915050565b7f4e487b7100000000000000000000000000000000000000000000000000000000600052601260045260246000fd5b6000611bbb8261173e565b9150611bc68361173e565b925082611bd657611bd5611b81565b5b828204905092915050565b6000611bec8261173e565b9150611bf78361173e565b9250817fffffffffffffffffffffffffffffffffffffffffffffffffffffffffffffffff0483118215151615611c3057611c2f61199d565b5b828202905092915050565b6000611c468261173e565b9150611c518361173e565b925082821015611c6457611c6361199d565b5b828203905092915050565b6000611c7a8261173e565b9150611c858361173e565b9250827fffffffffffffffffffffffffffffffffffffffffffffffffffffffffffffffff03821115611cba57611cb961199d565b5b828201905092915050565b600081519050611cd4816117d5565b92915050565b60008060408385031215611cf157611cf0611772565b5b6000611cff85828601611cc5565b9250506020611d1085828601611cc5565b9150509250929050565b600082825260208201905092915050565b7f457863656564204d617820537570706c79000000000000000000000000000000600082015250565b6000611d61601183611d1a565b9150611d6c82611d2b565b602082019050919050565b60006020820190508181036000830152611d9081611d54565b9050919050565b600081519050919050565b60005b83811015611dc0578082015181840152602081019050611da5565b83811115611dcf576000848401525b50505050565b6000601f19601f8301169050919050565b6000611df182611d97565b611dfb8185611d1a565b9350611e0b818560208601611da2565b611e1481611dd5565b840191505092915050565b60006040820190508181036000830152611e398185611de6565b9050611e486020830184611748565b9392505050565b60006020820190508181036000830152611e698184611de6565b905092915050565b7f4e487b7100000000000000000000000000000000000000000000000000000000600052605160045260246000fdfea2646970667358221220e6e60e90fe5ddfd3630a7619c828b41423505be0500b24f9bfc22aa3cd5dc9a864736f6c634300080e0033",
  "linkReferences": {},
  "deployedLinkReferences": {}
}