{
  "_format": "hh-sol-artifact-1",
  "contractName": "SimpleBurnPendency",
  "sourceName": "contracts/SimpleBurnPendency.sol",
  "abi": [
    {
      "inputs": [
        {
          "internalType": "address",
          "name": "_analyticMath",
          "type": "address"
        }
      ],
      "stateMutability": "nonpayable",
      "type": "constructor"
    },
    {
      "inputs": [],
      "name": "DECIMALS",
      "outputs": [
        {
          "internalType": "uint8",
          "name": "",
          "type": "uint8"
        }
      ],
      "stateMutability": "view",
      "type": "function"
    },
    {
      "inputs": [],
      "name": "INITIAL_SUPPLY",
      "outputs": [
        {
          "internalType": "uint256",
          "name": "",
          "type": "uint256"
        }
      ],
      "stateMutability": "view",
      "type": "function"
    },
    {
      "inputs": [],
      "name": "MAX_SUPPLY",
      "outputs": [
        {
          "internalType": "uint256",
          "name": "",
          "type": "uint256"
        }
      ],
      "stateMutability": "view",
      "type": "function"
    },
    {
      "inputs": [
        {
          "internalType": "address",
          "name": "account",
          "type": "address"
        }
      ],
      "name": "balance",
      "outputs": [
        {
          "internalType": "uint256",
          "name": "",
          "type": "uint256"
        }
      ],
      "stateMutability": "view",
      "type": "function"
    },
    {
      "inputs": [
        {
          "internalType": "address",
          "name": "from",
          "type": "address"
        },
        {
          "internalType": "uint256",
          "name": "amount",
          "type": "uint256"
        }
      ],
      "name": "burn",
      "outputs": [],
      "stateMutability": "nonpayable",
      "type": "function"
    },
    {
      "inputs": [],
      "name": "checkForConsistency",
      "outputs": [
        {
          "internalType": "uint256",
          "name": "collective",
          "type": "uint256"
        },
        {
          "internalType": "uint256",
          "name": "marginal",
          "type": "uint256"
        },
        {
          "internalType": "uint256",
          "name": "abs_error",
          "type": "uint256"
        },
        {
          "internalType": "uint256",
          "name": "rel_error",
          "type": "uint256"
        },
        {
          "internalType": "uint256",
          "name": "solidityTruth",
          "type": "uint256"
        },
        {
          "internalType": "uint256",
          "name": "blockNo",
          "type": "uint256"
        }
      ],
      "stateMutability": "view",
      "type": "function"
    },
    {
      "inputs": [],
      "name": "getTotalState",
      "outputs": [
        {
          "internalType": "uint256",
          "name": "totalBalance",
          "type": "uint256"
        },
        {
          "internalType": "uint256",
          "name": "_latestBlock",
          "type": "uint256"
        },
        {
          "internalType": "uint256",
          "name": "_accRewardPerShare12",
          "type": "uint256"
        },
        {
          "internalType": "uint256",
          "name": "_rewordPool",
          "type": "uint256"
        },
        {
          "internalType": "uint256",
          "name": "_totalPendingReward",
          "type": "uint256"
        }
      ],
      "stateMutability": "view",
      "type": "function"
    },
    {
      "inputs": [
        {
          "internalType": "address",
          "name": "user",
          "type": "address"
        }
      ],
      "name": "getUserState",
      "outputs": [
        {
          "internalType": "uint256",
          "name": "_share",
          "type": "uint256"
        },
        {
          "internalType": "uint256",
          "name": "_reward",
          "type": "uint256"
        },
        {
          "internalType": "uint256",
          "name": "_rewardDebt",
          "type": "uint256"
        },
        {
          "internalType": "uint256",
          "name": "_userPendingReward",
          "type": "uint256"
        }
      ],
      "stateMutability": "view",
      "type": "function"
    },
    {
      "inputs": [],
      "name": "internals",
      "outputs": [
        {
          "internalType": "uint256",
          "name": "_initBlock",
          "type": "uint256"
        },
        {
          "internalType": "uint256",
          "name": "_rate",
          "type": "uint256"
        },
        {
          "internalType": "uint256",
          "name": "_scale",
          "type": "uint256"
        },
        {
          "internalType": "uint256",
          "name": "_cycle",
          "type": "uint256"
        },
        {
          "internalType": "uint256",
          "name": "_init_supply",
          "type": "uint256"
        }
      ],
      "stateMutability": "view",
      "type": "function"
    },
    {
      "inputs": [
        {
          "internalType": "address",
          "name": "to",
          "type": "address"
        },
        {
          "internalType": "uint256",
          "name": "amount",
          "type": "uint256"
        }
      ],
      "name": "mint",
      "outputs": [],
      "stateMutability": "nonpayable",
      "type": "function"
    },
    {
      "inputs": [],
      "name": "pendency",
      "outputs": [
        {
          "internalType": "uint256",
          "name": "",
          "type": "uint256"
        }
      ],
      "stateMutability": "view",
      "type": "function"
    },
    {
      "inputs": [],
      "name": "totalBalance",
      "outputs": [
        {
          "internalType": "uint256",
          "name": "",
          "type": "uint256"
        }
      ],
      "stateMutability": "view",
      "type": "function"
    },
    {
      "inputs": [],
      "name": "totalPending",
      "outputs": [
        {
          "internalType": "uint256",
          "name": "pending",
          "type": "uint256"
        }
      ],
      "stateMutability": "view",
      "type": "function"
    },
    {
      "inputs": [],
      "name": "totalReward",
      "outputs": [
        {
          "internalType": "uint256",
          "name": "",
          "type": "uint256"
        }
      ],
      "stateMutability": "view",
      "type": "function"
    },
    {
      "inputs": [
        {
          "internalType": "address",
          "name": "recipient",
          "type": "address"
        },
        {
          "internalType": "uint256",
          "name": "amount",
          "type": "uint256"
        }
      ],
      "name": "transfer",
      "outputs": [
        {
          "internalType": "bool",
          "name": "",
          "type": "bool"
        }
      ],
      "stateMutability": "nonpayable",
      "type": "function"
    },
    {
      "inputs": [],
      "name": "update",
      "outputs": [],
      "stateMutability": "nonpayable",
      "type": "function"
    }
  ],
  "bytecode": "0x60806040523480156200001157600080fd5b5060405162002ab238038062002ab28339818101604052810190620000379190620008da565b80600b60006101000a81548173ffffffffffffffffffffffffffffffffffffffff021916908373ffffffffffffffffffffffffffffffffffffffff160217905550436002819055507370997970c51812dc3a010c7d01b50e0d17dc79c8600860006101000a81548173ffffffffffffffffffffffffffffffffffffffff021916908373ffffffffffffffffffffffffffffffffffffffff160217905550733c44cdddb6a900fa2b585dd299e03d12fa4293bc600960006101000a81548173ffffffffffffffffffffffffffffffffffffffff021916908373ffffffffffffffffffffffffffffffffffffffff1602179055507390f79bf6eb2c4f870365e785982e1f101e93b906600a60006101000a81548173ffffffffffffffffffffffffffffffffffffffff021916908373ffffffffffffffffffffffffffffffffffffffff16021790555033600760006101000a81548173ffffffffffffffffffffffffffffffffffffffff021916908373ffffffffffffffffffffffffffffffffffffffff1602179055506200021e600760009054906101000a900473ffffffffffffffffffffffffffffffffffffffff16600360096012620001f8919062000948565b600a62000206919062000ae4565b62000212919062000b64565b6200029c60201b60201c565b620002956040518060400160405280601781526020017f496e697461696c206d696e7420746f204f776e65723a200000000000000000008152506003600960126200026a919062000948565b600a62000278919062000ae4565b62000284919062000b64565b6200038860201b62000a001760201c565b5062000dd1565b600073ffffffffffffffffffffffffffffffffffffffff168273ffffffffffffffffffffffffffffffffffffffff1614156040518060400160405280600c81526020017f5a65726f206164647265737300000000000000000000000000000000000000008152509062000347576040517f08c379a00000000000000000000000000000000000000000000000000000000081526004016200033e919062000c40565b60405180910390fd5b506200035c600083836200042e60201b60201c565b62000370828260016200043360201b60201c565b62000384600083836200064160201b60201c565b5050565b6200042a8282604051602401620003a192919062000c75565b6040516020818303038152906040527fb60e72cc000000000000000000000000000000000000000000000000000000007bffffffffffffffffffffffffffffffffffffffffffffffffffffffff19166020820180517bffffffffffffffffffffffffffffffffffffffffffffffffffffffff83818316178352505050506200064660201b60201c565b5050565b505050565b620004436200066f60201b60201c565b600062000456846200071360201b60201c565b90506000811115620004f35762000476600454826200080360201b60201c565b60048190555080600660008673ffffffffffffffffffffffffffffffffffffffff1673ffffffffffffffffffffffffffffffffffffffff1681526020019081526020016000206000016000828254620004d0919062000ca9565b925050819055508060056000828254620004eb919062000ca9565b925050819055505b81156200057257826000808673ffffffffffffffffffffffffffffffffffffffff1673ffffffffffffffffffffffffffffffffffffffff16815260200190815260200160002060008282546200054a919062000ca9565b92505081905550826001600082825462000565919062000ca9565b92505081905550620005e5565b826000808673ffffffffffffffffffffffffffffffffffffffff1673ffffffffffffffffffffffffffffffffffffffff1681526020019081526020016000206000828254620005c2919062000d06565b925050819055508260016000828254620005dd919062000d06565b925050819055505b60025443620005f5919062000d06565b600660008673ffffffffffffffffffffffffffffffffffffffff1673ffffffffffffffffffffffffffffffffffffffff1681526020019081526020016000206001018190555050505050565b505050565b6200066c81620006676200082f60201b62000a9c176200085060201b60201c565b60201c565b50565b60006003546002544362000684919062000d06565b62000690919062000d06565b9050600081111562000710576000600a620f4240836101da600154620006b7919062000d41565b620006c3919062000d41565b620006cf919062000b64565b620006db919062000b64565b90508060046000828254620006f1919062000ca9565b925050819055506002544362000708919062000d06565b600381905550505b50565b600080600660008473ffffffffffffffffffffffffffffffffffffffff1673ffffffffffffffffffffffffffffffffffffffff168152602001908152602001600020600101546002544362000769919062000d06565b62000775919062000d06565b90506000811115620007fd57600a620f4240826101da6000808873ffffffffffffffffffffffffffffffffffffffff1673ffffffffffffffffffffffffffffffffffffffff16815260200190815260200160002054620007d6919062000d41565b620007e2919062000d41565b620007ee919062000b64565b620007fa919062000b64565b91505b50919050565b600081831115620008245781836200081c919062000d06565b905062000829565b600090505b92915050565b60006a636f6e736f6c652e6c6f679050600080835160208501845afa505050565b6200086460201b6200154d17819050919050565b6200086e62000da2565b565b600080fd5b600073ffffffffffffffffffffffffffffffffffffffff82169050919050565b6000620008a28262000875565b9050919050565b620008b48162000895565b8114620008c057600080fd5b50565b600081519050620008d481620008a9565b92915050565b600060208284031215620008f357620008f262000870565b5b60006200090384828501620008c3565b91505092915050565b600060ff82169050919050565b7f4e487b7100000000000000000000000000000000000000000000000000000000600052601160045260246000fd5b600062000955826200090c565b915062000962836200090c565b92508260ff038211156200097b576200097a62000919565b5b828201905092915050565b60008160011c9050919050565b6000808291508390505b6001851115620009e557808604811115620009bd57620009bc62000919565b5b6001851615620009cd5780820291505b8081029050620009dd8562000986565b94506200099d565b94509492505050565b60008262000a00576001905062000ad3565b8162000a10576000905062000ad3565b816001811462000a29576002811462000a345762000a6a565b600191505062000ad3565b60ff84111562000a495762000a4862000919565b5b8360020a91508482111562000a635762000a6262000919565b5b5062000ad3565b5060208310610133831016604e8410600b841016171562000aa45782820a90508381111562000a9e5762000a9d62000919565b5b62000ad3565b62000ab3848484600162000993565b9250905081840481111562000acd5762000acc62000919565b5b81810290505b9392505050565b6000819050919050565b600062000af18262000ada565b915062000afe836200090c565b925062000b2d7fffffffffffffffffffffffffffffffffffffffffffffffffffffffffffffffff8484620009ee565b905092915050565b7f4e487b7100000000000000000000000000000000000000000000000000000000600052601260045260246000fd5b600062000b718262000ada565b915062000b7e8362000ada565b92508262000b915762000b9062000b35565b5b828204905092915050565b600081519050919050565b600082825260208201905092915050565b60005b8381101562000bd857808201518184015260208101905062000bbb565b8381111562000be8576000848401525b50505050565b6000601f19601f8301169050919050565b600062000c0c8262000b9c565b62000c18818562000ba7565b935062000c2a81856020860162000bb8565b62000c358162000bee565b840191505092915050565b6000602082019050818103600083015262000c5c818462000bff565b905092915050565b62000c6f8162000ada565b82525050565b6000604082019050818103600083015262000c91818562000bff565b905062000ca2602083018462000c64565b9392505050565b600062000cb68262000ada565b915062000cc38362000ada565b9250827fffffffffffffffffffffffffffffffffffffffffffffffffffffffffffffffff0382111562000cfb5762000cfa62000919565b5b828201905092915050565b600062000d138262000ada565b915062000d208362000ada565b92508282101562000d365762000d3562000919565b5b828203905092915050565b600062000d4e8262000ada565b915062000d5b8362000ada565b9250817fffffffffffffffffffffffffffffffffffffffffffffffffffffffffffffffff048311821515161562000d975762000d9662000919565b5b828202905092915050565b7f4e487b7100000000000000000000000000000000000000000000000000000000600052605160045260246000fd5b611cd18062000de16000396000f3fe608060405234801561001057600080fd5b50600436106101005760003560e01c80639dc29fac11610097578063bdfeb1e511610066578063bdfeb1e514610281578063ddc5eddc146102a3578063df94cf1d146102c1578063e3d670d7146102e357610100565b80639dc29fac1461020d578063a2e6204514610229578063a9059cbb14610233578063ad7a672f1461026357610100565b806340c10f19116100d357806340c10f191461017d578063416ae7681461019957806373957289146101cc578063750142e6146101ef57610100565b80632e0f2625146101055780632ff2e9dc1461012357806332cb6b0c146101415780633f90916a1461015f575b600080fd5b61010d610313565b60405161011a9190611573565b60405180910390f35b61012b610318565b60405161013891906115a7565b60405180910390f35b610149610341565b60405161015691906115a7565b60405180910390f35b610167610376565b60405161017491906115a7565b60405180910390f35b61019760048036038101906101929190611651565b6103ec565b005b6101b360048036038101906101ae9190611691565b610480565b6040516101c394939291906116be565b60405180910390f35b6101d461051e565b6040516101e696959493929190611703565b60405180910390f35b6101f76108a8565b60405161020491906115a7565b60405180910390f35b61022760048036038101906102229190611651565b6108ae565b005b6102316108bc565b005b61024d60048036038101906102489190611651565b61094f565b60405161025a919061177f565b60405180910390f35b61026b610966565b60405161027891906115a7565b60405180910390f35b610289610975565b60405161029a95949392919061179a565b60405180910390f35b6102ab61099d565b6040516102b891906115a7565b60405180910390f35b6102c96109a3565b6040516102da95949392919061179a565b60405180910390f35b6102fd60048036038101906102f89190611691565b6109ee565b60405161030a91906115a7565b60405180910390f35b601281565b600360096012610328919061181c565b600a6103349190611986565b61033e9190611a00565b81565b600360096012610351919061181c565b600a61035d9190611986565b6103679190611a00565b60646103739190611a31565b81565b600060045490506000600354600254436103909190611a8b565b61039a9190611a8b565b905060008111156103e857600a620f4240826101da6001546103bc9190611a31565b6103c69190611a31565b6103d09190611a00565b6103da9190611a00565b826103e59190611abf565b91505b5090565b6003600960126103fc919061181c565b600a6104089190611986565b6104129190611a00565b606461041e9190611a31565b81610427610abd565b6104319190611abf565b1115610472576040517f08c379a000000000000000000000000000000000000000000000000000000000815260040161046990611b72565b60405180910390fd5b61047c8282610ac7565b5050565b6000806000806000808673ffffffffffffffffffffffffffffffffffffffff1673ffffffffffffffffffffffffffffffffffffffff168152602001908152602001600020549350600660008673ffffffffffffffffffffffffffffffffffffffff1673ffffffffffffffffffffffffffffffffffffffff16815260200190815260200160002060000154925061051585610b98565b90509193509193565b60008060008060008061052f610376565b60055461053c9190611abf565b9550610569600760009054906101000a900473ffffffffffffffffffffffffffffffffffffffff16610b98565b60066000600760009054906101000a900473ffffffffffffffffffffffffffffffffffffffff1673ffffffffffffffffffffffffffffffffffffffff1673ffffffffffffffffffffffffffffffffffffffff168152602001908152602001600020600001546105d89190611abf565b856105e39190611abf565b9450610610600860009054906101000a900473ffffffffffffffffffffffffffffffffffffffff16610b98565b60066000600860009054906101000a900473ffffffffffffffffffffffffffffffffffffffff1673ffffffffffffffffffffffffffffffffffffffff1673ffffffffffffffffffffffffffffffffffffffff1681526020019081526020016000206000015461067f9190611abf565b8561068a9190611abf565b94506106b7600960009054906101000a900473ffffffffffffffffffffffffffffffffffffffff16610b98565b60066000600960009054906101000a900473ffffffffffffffffffffffffffffffffffffffff1673ffffffffffffffffffffffffffffffffffffffff1673ffffffffffffffffffffffffffffffffffffffff168152602001908152602001600020600001546107269190611abf565b856107319190611abf565b945061075e600a60009054906101000a900473ffffffffffffffffffffffffffffffffffffffff16610b98565b60066000600a60009054906101000a900473ffffffffffffffffffffffffffffffffffffffff1673ffffffffffffffffffffffffffffffffffffffff1673ffffffffffffffffffffffffffffffffffffffff168152602001908152602001600020600001546107cd9190611abf565b856107d89190611abf565b94506000858710156107fa5786866107f09190611a8b565b945085905061080c565b85876108069190611a8b565b94508690505b600081111561083b5785856b033b2e3c9fd0803ce800000061082e9190611a31565b6108389190611a00565b93505b60006002544361084b9190611a8b565b9050610899600360096012610860919061181c565b600a61086c9190611986565b6108769190611a00565b826101da6108849190611a31565b600a620f42406108949190611a31565b610c7b565b93504392505050909192939495565b60055481565b6108b88282610cbd565b5050565b6000600354600254436108cf9190611a8b565b6108d99190611a8b565b9050600081111561094c576000600a620f4240836101da6001546108fd9190611a31565b6109079190611a31565b6109119190611a00565b61091b9190611a00565b9050806004600082825461092f9190611abf565b92505081905550600254436109449190611a8b565b600381905550505b50565b600061095c338484610e18565b6001905092915050565b6000610970610abd565b905090565b6000806000806000600154945060035493506004549150610994610376565b90509091929394565b60045481565b600080600080600060025494506101da9350620f42409250600a91506003600960126109cf919061181c565b600a6109db9190611986565b6109e59190611a00565b90509091929394565b60006109f982611027565b9050919050565b610a988282604051602401610a16929190611c1a565b6040516020818303038152906040527fb60e72cc000000000000000000000000000000000000000000000000000000007bffffffffffffffffffffffffffffffffffffffffffffffffffffffff19166020820180517bffffffffffffffffffffffffffffffffffffffffffffffffffffffff838183161783525050505061106f565b5050565b60006a636f6e736f6c652e6c6f679050600080835160208501845afa505050565b6000600154905090565b600073ffffffffffffffffffffffffffffffffffffffff168273ffffffffffffffffffffffffffffffffffffffff1614156040518060400160405280600c81526020017f5a65726f2061646472657373000000000000000000000000000000000000000081525090610b6f576040517f08c379a0000000000000000000000000000000000000000000000000000000008152600401610b669190611c4a565b60405180910390fd5b50610b7c60008383611089565b610b888282600161108e565b610b9460008383611273565b5050565b600080600660008473ffffffffffffffffffffffffffffffffffffffff1673ffffffffffffffffffffffffffffffffffffffff1681526020019081526020016000206001015460025443610bec9190611a8b565b610bf69190611a8b565b90506000811115610c7557600a620f4240826101da6000808873ffffffffffffffffffffffffffffffffffffffff1673ffffffffffffffffffffffffffffffffffffffff16815260200190815260200160002054610c549190611a31565b610c5e9190611a31565b610c689190611a00565b610c729190611a00565b91505b50919050565b600080610c89858585611278565b90506000610c9886868661135d565b1115610cb157610ca981600161137a565b915050610cb6565b809150505b9392505050565b600073ffffffffffffffffffffffffffffffffffffffff168273ffffffffffffffffffffffffffffffffffffffff1614156040518060400160405280600c81526020017f5a65726f2061646472657373000000000000000000000000000000000000000081525090610d65576040517f08c379a0000000000000000000000000000000000000000000000000000000008152600401610d5c9190611c4a565b60405180910390fd5b506000610d7183611027565b9050818110156040518060400160405280600f81526020017f457863656564732062616c616e6365000000000000000000000000000000000081525090610dee576040517f08c379a0000000000000000000000000000000000000000000000000000000008152600401610de59190611c4a565b60405180910390fd5b50610dfb83600084611089565b610e078383600061108e565b610e1383600084611273565b505050565b600073ffffffffffffffffffffffffffffffffffffffff168373ffffffffffffffffffffffffffffffffffffffff1614156040518060400160405280600c81526020017f5a65726f2061646472657373000000000000000000000000000000000000000081525090610ec0576040517f08c379a0000000000000000000000000000000000000000000000000000000008152600401610eb79190611c4a565b60405180910390fd5b50600073ffffffffffffffffffffffffffffffffffffffff168273ffffffffffffffffffffffffffffffffffffffff1614156040518060400160405280600c81526020017f5a65726f2061646472657373000000000000000000000000000000000000000081525090610f69576040517f08c379a0000000000000000000000000000000000000000000000000000000008152600401610f609190611c4a565b60405180910390fd5b506000610f7584611027565b9050818110156040518060400160405280600f81526020017f457863656564732062616c616e6365000000000000000000000000000000000081525090610ff2576040517f08c379a0000000000000000000000000000000000000000000000000000000008152600401610fe99190611c4a565b60405180910390fd5b50610ffe848484611089565b61100a8483600061108e565b6110168383600161108e565b611021848484611273565b50505050565b60008060008373ffffffffffffffffffffffffffffffffffffffff1673ffffffffffffffffffffffffffffffffffffffff168152602001908152602001600020549050919050565b6110868161107e610a9c611390565b63ffffffff16565b50565b505050565b6110966108bc565b60006110a184610b98565b90506000811115611131576110b86004548261139b565b60048190555080600660008673ffffffffffffffffffffffffffffffffffffffff1673ffffffffffffffffffffffffffffffffffffffff16815260200190815260200160002060000160008282546111109190611abf565b9250508190555080600560008282546111299190611abf565b925050819055505b81156111aa57826000808673ffffffffffffffffffffffffffffffffffffffff1673ffffffffffffffffffffffffffffffffffffffff16815260200190815260200160002060008282546111859190611abf565b92505081905550826001600082825461119e9190611abf565b92505081905550611219565b826000808673ffffffffffffffffffffffffffffffffffffffff1673ffffffffffffffffffffffffffffffffffffffff16815260200190815260200160002060008282546111f89190611a8b565b9250508190555082600160008282546112119190611a8b565b925050819055505b600254436112279190611a8b565b600660008673ffffffffffffffffffffffffffffffffffffffff1673ffffffffffffffffffffffffffffffffffffffff1681526020019081526020016000206001018190555050505050565b505050565b600080600061128786866113c3565b91509150600082036112ad578381816112a3576112a26119d1565b5b0492505050611356565b838210156113515760006112c287878761135d565b90506000806112d2858585611414565b91509150600082036112fb578681816112ee576112ed6119d1565b5b0495505050505050611356565b60008761130960008a611446565b169050600061131984848461145c565b90506000611336838b816113305761132f6119d1565b5b046114ac565b905061134282826114f3565b98505050505050505050611356565b600080fd5b9392505050565b6000818061136e5761136d6119d1565b5b83850990509392505050565b600081836113889190611abf565b905092915050565b61154d819050919050565b6000818311156113b85781836113b19190611a8b565b90506113bd565b600090505b92915050565b60008060006113d28585611509565b905060006113e086866114f3565b90508082106113f8578082038193509350505061140d565b60016114048383611446565b03819350935050505b9250929050565b60008082841061142b57848385039150915061143e565b600185036114398585611446565b915091505b935093915050565b600081836114549190611a8b565b905092915050565b6000806114848361146e600086611446565b8161147c5761147b6119d1565b5b046001611545565b9050828481611496576114956119d1565b5b046114a186836114f3565b179150509392505050565b6000806001905060005b60088110156114e9576114dc826114d760026114d286896114f3565b611446565b6114f3565b91508060010190506114b6565b5080915050919050565b600081836115019190611a31565b905092915050565b60007fffffffffffffffffffffffffffffffffffffffffffffffffffffffffffffffff8061153a576115396119d1565b5b828409905092915050565b600092915050565b611555611c6c565b565b600060ff82169050919050565b61156d81611557565b82525050565b60006020820190506115886000830184611564565b92915050565b6000819050919050565b6115a18161158e565b82525050565b60006020820190506115bc6000830184611598565b92915050565b600080fd5b600073ffffffffffffffffffffffffffffffffffffffff82169050919050565b60006115f2826115c7565b9050919050565b611602816115e7565b811461160d57600080fd5b50565b60008135905061161f816115f9565b92915050565b61162e8161158e565b811461163957600080fd5b50565b60008135905061164b81611625565b92915050565b60008060408385031215611668576116676115c2565b5b600061167685828601611610565b92505060206116878582860161163c565b9150509250929050565b6000602082840312156116a7576116a66115c2565b5b60006116b584828501611610565b91505092915050565b60006080820190506116d36000830187611598565b6116e06020830186611598565b6116ed6040830185611598565b6116fa6060830184611598565b95945050505050565b600060c0820190506117186000830189611598565b6117256020830188611598565b6117326040830187611598565b61173f6060830186611598565b61174c6080830185611598565b61175960a0830184611598565b979650505050505050565b60008115159050919050565b61177981611764565b82525050565b60006020820190506117946000830184611770565b92915050565b600060a0820190506117af6000830188611598565b6117bc6020830187611598565b6117c96040830186611598565b6117d66060830185611598565b6117e36080830184611598565b9695505050505050565b7f4e487b7100000000000000000000000000000000000000000000000000000000600052601160045260246000fd5b600061182782611557565b915061183283611557565b92508260ff03821115611848576118476117ed565b5b828201905092915050565b60008160011c9050919050565b6000808291508390505b60018511156118aa57808604811115611886576118856117ed565b5b60018516156118955780820291505b80810290506118a385611853565b945061186a565b94509492505050565b6000826118c3576001905061197f565b816118d1576000905061197f565b81600181146118e757600281146118f157611920565b600191505061197f565b60ff841115611903576119026117ed565b5b8360020a91508482111561191a576119196117ed565b5b5061197f565b5060208310610133831016604e8410600b84101617156119555782820a9050838111156119505761194f6117ed565b5b61197f565b6119628484846001611860565b92509050818404811115611979576119786117ed565b5b81810290505b9392505050565b60006119918261158e565b915061199c83611557565b92506119c97fffffffffffffffffffffffffffffffffffffffffffffffffffffffffffffffff84846118b3565b905092915050565b7f4e487b7100000000000000000000000000000000000000000000000000000000600052601260045260246000fd5b6000611a0b8261158e565b9150611a168361158e565b925082611a2657611a256119d1565b5b828204905092915050565b6000611a3c8261158e565b9150611a478361158e565b9250817fffffffffffffffffffffffffffffffffffffffffffffffffffffffffffffffff0483118215151615611a8057611a7f6117ed565b5b828202905092915050565b6000611a968261158e565b9150611aa18361158e565b925082821015611ab457611ab36117ed565b5b828203905092915050565b6000611aca8261158e565b9150611ad58361158e565b9250827fffffffffffffffffffffffffffffffffffffffffffffffffffffffffffffffff03821115611b0a57611b096117ed565b5b828201905092915050565b600082825260208201905092915050565b7f457863656564204d617820537570706c79000000000000000000000000000000600082015250565b6000611b5c601183611b15565b9150611b6782611b26565b602082019050919050565b60006020820190508181036000830152611b8b81611b4f565b9050919050565b600081519050919050565b60005b83811015611bbb578082015181840152602081019050611ba0565b83811115611bca576000848401525b50505050565b6000601f19601f8301169050919050565b6000611bec82611b92565b611bf68185611b15565b9350611c06818560208601611b9d565b611c0f81611bd0565b840191505092915050565b60006040820190508181036000830152611c348185611be1565b9050611c436020830184611598565b9392505050565b60006020820190508181036000830152611c648184611be1565b905092915050565b7f4e487b7100000000000000000000000000000000000000000000000000000000600052605160045260246000fdfea26469706673582212205599ca7a21f2973b4428bb144932601bab8e367c2961b8d6715f780e0d40529464736f6c634300080e0033",
  "linkReferences": {},
  "deployedLinkReferences": {}
}