{
  "_format": "hh-sol-artifact-1",
  "contractName": "CompoundBurnPendency",
  "sourceName": "contracts/CompoundBurnPendency.sol",
  "abi": [
    {
      "inputs": [
        {
          "internalType": "address",
          "name": "_analyticMath",
          "type": "address"
        }
      ],
      "stateMutability": "nonpayable",
      "type": "constructor"
    },
    {
      "inputs": [],
      "name": "DECIMALS",
      "outputs": [
        {
          "internalType": "uint8",
          "name": "",
          "type": "uint8"
        }
      ],
      "stateMutability": "view",
      "type": "function"
    },
    {
      "inputs": [],
      "name": "INITIAL_SUPPLY",
      "outputs": [
        {
          "internalType": "uint256",
          "name": "",
          "type": "uint256"
        }
      ],
      "stateMutability": "view",
      "type": "function"
    },
    {
      "inputs": [],
      "name": "MAX_SUPPLY",
      "outputs": [
        {
          "internalType": "uint256",
          "name": "",
          "type": "uint256"
        }
      ],
      "stateMutability": "view",
      "type": "function"
    },
    {
      "inputs": [],
      "name": "accRewardPerShare12",
      "outputs": [
        {
          "internalType": "uint256",
          "name": "",
          "type": "uint256"
        }
      ],
      "stateMutability": "view",
      "type": "function"
    },
    {
      "inputs": [],
      "name": "alpha",
      "outputs": [
        {
          "internalType": "uint256",
          "name": "",
          "type": "uint256"
        }
      ],
      "stateMutability": "view",
      "type": "function"
    },
    {
      "inputs": [
        {
          "internalType": "address",
          "name": "account",
          "type": "address"
        }
      ],
      "name": "balance",
      "outputs": [
        {
          "internalType": "uint256",
          "name": "",
          "type": "uint256"
        }
      ],
      "stateMutability": "view",
      "type": "function"
    },
    {
      "inputs": [
        {
          "internalType": "address",
          "name": "from",
          "type": "address"
        },
        {
          "internalType": "uint256",
          "name": "amount",
          "type": "uint256"
        }
      ],
      "name": "burn",
      "outputs": [],
      "stateMutability": "nonpayable",
      "type": "function"
    },
    {
      "inputs": [],
      "name": "checkForConsistency",
      "outputs": [
        {
          "internalType": "uint256",
          "name": "collective",
          "type": "uint256"
        },
        {
          "internalType": "uint256",
          "name": "marginal",
          "type": "uint256"
        },
        {
          "internalType": "uint256",
          "name": "abs_error",
          "type": "uint256"
        },
        {
          "internalType": "uint256",
          "name": "rel_error",
          "type": "uint256"
        },
        {
          "internalType": "uint256",
          "name": "solidityTruth",
          "type": "uint256"
        },
        {
          "internalType": "uint256",
          "name": "blockNo",
          "type": "uint256"
        }
      ],
      "stateMutability": "view",
      "type": "function"
    },
    {
      "inputs": [],
      "name": "distCycle",
      "outputs": [
        {
          "internalType": "uint256",
          "name": "",
          "type": "uint256"
        }
      ],
      "stateMutability": "view",
      "type": "function"
    },
    {
      "inputs": [],
      "name": "getTotalState",
      "outputs": [
        {
          "internalType": "uint256",
          "name": "totalBalance",
          "type": "uint256"
        },
        {
          "internalType": "uint256",
          "name": "_latestBlock",
          "type": "uint256"
        },
        {
          "internalType": "uint256",
          "name": "_accRewardPerShare12",
          "type": "uint256"
        },
        {
          "internalType": "uint256",
          "name": "_rewordPool",
          "type": "uint256"
        },
        {
          "internalType": "uint256",
          "name": "_totalPendingReward",
          "type": "uint256"
        }
      ],
      "stateMutability": "view",
      "type": "function"
    },
    {
      "inputs": [
        {
          "internalType": "address",
          "name": "user",
          "type": "address"
        }
      ],
      "name": "getUserState",
      "outputs": [
        {
          "internalType": "uint256",
          "name": "_share",
          "type": "uint256"
        },
        {
          "internalType": "uint256",
          "name": "_reward",
          "type": "uint256"
        },
        {
          "internalType": "uint256",
          "name": "_rewardDebt",
          "type": "uint256"
        },
        {
          "internalType": "uint256",
          "name": "_userPendingReward",
          "type": "uint256"
        }
      ],
      "stateMutability": "view",
      "type": "function"
    },
    {
      "inputs": [],
      "name": "internals",
      "outputs": [
        {
          "internalType": "uint256",
          "name": "_initBlock",
          "type": "uint256"
        },
        {
          "internalType": "uint256",
          "name": "_rate",
          "type": "uint256"
        },
        {
          "internalType": "uint256",
          "name": "_scale",
          "type": "uint256"
        },
        {
          "internalType": "uint256",
          "name": "_cycle",
          "type": "uint256"
        },
        {
          "internalType": "uint256",
          "name": "_init_supply",
          "type": "uint256"
        }
      ],
      "stateMutability": "view",
      "type": "function"
    },
    {
      "inputs": [
        {
          "internalType": "address",
          "name": "to",
          "type": "address"
        },
        {
          "internalType": "uint256",
          "name": "amount",
          "type": "uint256"
        }
      ],
      "name": "mint",
      "outputs": [],
      "stateMutability": "nonpayable",
      "type": "function"
    },
    {
      "inputs": [],
      "name": "pendency",
      "outputs": [
        {
          "internalType": "uint256",
          "name": "",
          "type": "uint256"
        }
      ],
      "stateMutability": "view",
      "type": "function"
    },
    {
      "inputs": [
        {
          "internalType": "address",
          "name": "user",
          "type": "address"
        }
      ],
      "name": "pending",
      "outputs": [
        {
          "internalType": "uint256",
          "name": "pending",
          "type": "uint256"
        }
      ],
      "stateMutability": "view",
      "type": "function"
    },
    {
      "inputs": [],
      "name": "totalBalance",
      "outputs": [
        {
          "internalType": "uint256",
          "name": "",
          "type": "uint256"
        }
      ],
      "stateMutability": "view",
      "type": "function"
    },
    {
      "inputs": [],
      "name": "totalPending",
      "outputs": [
        {
          "internalType": "uint256",
          "name": "pending",
          "type": "uint256"
        }
      ],
      "stateMutability": "view",
      "type": "function"
    },
    {
      "inputs": [
        {
          "internalType": "address",
          "name": "recipient",
          "type": "address"
        },
        {
          "internalType": "uint256",
          "name": "amount",
          "type": "uint256"
        }
      ],
      "name": "transfer",
      "outputs": [
        {
          "internalType": "bool",
          "name": "",
          "type": "bool"
        }
      ],
      "stateMutability": "nonpayable",
      "type": "function"
    },
    {
      "inputs": [],
      "name": "update",
      "outputs": [],
      "stateMutability": "nonpayable",
      "type": "function"
    }
  ],
  "bytecode": "0x60806040523480156200001157600080fd5b5060405162002fc738038062002fc7833981810160405281019062000037919062000a95565b80600b60006101000a81548173ffffffffffffffffffffffffffffffffffffffff021916908373ffffffffffffffffffffffffffffffffffffffff160217905550436002819055507370997970c51812dc3a010c7d01b50e0d17dc79c8600860006101000a81548173ffffffffffffffffffffffffffffffffffffffff021916908373ffffffffffffffffffffffffffffffffffffffff160217905550733c44cdddb6a900fa2b585dd299e03d12fa4293bc600960006101000a81548173ffffffffffffffffffffffffffffffffffffffff021916908373ffffffffffffffffffffffffffffffffffffffff1602179055507390f79bf6eb2c4f870365e785982e1f101e93b906600a60006101000a81548173ffffffffffffffffffffffffffffffffffffffff021916908373ffffffffffffffffffffffffffffffffffffffff16021790555033600760006101000a81548173ffffffffffffffffffffffffffffffffffffffff021916908373ffffffffffffffffffffffffffffffffffffffff1602179055506200021e600760009054906101000a900473ffffffffffffffffffffffffffffffffffffffff16600360096012620001f8919062000b03565b600a62000206919062000c9f565b62000212919062000d1f565b6200029c60201b60201c565b620002956040518060400160405280601781526020017f496e697461696c206d696e7420746f204f776e65723a200000000000000000008152506003600960126200026a919062000b03565b600a62000278919062000c9f565b62000284919062000d1f565b6200038860201b62000d021760201c565b5062001051565b600073ffffffffffffffffffffffffffffffffffffffff168273ffffffffffffffffffffffffffffffffffffffff1614156040518060400160405280600c81526020017f5a65726f206164647265737300000000000000000000000000000000000000008152509062000347576040517f08c379a00000000000000000000000000000000000000000000000000000000081526004016200033e919062000dfb565b60405180910390fd5b506200035c600083836200042e60201b60201c565b62000370828260016200043360201b60201c565b62000384600083836200063d60201b60201c565b5050565b6200042a8282604051602401620003a192919062000e30565b6040516020818303038152906040527fb60e72cc000000000000000000000000000000000000000000000000000000007bffffffffffffffffffffffffffffffffffffffffffffffffffffffff19166020820180517bffffffffffffffffffffffffffffffffffffffffffffffffffffffff83818316178352505050506200064260201b60201c565b5050565b505050565b620004436200066b60201b60201c565b60006200045684620007da60201b60201c565b90506000811115620004ef576200047660045482620009be60201b60201c565b600481905550806000808673ffffffffffffffffffffffffffffffffffffffff1673ffffffffffffffffffffffffffffffffffffffff1681526020019081526020016000206000828254620004cc919062000e64565b925050819055508060016000828254620004e7919062000e64565b925050819055505b60025443620004ff919062000e64565b600660008673ffffffffffffffffffffffffffffffffffffffff1673ffffffffffffffffffffffffffffffffffffffff168152602001908152602001600020600201819055508115620005c457826000808673ffffffffffffffffffffffffffffffffffffffff1673ffffffffffffffffffffffffffffffffffffffff16815260200190815260200160002060008282546200059c919062000e9f565b925050819055508260016000828254620005b7919062000e9f565b9250508190555062000637565b826000808673ffffffffffffffffffffffffffffffffffffffff1673ffffffffffffffffffffffffffffffffffffffff168152602001908152602001600020600082825462000614919062000e64565b9250508190555082600160008282546200062f919062000e64565b925050819055505b50505050565b505050565b620006688162000663620009ea60201b62000d9e1762000a0b60201b60201c565b60201c565b50565b60006003546002544362000680919062000e64565b6200068c919062000e64565b90506000811115620007d7576000600454600154620006ac919062000e64565b9050600080600b60009054906101000a900473ffffffffffffffffffffffffffffffffffffffff1673ffffffffffffffffffffffffffffffffffffffff16635aff34dc6101da620f424062000702919062000e64565b620f424087600a6040518563ffffffff1660e01b81526004016200072a949392919062000efc565b6040805180830381865afa15801562000747573d6000803e3d6000fd5b505050506040513d601f19601f820116820180604052508101906200076d919062000f7a565b9150915060006200079f8483858762000787919062000fc1565b62000793919062000d1f565b620009be60201b60201c565b90508060046000828254620007b5919062000e9f565b9250508190555060025443620007cc919062000e64565b600381905550505050505b50565b600080600660008473ffffffffffffffffffffffffffffffffffffffff1673ffffffffffffffffffffffffffffffffffffffff168152602001908152602001600020600201546002544362000830919062000e64565b6200083c919062000e64565b90506000811115620009b857600080600b60009054906101000a900473ffffffffffffffffffffffffffffffffffffffff1673ffffffffffffffffffffffffffffffffffffffff16635aff34dc6101da620f42406200089c919062000e64565b620f424086600a6040518563ffffffff1660e01b8152600401620008c4949392919062000efc565b6040805180830381865afa158015620008e1573d6000803e3d6000fd5b505050506040513d601f19601f8201168201806040525081019062000907919062000f7a565b91509150620009b36000808773ffffffffffffffffffffffffffffffffffffffff1673ffffffffffffffffffffffffffffffffffffffff1681526020019081526020016000205482846000808a73ffffffffffffffffffffffffffffffffffffffff1673ffffffffffffffffffffffffffffffffffffffff168152602001908152602001600020546200099b919062000fc1565b620009a7919062000d1f565b620009be60201b60201c565b935050505b50919050565b600081831115620009df578183620009d7919062000e64565b9050620009e4565b600090505b92915050565b60006a636f6e736f6c652e6c6f679050600080835160208501845afa505050565b62000a1f60201b6200178d17819050919050565b62000a2962001022565b565b600080fd5b600073ffffffffffffffffffffffffffffffffffffffff82169050919050565b600062000a5d8262000a30565b9050919050565b62000a6f8162000a50565b811462000a7b57600080fd5b50565b60008151905062000a8f8162000a64565b92915050565b60006020828403121562000aae5762000aad62000a2b565b5b600062000abe8482850162000a7e565b91505092915050565b600060ff82169050919050565b7f4e487b7100000000000000000000000000000000000000000000000000000000600052601160045260246000fd5b600062000b108262000ac7565b915062000b1d8362000ac7565b92508260ff0382111562000b365762000b3562000ad4565b5b828201905092915050565b60008160011c9050919050565b6000808291508390505b600185111562000ba05780860481111562000b785762000b7762000ad4565b5b600185161562000b885780820291505b808102905062000b988562000b41565b945062000b58565b94509492505050565b60008262000bbb576001905062000c8e565b8162000bcb576000905062000c8e565b816001811462000be4576002811462000bef5762000c25565b600191505062000c8e565b60ff84111562000c045762000c0362000ad4565b5b8360020a91508482111562000c1e5762000c1d62000ad4565b5b5062000c8e565b5060208310610133831016604e8410600b841016171562000c5f5782820a90508381111562000c595762000c5862000ad4565b5b62000c8e565b62000c6e848484600162000b4e565b9250905081840481111562000c885762000c8762000ad4565b5b81810290505b9392505050565b6000819050919050565b600062000cac8262000c95565b915062000cb98362000ac7565b925062000ce87fffffffffffffffffffffffffffffffffffffffffffffffffffffffffffffffff848462000ba9565b905092915050565b7f4e487b7100000000000000000000000000000000000000000000000000000000600052601260045260246000fd5b600062000d2c8262000c95565b915062000d398362000c95565b92508262000d4c5762000d4b62000cf0565b5b828204905092915050565b600081519050919050565b600082825260208201905092915050565b60005b8381101562000d9357808201518184015260208101905062000d76565b8381111562000da3576000848401525b50505050565b6000601f19601f8301169050919050565b600062000dc78262000d57565b62000dd3818562000d62565b935062000de581856020860162000d73565b62000df08162000da9565b840191505092915050565b6000602082019050818103600083015262000e17818462000dba565b905092915050565b62000e2a8162000c95565b82525050565b6000604082019050818103600083015262000e4c818562000dba565b905062000e5d602083018462000e1f565b9392505050565b600062000e718262000c95565b915062000e7e8362000c95565b92508282101562000e945762000e9362000ad4565b5b828203905092915050565b600062000eac8262000c95565b915062000eb98362000c95565b9250827fffffffffffffffffffffffffffffffffffffffffffffffffffffffffffffffff0382111562000ef15762000ef062000ad4565b5b828201905092915050565b600060808201905062000f13600083018762000e1f565b62000f22602083018662000e1f565b62000f31604083018562000e1f565b62000f40606083018462000e1f565b95945050505050565b62000f548162000c95565b811462000f6057600080fd5b50565b60008151905062000f748162000f49565b92915050565b6000806040838503121562000f945762000f9362000a2b565b5b600062000fa48582860162000f63565b925050602062000fb78582860162000f63565b9150509250929050565b600062000fce8262000c95565b915062000fdb8362000c95565b9250817fffffffffffffffffffffffffffffffffffffffffffffffffffffffffffffffff048311821515161562001017576200101662000ad4565b5b828202905092915050565b7f4e487b7100000000000000000000000000000000000000000000000000000000600052605160045260246000fd5b611f6680620010616000396000f3fe608060405234801561001057600080fd5b50600436106101215760003560e01c80639dc29fac116100ad578063d1daefb411610071578063d1daefb4146102f4578063db1d0fd514610312578063ddc5eddc14610330578063df94cf1d1461034e578063e3d670d71461037057610121565b80639dc29fac1461025e578063a2e620451461027a578063a9059cbb14610284578063ad7a672f146102b4578063bdfeb1e5146102d257610121565b806340c10f19116100f457806340c10f191461019e578063416ae768146101ba57806357627e93146101ed5780635eebea201461020b578063739572891461023b57610121565b80632e0f2625146101265780632ff2e9dc1461014457806332cb6b0c146101625780633f90916a14610180575b600080fd5b61012e6103a0565b60405161013b91906117b3565b60405180910390f35b61014c6103a5565b60405161015991906117e7565b60405180910390f35b61016a6103ce565b60405161017791906117e7565b60405180910390f35b610188610403565b60405161019591906117e7565b60405180910390f35b6101b860048036038101906101b39190611891565b610537565b005b6101d460048036038101906101cf91906118d1565b6105cb565b6040516101e494939291906118fe565b60405180910390f35b6101f56106ae565b60405161020291906117e7565b60405180910390f35b610225600480360381019061022091906118d1565b6106b3565b60405161023291906117e7565b60405180910390f35b61024361087f565b60405161025596959493929190611943565b60405180910390f35b61027860048036038101906102739190611891565b610ae2565b005b610282610af0565b005b61029e60048036038101906102999190611891565b610c41565b6040516102ab91906119bf565b60405180910390f35b6102bc610c58565b6040516102c991906117e7565b60405180910390f35b6102da610c67565b6040516102eb9594939291906119da565b60405180910390f35b6102fc610c94565b60405161030991906117e7565b60405180910390f35b61031a610c9a565b60405161032791906117e7565b60405180910390f35b610338610c9f565b60405161034591906117e7565b60405180910390f35b610356610ca5565b6040516103679594939291906119da565b60405180910390f35b61038a600480360381019061038591906118d1565b610cf0565b60405161039791906117e7565b60405180910390f35b601281565b6003600960126103b59190611a5c565b600a6103c19190611bc6565b6103cb9190611c40565b81565b6003600960126103de9190611a5c565b600a6103ea9190611bc6565b6103f49190611c40565b60646104009190611c71565b81565b6000600454905060006003546002544361041d9190611ccb565b6104279190611ccb565b905060008111156105335760006004546001546104449190611ccb565b9050600080600b60009054906101000a900473ffffffffffffffffffffffffffffffffffffffff1673ffffffffffffffffffffffffffffffffffffffff16635aff34dc6101da620f42406104989190611ccb565b620f424087600a6040518563ffffffff1660e01b81526004016104be94939291906118fe565b6040805180830381865afa1580156104da573d6000803e3d6000fd5b505050506040513d601f19601f820116820180604052508101906104fe9190611d14565b91509150610522838284866105139190611c71565b61051d9190611c40565b610dbf565b8561052d9190611d54565b94505050505b5090565b6003600960126105479190611a5c565b600a6105539190611bc6565b61055d9190611c40565b60646105699190611c71565b81610572610de7565b61057c9190611d54565b11156105bd576040517f08c379a00000000000000000000000000000000000000000000000000000000081526004016105b490611e07565b60405180910390fd5b6105c78282610e03565b5050565b6000806000806000808673ffffffffffffffffffffffffffffffffffffffff1673ffffffffffffffffffffffffffffffffffffffff168152602001908152602001600020549350600660008673ffffffffffffffffffffffffffffffffffffffff1673ffffffffffffffffffffffffffffffffffffffff168152602001908152602001600020600101549250600660008673ffffffffffffffffffffffffffffffffffffffff1673ffffffffffffffffffffffffffffffffffffffff1681526020019081526020016000206000015491506106a5856106b3565b90509193509193565b601e81565b600080600660008473ffffffffffffffffffffffffffffffffffffffff1673ffffffffffffffffffffffffffffffffffffffff16815260200190815260200160002060020154600254436107079190611ccb565b6107119190611ccb565b9050600081111561087957600080600b60009054906101000a900473ffffffffffffffffffffffffffffffffffffffff1673ffffffffffffffffffffffffffffffffffffffff16635aff34dc6101da620f424061076e9190611ccb565b620f424086600a6040518563ffffffff1660e01b815260040161079494939291906118fe565b6040805180830381865afa1580156107b0573d6000803e3d6000fd5b505050506040513d601f19601f820116820180604052508101906107d49190611d14565b915091506108746000808773ffffffffffffffffffffffffffffffffffffffff1673ffffffffffffffffffffffffffffffffffffffff1681526020019081526020016000205482846000808a73ffffffffffffffffffffffffffffffffffffffff1673ffffffffffffffffffffffffffffffffffffffff168152602001908152602001600020546108659190611c71565b61086f9190611c40565b610dbf565b935050505b50919050565b600080600080600080610890610c58565b95506108bd600760009054906101000a900473ffffffffffffffffffffffffffffffffffffffff16610cf0565b856108c89190611d54565b94506108f5600860009054906101000a900473ffffffffffffffffffffffffffffffffffffffff16610cf0565b856109009190611d54565b945061092d600960009054906101000a900473ffffffffffffffffffffffffffffffffffffffff16610cf0565b856109389190611d54565b9450610965600a60009054906101000a900473ffffffffffffffffffffffffffffffffffffffff16610cf0565b856109709190611d54565b94506000858710156109925786866109889190611ccb565b94508590506109a4565b858761099e9190611ccb565b94508690505b60008111156109d35785856b033b2e3c9fd0803ce80000006109c69190611c71565b6109d09190611c40565b93505b6000600254436109e39190611ccb565b9050600080600b60009054906101000a900473ffffffffffffffffffffffffffffffffffffffff1673ffffffffffffffffffffffffffffffffffffffff16635aff34dc6101da620f4240610a379190611ccb565b620f424086600a6040518563ffffffff1660e01b8152600401610a5d94939291906118fe565b6040805180830381865afa158015610a79573d6000803e3d6000fd5b505050506040513d601f19601f82011682018060405250810190610a9d9190611d14565b91509150610ad1600360096012610ab49190611a5c565b600a610ac09190611bc6565b610aca9190611c40565b8383610ed4565b955043945050505050909192939495565b610aec8282610f16565b5050565b600060035460025443610b039190611ccb565b610b0d9190611ccb565b90506000811115610c3e576000600454600154610b2a9190611ccb565b9050600080600b60009054906101000a900473ffffffffffffffffffffffffffffffffffffffff1673ffffffffffffffffffffffffffffffffffffffff16635aff34dc6101da620f4240610b7e9190611ccb565b620f424087600a6040518563ffffffff1660e01b8152600401610ba494939291906118fe565b6040805180830381865afa158015610bc0573d6000803e3d6000fd5b505050506040513d601f19601f82011682018060405250810190610be49190611d14565b915091506000610c0a84838587610bfb9190611c71565b610c059190611c40565b610dbf565b90508060046000828254610c1e9190611d54565b9250508190555060025443610c339190611ccb565b600381905550505050505b50565b6000610c4e338484611071565b6001905092915050565b6000610c62610de7565b905090565b60008060008060006001549450600354935060055492506004549150610c8b610403565b90509091929394565b60055481565b600c81565b60045481565b600080600080600060025494506101da9350620f42409250600a9150600360096012610cd19190611a5c565b600a610cdd9190611bc6565b610ce79190611c40565b90509091929394565b6000610cfb82611280565b9050919050565b610d9a8282604051602401610d18929190611eaf565b6040516020818303038152906040527fb60e72cc000000000000000000000000000000000000000000000000000000007bffffffffffffffffffffffffffffffffffffffffffffffffffffffff19166020820180517bffffffffffffffffffffffffffffffffffffffffffffffffffffffff83818316178352505050506112db565b5050565b60006a636f6e736f6c652e6c6f679050600080835160208501845afa505050565b600081831115610ddc578183610dd59190611ccb565b9050610de1565b600090505b92915050565b6000610df1610403565b600154610dfe9190611ccb565b905090565b600073ffffffffffffffffffffffffffffffffffffffff168273ffffffffffffffffffffffffffffffffffffffff1614156040518060400160405280600c81526020017f5a65726f2061646472657373000000000000000000000000000000000000000081525090610eab576040517f08c379a0000000000000000000000000000000000000000000000000000000008152600401610ea29190611edf565b60405180910390fd5b50610eb8600083836112f5565b610ec4828260016112fa565b610ed0600083836114db565b5050565b600080610ee28585856114e0565b90506000610ef18686866115c5565b1115610f0a57610f028160016115e2565b915050610f0f565b809150505b9392505050565b600073ffffffffffffffffffffffffffffffffffffffff168273ffffffffffffffffffffffffffffffffffffffff1614156040518060400160405280600c81526020017f5a65726f2061646472657373000000000000000000000000000000000000000081525090610fbe576040517f08c379a0000000000000000000000000000000000000000000000000000000008152600401610fb59190611edf565b60405180910390fd5b506000610fca83611280565b9050818110156040518060400160405280600f81526020017f457863656564732062616c616e6365000000000000000000000000000000000081525090611047576040517f08c379a000000000000000000000000000000000000000000000000000000000815260040161103e9190611edf565b60405180910390fd5b50611054836000846112f5565b611060838360006112fa565b61106c836000846114db565b505050565b600073ffffffffffffffffffffffffffffffffffffffff168373ffffffffffffffffffffffffffffffffffffffff1614156040518060400160405280600c81526020017f5a65726f2061646472657373000000000000000000000000000000000000000081525090611119576040517f08c379a00000000000000000000000000000000000000000000000000000000081526004016111109190611edf565b60405180910390fd5b50600073ffffffffffffffffffffffffffffffffffffffff168273ffffffffffffffffffffffffffffffffffffffff1614156040518060400160405280600c81526020017f5a65726f20616464726573730000000000000000000000000000000000000000815250906111c2576040517f08c379a00000000000000000000000000000000000000000000000000000000081526004016111b99190611edf565b60405180910390fd5b5060006111ce84611280565b9050818110156040518060400160405280600f81526020017f457863656564732062616c616e636500000000000000000000000000000000008152509061124b576040517f08c379a00000000000000000000000000000000000000000000000000000000081526004016112429190611edf565b60405180910390fd5b506112578484846112f5565b611263848360006112fa565b61126f838360016112fa565b61127a8484846114db565b50505050565b600061128b826106b3565b6000808473ffffffffffffffffffffffffffffffffffffffff1673ffffffffffffffffffffffffffffffffffffffff168152602001908152602001600020546112d49190611ccb565b9050919050565b6112f2816112ea610d9e6115f8565b63ffffffff16565b50565b505050565b611302610af0565b600061130d846106b3565b905060008111156113995761132460045482610dbf565b600481905550806000808673ffffffffffffffffffffffffffffffffffffffff1673ffffffffffffffffffffffffffffffffffffffff16815260200190815260200160002060008282546113789190611ccb565b9250508190555080600160008282546113919190611ccb565b925050819055505b600254436113a79190611ccb565b600660008673ffffffffffffffffffffffffffffffffffffffff1673ffffffffffffffffffffffffffffffffffffffff16815260200190815260200160002060020181905550811561146657826000808673ffffffffffffffffffffffffffffffffffffffff1673ffffffffffffffffffffffffffffffffffffffff16815260200190815260200160002060008282546114419190611d54565b92505081905550826001600082825461145a9190611d54565b925050819055506114d5565b826000808673ffffffffffffffffffffffffffffffffffffffff1673ffffffffffffffffffffffffffffffffffffffff16815260200190815260200160002060008282546114b49190611ccb565b9250508190555082600160008282546114cd9190611ccb565b925050819055505b50505050565b505050565b60008060006114ef8686611603565b91509150600082036115155783818161150b5761150a611c11565b5b04925050506115be565b838210156115b957600061152a8787876115c5565b905060008061153a858585611654565b91509150600082036115635786818161155657611555611c11565b5b04955050505050506115be565b60008761157160008a611686565b169050600061158184848461169c565b9050600061159e838b8161159857611597611c11565b5b046116ec565b90506115aa8282611733565b985050505050505050506115be565b600080fd5b9392505050565b600081806115d6576115d5611c11565b5b83850990509392505050565b600081836115f09190611d54565b905092915050565b61178d819050919050565b60008060006116128585611749565b905060006116208686611733565b9050808210611638578082038193509350505061164d565b60016116448383611686565b03819350935050505b9250929050565b60008082841061166b57848385039150915061167e565b600185036116798585611686565b915091505b935093915050565b600081836116949190611ccb565b905092915050565b6000806116c4836116ae600086611686565b816116bc576116bb611c11565b5b046001611785565b90508284816116d6576116d5611c11565b5b046116e18683611733565b179150509392505050565b6000806001905060005b60088110156117295761171c8261171760026117128689611733565b611686565b611733565b91508060010190506116f6565b5080915050919050565b600081836117419190611c71565b905092915050565b60007fffffffffffffffffffffffffffffffffffffffffffffffffffffffffffffffff8061177a57611779611c11565b5b828409905092915050565b600092915050565b611795611f01565b565b600060ff82169050919050565b6117ad81611797565b82525050565b60006020820190506117c860008301846117a4565b92915050565b6000819050919050565b6117e1816117ce565b82525050565b60006020820190506117fc60008301846117d8565b92915050565b600080fd5b600073ffffffffffffffffffffffffffffffffffffffff82169050919050565b600061183282611807565b9050919050565b61184281611827565b811461184d57600080fd5b50565b60008135905061185f81611839565b92915050565b61186e816117ce565b811461187957600080fd5b50565b60008135905061188b81611865565b92915050565b600080604083850312156118a8576118a7611802565b5b60006118b685828601611850565b92505060206118c78582860161187c565b9150509250929050565b6000602082840312156118e7576118e6611802565b5b60006118f584828501611850565b91505092915050565b600060808201905061191360008301876117d8565b61192060208301866117d8565b61192d60408301856117d8565b61193a60608301846117d8565b95945050505050565b600060c08201905061195860008301896117d8565b61196560208301886117d8565b61197260408301876117d8565b61197f60608301866117d8565b61198c60808301856117d8565b61199960a08301846117d8565b979650505050505050565b60008115159050919050565b6119b9816119a4565b82525050565b60006020820190506119d460008301846119b0565b92915050565b600060a0820190506119ef60008301886117d8565b6119fc60208301876117d8565b611a0960408301866117d8565b611a1660608301856117d8565b611a2360808301846117d8565b9695505050505050565b7f4e487b7100000000000000000000000000000000000000000000000000000000600052601160045260246000fd5b6000611a6782611797565b9150611a7283611797565b92508260ff03821115611a8857611a87611a2d565b5b828201905092915050565b60008160011c9050919050565b6000808291508390505b6001851115611aea57808604811115611ac657611ac5611a2d565b5b6001851615611ad55780820291505b8081029050611ae385611a93565b9450611aaa565b94509492505050565b600082611b035760019050611bbf565b81611b115760009050611bbf565b8160018114611b275760028114611b3157611b60565b6001915050611bbf565b60ff841115611b4357611b42611a2d565b5b8360020a915084821115611b5a57611b59611a2d565b5b50611bbf565b5060208310610133831016604e8410600b8410161715611b955782820a905083811115611b9057611b8f611a2d565b5b611bbf565b611ba28484846001611aa0565b92509050818404811115611bb957611bb8611a2d565b5b81810290505b9392505050565b6000611bd1826117ce565b9150611bdc83611797565b9250611c097fffffffffffffffffffffffffffffffffffffffffffffffffffffffffffffffff8484611af3565b905092915050565b7f4e487b7100000000000000000000000000000000000000000000000000000000600052601260045260246000fd5b6000611c4b826117ce565b9150611c56836117ce565b925082611c6657611c65611c11565b5b828204905092915050565b6000611c7c826117ce565b9150611c87836117ce565b9250817fffffffffffffffffffffffffffffffffffffffffffffffffffffffffffffffff0483118215151615611cc057611cbf611a2d565b5b828202905092915050565b6000611cd6826117ce565b9150611ce1836117ce565b925082821015611cf457611cf3611a2d565b5b828203905092915050565b600081519050611d0e81611865565b92915050565b60008060408385031215611d2b57611d2a611802565b5b6000611d3985828601611cff565b9250506020611d4a85828601611cff565b9150509250929050565b6000611d5f826117ce565b9150611d6a836117ce565b9250827fffffffffffffffffffffffffffffffffffffffffffffffffffffffffffffffff03821115611d9f57611d9e611a2d565b5b828201905092915050565b600082825260208201905092915050565b7f457863656564204d617820537570706c79000000000000000000000000000000600082015250565b6000611df1601183611daa565b9150611dfc82611dbb565b602082019050919050565b60006020820190508181036000830152611e2081611de4565b9050919050565b600081519050919050565b60005b83811015611e50578082015181840152602081019050611e35565b83811115611e5f576000848401525b50505050565b6000601f19601f8301169050919050565b6000611e8182611e27565b611e8b8185611daa565b9350611e9b818560208601611e32565b611ea481611e65565b840191505092915050565b60006040820190508181036000830152611ec98185611e76565b9050611ed860208301846117d8565b9392505050565b60006020820190508181036000830152611ef98184611e76565b905092915050565b7f4e487b7100000000000000000000000000000000000000000000000000000000600052605160045260246000fdfea2646970667358221220f8f6f31366fe10af01a7efc3e60a046d85a2f16760ece1885800ce54bf8d05ca64736f6c634300080e0033",
  "linkReferences": {},
  "deployedLinkReferences": {}
}