{
  "_format": "hh-sol-artifact-1",
  "contractName": "CompoundInterestPendencyRandom",
  "sourceName": "contracts/CompoundInterestPendencyRandom.sol",
  "abi": [
    {
      "inputs": [
        {
          "internalType": "address",
          "name": "_analyticMath",
          "type": "address"
        }
      ],
      "stateMutability": "nonpayable",
      "type": "constructor"
    },
    {
      "inputs": [],
      "name": "DECIMALS",
      "outputs": [
        {
          "internalType": "uint8",
          "name": "",
          "type": "uint8"
        }
      ],
      "stateMutability": "view",
      "type": "function"
    },
    {
      "inputs": [],
      "name": "INITIAL_SUPPLY",
      "outputs": [
        {
          "internalType": "uint256",
          "name": "",
          "type": "uint256"
        }
      ],
      "stateMutability": "view",
      "type": "function"
    },
    {
      "inputs": [],
      "name": "MAX_SUPPLY",
      "outputs": [
        {
          "internalType": "uint256",
          "name": "",
          "type": "uint256"
        }
      ],
      "stateMutability": "view",
      "type": "function"
    },
    {
      "inputs": [],
      "name": "accRewardPerShare12",
      "outputs": [
        {
          "internalType": "uint256",
          "name": "",
          "type": "uint256"
        }
      ],
      "stateMutability": "view",
      "type": "function"
    },
    {
      "inputs": [],
      "name": "alpha",
      "outputs": [
        {
          "internalType": "uint256",
          "name": "",
          "type": "uint256"
        }
      ],
      "stateMutability": "view",
      "type": "function"
    },
    {
      "inputs": [
        {
          "internalType": "address",
          "name": "account",
          "type": "address"
        }
      ],
      "name": "balance",
      "outputs": [
        {
          "internalType": "uint256",
          "name": "",
          "type": "uint256"
        }
      ],
      "stateMutability": "view",
      "type": "function"
    },
    {
      "inputs": [
        {
          "internalType": "address",
          "name": "from",
          "type": "address"
        },
        {
          "internalType": "uint256",
          "name": "amount",
          "type": "uint256"
        }
      ],
      "name": "burn",
      "outputs": [],
      "stateMutability": "nonpayable",
      "type": "function"
    },
    {
      "inputs": [],
      "name": "checkForConsistency",
      "outputs": [
        {
          "internalType": "uint256",
          "name": "collective",
          "type": "uint256"
        },
        {
          "internalType": "uint256",
          "name": "marginal",
          "type": "uint256"
        },
        {
          "internalType": "uint256",
          "name": "abs_error",
          "type": "uint256"
        },
        {
          "internalType": "uint256",
          "name": "rel_error",
          "type": "uint256"
        },
        {
          "internalType": "uint256",
          "name": "solidityTruth",
          "type": "uint256"
        },
        {
          "internalType": "uint256",
          "name": "blockNo",
          "type": "uint256"
        }
      ],
      "stateMutability": "view",
      "type": "function"
    },
    {
      "inputs": [],
      "name": "distCycle",
      "outputs": [
        {
          "internalType": "uint256",
          "name": "",
          "type": "uint256"
        }
      ],
      "stateMutability": "view",
      "type": "function"
    },
    {
      "inputs": [],
      "name": "getTotalState",
      "outputs": [
        {
          "internalType": "uint256",
          "name": "totalBalance",
          "type": "uint256"
        },
        {
          "internalType": "uint256",
          "name": "_latestBlock",
          "type": "uint256"
        },
        {
          "internalType": "uint256",
          "name": "_accRewardPerShare12",
          "type": "uint256"
        },
        {
          "internalType": "uint256",
          "name": "_rewordPool",
          "type": "uint256"
        },
        {
          "internalType": "uint256",
          "name": "_totalPendingReward",
          "type": "uint256"
        }
      ],
      "stateMutability": "view",
      "type": "function"
    },
    {
      "inputs": [
        {
          "internalType": "address",
          "name": "user",
          "type": "address"
        }
      ],
      "name": "getUserState",
      "outputs": [
        {
          "internalType": "uint256",
          "name": "_share",
          "type": "uint256"
        },
        {
          "internalType": "uint256",
          "name": "_reward",
          "type": "uint256"
        },
        {
          "internalType": "uint256",
          "name": "_rewardDebt",
          "type": "uint256"
        },
        {
          "internalType": "uint256",
          "name": "_userPendingReward",
          "type": "uint256"
        }
      ],
      "stateMutability": "view",
      "type": "function"
    },
    {
      "inputs": [],
      "name": "internals",
      "outputs": [
        {
          "internalType": "uint256",
          "name": "_initBlock",
          "type": "uint256"
        },
        {
          "internalType": "uint256",
          "name": "_rate",
          "type": "uint256"
        },
        {
          "internalType": "uint256",
          "name": "_scale",
          "type": "uint256"
        },
        {
          "internalType": "uint256",
          "name": "_cycle",
          "type": "uint256"
        },
        {
          "internalType": "uint256",
          "name": "_init_supply",
          "type": "uint256"
        }
      ],
      "stateMutability": "view",
      "type": "function"
    },
    {
      "inputs": [
        {
          "internalType": "address",
          "name": "to",
          "type": "address"
        },
        {
          "internalType": "uint256",
          "name": "amount",
          "type": "uint256"
        }
      ],
      "name": "mint",
      "outputs": [],
      "stateMutability": "nonpayable",
      "type": "function"
    },
    {
      "inputs": [],
      "name": "pendency",
      "outputs": [
        {
          "internalType": "uint256",
          "name": "",
          "type": "uint256"
        }
      ],
      "stateMutability": "view",
      "type": "function"
    },
    {
      "inputs": [
        {
          "internalType": "address",
          "name": "user",
          "type": "address"
        }
      ],
      "name": "pending",
      "outputs": [
        {
          "internalType": "uint256",
          "name": "pending",
          "type": "uint256"
        }
      ],
      "stateMutability": "view",
      "type": "function"
    },
    {
      "inputs": [],
      "name": "totalBalance",
      "outputs": [
        {
          "internalType": "uint256",
          "name": "",
          "type": "uint256"
        }
      ],
      "stateMutability": "view",
      "type": "function"
    },
    {
      "inputs": [],
      "name": "totalPending",
      "outputs": [
        {
          "internalType": "uint256",
          "name": "pending",
          "type": "uint256"
        }
      ],
      "stateMutability": "view",
      "type": "function"
    },
    {
      "inputs": [
        {
          "internalType": "address",
          "name": "recipient",
          "type": "address"
        },
        {
          "internalType": "uint256",
          "name": "amount",
          "type": "uint256"
        }
      ],
      "name": "transfer",
      "outputs": [
        {
          "internalType": "bool",
          "name": "",
          "type": "bool"
        }
      ],
      "stateMutability": "nonpayable",
      "type": "function"
    },
    {
      "inputs": [],
      "name": "update",
      "outputs": [],
      "stateMutability": "nonpayable",
      "type": "function"
    }
  ],
  "bytecode": "0x60806040523480156200001157600080fd5b50604051620035d2380380620035d2833981810160405281019062000037919062000f39565b80600b60006101000a81548173ffffffffffffffffffffffffffffffffffffffff021916908373ffffffffffffffffffffffffffffffffffffffff160217905550436002819055507370997970c51812dc3a010c7d01b50e0d17dc79c8600860006101000a81548173ffffffffffffffffffffffffffffffffffffffff021916908373ffffffffffffffffffffffffffffffffffffffff160217905550733c44cdddb6a900fa2b585dd299e03d12fa4293bc600960006101000a81548173ffffffffffffffffffffffffffffffffffffffff021916908373ffffffffffffffffffffffffffffffffffffffff1602179055507390f79bf6eb2c4f870365e785982e1f101e93b906600a60006101000a81548173ffffffffffffffffffffffffffffffffffffffff021916908373ffffffffffffffffffffffffffffffffffffffff16021790555033600760006101000a81548173ffffffffffffffffffffffffffffffffffffffff021916908373ffffffffffffffffffffffffffffffffffffffff1602179055506200021e600760009054906101000a900473ffffffffffffffffffffffffffffffffffffffff16600360096012620001f8919062000fa7565b600a62000206919062001143565b620002129190620011c3565b6200029c60201b60201c565b620002956040518060400160405280601781526020017f496e697461696c206d696e7420746f204f776e65723a200000000000000000008152506003600960126200026a919062000fa7565b600a62000278919062001143565b620002849190620011c3565b6200038860201b62000e001760201c565b506200152d565b600073ffffffffffffffffffffffffffffffffffffffff168273ffffffffffffffffffffffffffffffffffffffff1614156040518060400160405280600c81526020017f5a65726f206164647265737300000000000000000000000000000000000000008152509062000347576040517f08c379a00000000000000000000000000000000000000000000000000000000081526004016200033e91906200129f565b60405180910390fd5b506200035c600083836200042e60201b60201c565b62000370828260016200043360201b60201c565b62000384600083836200063d60201b60201c565b5050565b6200042a8282604051602401620003a1929190620012d4565b6040516020818303038152906040527fb60e72cc000000000000000000000000000000000000000000000000000000007bffffffffffffffffffffffffffffffffffffffffffffffffffffffff19166020820180517bffffffffffffffffffffffffffffffffffffffffffffffffffffffff83818316178352505050506200064260201b60201c565b5050565b505050565b620004436200066b60201b60201c565b600062000456846200081760201b60201c565b90506000811115620004ef57620004766004548262000ab560201b60201c565b600481905550806000808673ffffffffffffffffffffffffffffffffffffffff1673ffffffffffffffffffffffffffffffffffffffff1681526020019081526020016000206000828254620004cc919062001308565b925050819055508060016000828254620004e7919062001308565b925050819055505b60025443620004ff919062001365565b600660008673ffffffffffffffffffffffffffffffffffffffff1673ffffffffffffffffffffffffffffffffffffffff168152602001908152602001600020600201819055508115620005c457826000808673ffffffffffffffffffffffffffffffffffffffff1673ffffffffffffffffffffffffffffffffffffffff16815260200190815260200160002060008282546200059c919062001308565b925050819055508260016000828254620005b7919062001308565b9250508190555062000637565b826000808673ffffffffffffffffffffffffffffffffffffffff1673ffffffffffffffffffffffffffffffffffffffff168152602001908152602001600020600082825462000614919062001365565b9250508190555082600160008282546200062f919062001365565b925050819055505b50505050565b505050565b62000668816200066362000ae160201b62000e9c1762000b0260201b60201c565b60201c565b50565b60006003546002544362000680919062001365565b6200068c919062001365565b9050600081111562000814576000600454600154620006ac919062001308565b9050600080600b60009054906101000a900473ffffffffffffffffffffffffffffffffffffffff1673ffffffffffffffffffffffffffffffffffffffff16635aff34dc6101da620f424062000702919062001308565b620f424087600a6040518563ffffffff1660e01b81526004016200072a9493929190620013a0565b6040805180830381865afa15801562000747573d6000803e3d6000fd5b505050506040513d601f19601f820116820180604052508101906200076d91906200141e565b9150915060008060024362000783919062001465565b03620007b65783620007a285858562000b1660201b62000ebd1760201c565b620007ae919062001365565b9050620007de565b83620007cf85858562000b7260201b62000eff1760201c565b620007db919062001365565b90505b8060046000828254620007f2919062001308565b925050819055506002544362000809919062001365565b600381905550505050505b50565b600080600660008473ffffffffffffffffffffffffffffffffffffffff1673ffffffffffffffffffffffffffffffffffffffff16815260200190815260200160002060020154600254436200086d919062001365565b62000879919062001365565b9050600081111562000aaf57600080600b60009054906101000a900473ffffffffffffffffffffffffffffffffffffffff1673ffffffffffffffffffffffffffffffffffffffff16635aff34dc6101da620f4240620008d9919062001308565b620f424086600a6040518563ffffffff1660e01b8152600401620009019493929190620013a0565b6040805180830381865afa1580156200091e573d6000803e3d6000fd5b505050506040513d601f19601f820116820180604052508101906200094491906200141e565b91509150600060024362000959919062001465565b0362000a08576000808673ffffffffffffffffffffffffffffffffffffffff1673ffffffffffffffffffffffffffffffffffffffff16815260200190815260200160002054620009f46000808873ffffffffffffffffffffffffffffffffffffffff1673ffffffffffffffffffffffffffffffffffffffff16815260200190815260200160002054848462000b1660201b62000ebd1760201c565b62000a00919062001365565b935062000aac565b6000808673ffffffffffffffffffffffffffffffffffffffff1673ffffffffffffffffffffffffffffffffffffffff1681526020019081526020016000205462000a9d6000808873ffffffffffffffffffffffffffffffffffffffff1673ffffffffffffffffffffffffffffffffffffffff16815260200190815260200160002054848462000b7260201b62000eff1760201c565b62000aa9919062001365565b93505b50505b50919050565b60008183111562000ad657818362000ace919062001365565b905062000adb565b600090505b92915050565b60006a636f6e736f6c652e6c6f679050600080835160208501845afa505050565b62000ec360201b6200188b17819050919050565b60008062000b2c85858562000b7260201b60201c565b9050600062000b4386868662000c9e60201b60201c565b111562000b665762000b5d81600162000cbe60201b60201c565b91505062000b6b565b809150505b9392505050565b600080600062000b89868662000cd660201b60201c565b915091506000820362000bb45783818162000ba95762000ba862001194565b5b049250505062000c97565b8382101562000c9257600062000bd287878762000c9e60201b60201c565b905060008062000bea85858562000d4160201b60201c565b915091506000820362000c185786818162000c0a5762000c0962001194565b5b049550505050505062000c97565b60008762000c2e60008a62000d7d60201b60201c565b169050600062000c4684848462000d9560201b60201c565b9050600062000c6e838b8162000c615762000c6062001194565b5b0462000e0360201b60201c565b905062000c82828262000e6460201b60201c565b9850505050505050505062000c97565b600080fd5b9392505050565b6000818062000cb25762000cb162001194565b5b83850990509392505050565b6000818362000cce919062001308565b905092915050565b600080600062000ced858562000e7c60201b60201c565b9050600062000d03868662000e6460201b60201c565b905080821062000d1d578082038193509350505062000d3a565b600162000d31838362000d7d60201b60201c565b03819350935050505b9250929050565b60008082841062000d5a57848385039150915062000d75565b6001850362000d70858562000d7d60201b60201c565b915091505b935093915050565b6000818362000d8d919062001365565b905092915050565b60008062000dd08362000db060008662000d7d60201b60201c565b8162000dc15762000dc062001194565b5b04600162000ebb60201b60201c565b905082848162000de55762000de462001194565b5b0462000df8868362000e6460201b60201c565b179150509392505050565b6000806001905060005b600881101562000e5a5762000e4c8262000e40600262000e34868962000e6460201b60201c565b62000d7d60201b60201c565b62000e6460201b60201c565b915080600101905062000e0d565b5080915050919050565b6000818362000e7491906200149d565b905092915050565b60007fffffffffffffffffffffffffffffffffffffffffffffffffffffffffffffffff8062000eb05762000eaf62001194565b5b828409905092915050565b600092915050565b62000ecd620014fe565b565b600080fd5b600073ffffffffffffffffffffffffffffffffffffffff82169050919050565b600062000f018262000ed4565b9050919050565b62000f138162000ef4565b811462000f1f57600080fd5b50565b60008151905062000f338162000f08565b92915050565b60006020828403121562000f525762000f5162000ecf565b5b600062000f628482850162000f22565b91505092915050565b600060ff82169050919050565b7f4e487b7100000000000000000000000000000000000000000000000000000000600052601160045260246000fd5b600062000fb48262000f6b565b915062000fc18362000f6b565b92508260ff0382111562000fda5762000fd962000f78565b5b828201905092915050565b60008160011c9050919050565b6000808291508390505b600185111562001044578086048111156200101c576200101b62000f78565b5b60018516156200102c5780820291505b80810290506200103c8562000fe5565b945062000ffc565b94509492505050565b6000826200105f576001905062001132565b816200106f576000905062001132565b81600181146200108857600281146200109357620010c9565b600191505062001132565b60ff841115620010a857620010a762000f78565b5b8360020a915084821115620010c257620010c162000f78565b5b5062001132565b5060208310610133831016604e8410600b8410161715620011035782820a905083811115620010fd57620010fc62000f78565b5b62001132565b62001112848484600162000ff2565b925090508184048111156200112c576200112b62000f78565b5b81810290505b9392505050565b6000819050919050565b6000620011508262001139565b91506200115d8362000f6b565b92506200118c7fffffffffffffffffffffffffffffffffffffffffffffffffffffffffffffffff84846200104d565b905092915050565b7f4e487b7100000000000000000000000000000000000000000000000000000000600052601260045260246000fd5b6000620011d08262001139565b9150620011dd8362001139565b925082620011f057620011ef62001194565b5b828204905092915050565b600081519050919050565b600082825260208201905092915050565b60005b83811015620012375780820151818401526020810190506200121a565b8381111562001247576000848401525b50505050565b6000601f19601f8301169050919050565b60006200126b82620011fb565b62001277818562001206565b93506200128981856020860162001217565b62001294816200124d565b840191505092915050565b60006020820190508181036000830152620012bb81846200125e565b905092915050565b620012ce8162001139565b82525050565b60006040820190508181036000830152620012f081856200125e565b9050620013016020830184620012c3565b9392505050565b6000620013158262001139565b9150620013228362001139565b9250827fffffffffffffffffffffffffffffffffffffffffffffffffffffffffffffffff038211156200135a576200135962000f78565b5b828201905092915050565b6000620013728262001139565b91506200137f8362001139565b92508282101562001395576200139462000f78565b5b828203905092915050565b6000608082019050620013b76000830187620012c3565b620013c66020830186620012c3565b620013d56040830185620012c3565b620013e46060830184620012c3565b95945050505050565b620013f88162001139565b81146200140457600080fd5b50565b6000815190506200141881620013ed565b92915050565b6000806040838503121562001438576200143762000ecf565b5b6000620014488582860162001407565b92505060206200145b8582860162001407565b9150509250929050565b6000620014728262001139565b91506200147f8362001139565b92508262001492576200149162001194565b5b828206905092915050565b6000620014aa8262001139565b9150620014b78362001139565b9250817fffffffffffffffffffffffffffffffffffffffffffffffffffffffffffffffff0483118215151615620014f357620014f262000f78565b5b828202905092915050565b7f4e487b7100000000000000000000000000000000000000000000000000000000600052605160045260246000fd5b612095806200153d6000396000f3fe608060405234801561001057600080fd5b50600436106101215760003560e01c80639dc29fac116100ad578063d1daefb411610071578063d1daefb4146102f4578063db1d0fd514610312578063ddc5eddc14610330578063df94cf1d1461034e578063e3d670d71461037057610121565b80639dc29fac1461025e578063a2e620451461027a578063a9059cbb14610284578063ad7a672f146102b4578063bdfeb1e5146102d257610121565b806340c10f19116100f457806340c10f191461019e578063416ae768146101ba57806357627e93146101ed5780635eebea201461020b578063739572891461023b57610121565b80632e0f2625146101265780632ff2e9dc1461014457806332cb6b0c146101625780633f90916a14610180575b600080fd5b61012e6103a0565b60405161013b91906118b1565b60405180910390f35b61014c6103a5565b60405161015991906118e5565b60405180910390f35b61016a6103ce565b60405161017791906118e5565b60405180910390f35b610188610403565b60405161019591906118e5565b60405180910390f35b6101b860048036038101906101b3919061198f565b61056a565b005b6101d460048036038101906101cf91906119cf565b6105fe565b6040516101e494939291906119fc565b60405180910390f35b6101f56106e1565b60405161020291906118e5565b60405180910390f35b610225600480360381019061022091906119cf565b6106e6565b60405161023291906118e5565b60405180910390f35b610243610956565b60405161025596959493929190611a41565b60405180910390f35b6102786004803603810190610273919061198f565b610bb9565b005b610282610bc7565b005b61029e6004803603810190610299919061198f565b610d3f565b6040516102ab9190611abd565b60405180910390f35b6102bc610d56565b6040516102c991906118e5565b60405180910390f35b6102da610d65565b6040516102eb959493929190611ad8565b60405180910390f35b6102fc610d92565b60405161030991906118e5565b60405180910390f35b61031a610d98565b60405161032791906118e5565b60405180910390f35b610338610d9d565b60405161034591906118e5565b60405180910390f35b610356610da3565b604051610367959493929190611ad8565b60405180910390f35b61038a600480360381019061038591906119cf565b610dee565b60405161039791906118e5565b60405180910390f35b601281565b6003600960126103b59190611b5a565b600a6103c19190611cc4565b6103cb9190611d3e565b81565b6003600960126103de9190611b5a565b600a6103ea9190611cc4565b6103f49190611d3e565b60646104009190611d6f565b81565b6000600454905060006003546002544361041d9190611dc9565b6104279190611dc9565b905060008111156105665760006004546001546104449190611dfd565b9050600080600b60009054906101000a900473ffffffffffffffffffffffffffffffffffffffff1673ffffffffffffffffffffffffffffffffffffffff16635aff34dc6101da620f42406104989190611dfd565b620f424087600a6040518563ffffffff1660e01b81526004016104be94939291906119fc565b6040805180830381865afa1580156104da573d6000803e3d6000fd5b505050506040513d601f19601f820116820180604052508101906104fe9190611e68565b9150915060006002436105119190611ea8565b0361053e5782610522848484610ebd565b61052c9190611dc9565b856105379190611dfd565b9450610562565b8261054a848484610eff565b6105549190611dc9565b8561055f9190611dfd565b94505b5050505b5090565b60036009601261057a9190611b5a565b600a6105869190611cc4565b6105909190611d3e565b606461059c9190611d6f565b816105a5610fe4565b6105af9190611dfd565b11156105f0576040517f08c379a00000000000000000000000000000000000000000000000000000000081526004016105e790611f36565b60405180910390fd5b6105fa8282611000565b5050565b6000806000806000808673ffffffffffffffffffffffffffffffffffffffff1673ffffffffffffffffffffffffffffffffffffffff168152602001908152602001600020549350600660008673ffffffffffffffffffffffffffffffffffffffff1673ffffffffffffffffffffffffffffffffffffffff168152602001908152602001600020600101549250600660008673ffffffffffffffffffffffffffffffffffffffff1673ffffffffffffffffffffffffffffffffffffffff1681526020019081526020016000206000015491506106d8856106e6565b90509193509193565b601e81565b600080600660008473ffffffffffffffffffffffffffffffffffffffff1673ffffffffffffffffffffffffffffffffffffffff168152602001908152602001600020600201546002544361073a9190611dc9565b6107449190611dc9565b9050600081111561095057600080600b60009054906101000a900473ffffffffffffffffffffffffffffffffffffffff1673ffffffffffffffffffffffffffffffffffffffff16635aff34dc6101da620f42406107a19190611dfd565b620f424086600a6040518563ffffffff1660e01b81526004016107c794939291906119fc565b6040805180830381865afa1580156107e3573d6000803e3d6000fd5b505050506040513d601f19601f820116820180604052508101906108079190611e68565b91509150600060024361081a9190611ea8565b036108b8576000808673ffffffffffffffffffffffffffffffffffffffff1673ffffffffffffffffffffffffffffffffffffffff168152602001908152602001600020546108a76000808873ffffffffffffffffffffffffffffffffffffffff1673ffffffffffffffffffffffffffffffffffffffff168152602001908152602001600020548484610ebd565b6108b19190611dc9565b935061094d565b6000808673ffffffffffffffffffffffffffffffffffffffff1673ffffffffffffffffffffffffffffffffffffffff168152602001908152602001600020546109406000808873ffffffffffffffffffffffffffffffffffffffff1673ffffffffffffffffffffffffffffffffffffffff168152602001908152602001600020548484610eff565b61094a9190611dc9565b93505b50505b50919050565b600080600080600080610967610d56565b9550610994600760009054906101000a900473ffffffffffffffffffffffffffffffffffffffff16610dee565b8561099f9190611dfd565b94506109cc600860009054906101000a900473ffffffffffffffffffffffffffffffffffffffff16610dee565b856109d79190611dfd565b9450610a04600960009054906101000a900473ffffffffffffffffffffffffffffffffffffffff16610dee565b85610a0f9190611dfd565b9450610a3c600a60009054906101000a900473ffffffffffffffffffffffffffffffffffffffff16610dee565b85610a479190611dfd565b9450600085871015610a69578686610a5f9190611dc9565b9450859050610a7b565b8587610a759190611dc9565b94508690505b6000811115610aaa5785856b033b2e3c9fd0803ce8000000610a9d9190611d6f565b610aa79190611d3e565b93505b600060025443610aba9190611dc9565b9050600080600b60009054906101000a900473ffffffffffffffffffffffffffffffffffffffff1673ffffffffffffffffffffffffffffffffffffffff16635aff34dc6101da620f4240610b0e9190611dfd565b620f424086600a6040518563ffffffff1660e01b8152600401610b3494939291906119fc565b6040805180830381865afa158015610b50573d6000803e3d6000fd5b505050506040513d601f19601f82011682018060405250810190610b749190611e68565b91509150610ba8600360096012610b8b9190611b5a565b600a610b979190611cc4565b610ba19190611d3e565b8383610ebd565b955043945050505050909192939495565b610bc382826110d1565b5050565b600060035460025443610bda9190611dc9565b610be49190611dc9565b90506000811115610d3c576000600454600154610c019190611dfd565b9050600080600b60009054906101000a900473ffffffffffffffffffffffffffffffffffffffff1673ffffffffffffffffffffffffffffffffffffffff16635aff34dc6101da620f4240610c559190611dfd565b620f424087600a6040518563ffffffff1660e01b8152600401610c7b94939291906119fc565b6040805180830381865afa158015610c97573d6000803e3d6000fd5b505050506040513d601f19601f82011682018060405250810190610cbb9190611e68565b91509150600080600243610ccf9190611ea8565b03610cf15783610ce0858585610ebd565b610cea9190611dc9565b9050610d0a565b83610cfd858585610eff565b610d079190611dc9565b90505b8060046000828254610d1c9190611dfd565b9250508190555060025443610d319190611dc9565b600381905550505050505b50565b6000610d4c33848461122c565b6001905092915050565b6000610d60610fe4565b905090565b60008060008060006001549450600354935060055492506004549150610d89610403565b90509091929394565b60055481565b600c81565b60045481565b600080600080600060025494506101da9350620f42409250600a9150600360096012610dcf9190611b5a565b600a610ddb9190611cc4565b610de59190611d3e565b90509091929394565b6000610df98261143b565b9050919050565b610e988282604051602401610e16929190611fde565b6040516020818303038152906040527fb60e72cc000000000000000000000000000000000000000000000000000000007bffffffffffffffffffffffffffffffffffffffffffffffffffffffff19166020820180517bffffffffffffffffffffffffffffffffffffffffffffffffffffffff8381831617835250505050611496565b5050565b60006a636f6e736f6c652e6c6f679050600080835160208501845afa505050565b600080610ecb858585610eff565b90506000610eda8686866114b0565b1115610ef357610eeb8160016114cd565b915050610ef8565b809150505b9392505050565b6000806000610f0e86866114e3565b9150915060008203610f3457838181610f2a57610f29611d0f565b5b0492505050610fdd565b83821015610fd8576000610f498787876114b0565b9050600080610f59858585611534565b9150915060008203610f8257868181610f7557610f74611d0f565b5b0495505050505050610fdd565b600087610f9060008a611566565b1690506000610fa084848461157c565b90506000610fbd838b81610fb757610fb6611d0f565b5b046115cc565b9050610fc98282611613565b98505050505050505050610fdd565b600080fd5b9392505050565b6000610fee610403565b600154610ffb9190611dfd565b905090565b600073ffffffffffffffffffffffffffffffffffffffff168273ffffffffffffffffffffffffffffffffffffffff1614156040518060400160405280600c81526020017f5a65726f20616464726573730000000000000000000000000000000000000000815250906110a8576040517f08c379a000000000000000000000000000000000000000000000000000000000815260040161109f919061200e565b60405180910390fd5b506110b560008383611629565b6110c18282600161162e565b6110cd6000838361180f565b5050565b600073ffffffffffffffffffffffffffffffffffffffff168273ffffffffffffffffffffffffffffffffffffffff1614156040518060400160405280600c81526020017f5a65726f2061646472657373000000000000000000000000000000000000000081525090611179576040517f08c379a0000000000000000000000000000000000000000000000000000000008152600401611170919061200e565b60405180910390fd5b5060006111858361143b565b9050818110156040518060400160405280600f81526020017f457863656564732062616c616e6365000000000000000000000000000000000081525090611202576040517f08c379a00000000000000000000000000000000000000000000000000000000081526004016111f9919061200e565b60405180910390fd5b5061120f83600084611629565b61121b8383600061162e565b6112278360008461180f565b505050565b600073ffffffffffffffffffffffffffffffffffffffff168373ffffffffffffffffffffffffffffffffffffffff1614156040518060400160405280600c81526020017f5a65726f20616464726573730000000000000000000000000000000000000000815250906112d4576040517f08c379a00000000000000000000000000000000000000000000000000000000081526004016112cb919061200e565b60405180910390fd5b50600073ffffffffffffffffffffffffffffffffffffffff168273ffffffffffffffffffffffffffffffffffffffff1614156040518060400160405280600c81526020017f5a65726f206164647265737300000000000000000000000000000000000000008152509061137d576040517f08c379a0000000000000000000000000000000000000000000000000000000008152600401611374919061200e565b60405180910390fd5b5060006113898461143b565b9050818110156040518060400160405280600f81526020017f457863656564732062616c616e6365000000000000000000000000000000000081525090611406576040517f08c379a00000000000000000000000000000000000000000000000000000000081526004016113fd919061200e565b60405180910390fd5b50611412848484611629565b61141e8483600061162e565b61142a8383600161162e565b61143584848461180f565b50505050565b6000611446826106e6565b6000808473ffffffffffffffffffffffffffffffffffffffff1673ffffffffffffffffffffffffffffffffffffffff1681526020019081526020016000205461148f9190611dfd565b9050919050565b6114ad816114a5610e9c611814565b63ffffffff16565b50565b600081806114c1576114c0611d0f565b5b83850990509392505050565b600081836114db9190611dfd565b905092915050565b60008060006114f2858561181f565b905060006115008686611613565b9050808210611518578082038193509350505061152d565b60016115248383611566565b03819350935050505b9250929050565b60008082841061154b57848385039150915061155e565b600185036115598585611566565b915091505b935093915050565b600081836115749190611dc9565b905092915050565b6000806115a48361158e600086611566565b8161159c5761159b611d0f565b5b04600161185b565b90508284816115b6576115b5611d0f565b5b046115c18683611613565b179150509392505050565b6000806001905060005b6008811015611609576115fc826115f760026115f28689611613565b611566565b611613565b91508060010190506115d6565b5080915050919050565b600081836116219190611d6f565b905092915050565b505050565b611636610bc7565b6000611641846106e6565b905060008111156116cd5761165860045482611863565b600481905550806000808673ffffffffffffffffffffffffffffffffffffffff1673ffffffffffffffffffffffffffffffffffffffff16815260200190815260200160002060008282546116ac9190611dfd565b9250508190555080600160008282546116c59190611dfd565b925050819055505b600254436116db9190611dc9565b600660008673ffffffffffffffffffffffffffffffffffffffff1673ffffffffffffffffffffffffffffffffffffffff16815260200190815260200160002060020181905550811561179a57826000808673ffffffffffffffffffffffffffffffffffffffff1673ffffffffffffffffffffffffffffffffffffffff16815260200190815260200160002060008282546117759190611dfd565b92505081905550826001600082825461178e9190611dfd565b92505081905550611809565b826000808673ffffffffffffffffffffffffffffffffffffffff1673ffffffffffffffffffffffffffffffffffffffff16815260200190815260200160002060008282546117e89190611dc9565b9250508190555082600160008282546118019190611dc9565b925050819055505b50505050565b505050565b61188b819050919050565b60007fffffffffffffffffffffffffffffffffffffffffffffffffffffffffffffffff806118505761184f611d0f565b5b828409905092915050565b600092915050565b6000818311156118805781836118799190611dc9565b9050611885565b600090505b92915050565b611893612030565b565b600060ff82169050919050565b6118ab81611895565b82525050565b60006020820190506118c660008301846118a2565b92915050565b6000819050919050565b6118df816118cc565b82525050565b60006020820190506118fa60008301846118d6565b92915050565b600080fd5b600073ffffffffffffffffffffffffffffffffffffffff82169050919050565b600061193082611905565b9050919050565b61194081611925565b811461194b57600080fd5b50565b60008135905061195d81611937565b92915050565b61196c816118cc565b811461197757600080fd5b50565b60008135905061198981611963565b92915050565b600080604083850312156119a6576119a5611900565b5b60006119b48582860161194e565b92505060206119c58582860161197a565b9150509250929050565b6000602082840312156119e5576119e4611900565b5b60006119f38482850161194e565b91505092915050565b6000608082019050611a1160008301876118d6565b611a1e60208301866118d6565b611a2b60408301856118d6565b611a3860608301846118d6565b95945050505050565b600060c082019050611a5660008301896118d6565b611a6360208301886118d6565b611a7060408301876118d6565b611a7d60608301866118d6565b611a8a60808301856118d6565b611a9760a08301846118d6565b979650505050505050565b60008115159050919050565b611ab781611aa2565b82525050565b6000602082019050611ad26000830184611aae565b92915050565b600060a082019050611aed60008301886118d6565b611afa60208301876118d6565b611b0760408301866118d6565b611b1460608301856118d6565b611b2160808301846118d6565b9695505050505050565b7f4e487b7100000000000000000000000000000000000000000000000000000000600052601160045260246000fd5b6000611b6582611895565b9150611b7083611895565b92508260ff03821115611b8657611b85611b2b565b5b828201905092915050565b60008160011c9050919050565b6000808291508390505b6001851115611be857808604811115611bc457611bc3611b2b565b5b6001851615611bd35780820291505b8081029050611be185611b91565b9450611ba8565b94509492505050565b600082611c015760019050611cbd565b81611c0f5760009050611cbd565b8160018114611c255760028114611c2f57611c5e565b6001915050611cbd565b60ff841115611c4157611c40611b2b565b5b8360020a915084821115611c5857611c57611b2b565b5b50611cbd565b5060208310610133831016604e8410600b8410161715611c935782820a905083811115611c8e57611c8d611b2b565b5b611cbd565b611ca08484846001611b9e565b92509050818404811115611cb757611cb6611b2b565b5b81810290505b9392505050565b6000611ccf826118cc565b9150611cda83611895565b9250611d077fffffffffffffffffffffffffffffffffffffffffffffffffffffffffffffffff8484611bf1565b905092915050565b7f4e487b7100000000000000000000000000000000000000000000000000000000600052601260045260246000fd5b6000611d49826118cc565b9150611d54836118cc565b925082611d6457611d63611d0f565b5b828204905092915050565b6000611d7a826118cc565b9150611d85836118cc565b9250817fffffffffffffffffffffffffffffffffffffffffffffffffffffffffffffffff0483118215151615611dbe57611dbd611b2b565b5b828202905092915050565b6000611dd4826118cc565b9150611ddf836118cc565b925082821015611df257611df1611b2b565b5b828203905092915050565b6000611e08826118cc565b9150611e13836118cc565b9250827fffffffffffffffffffffffffffffffffffffffffffffffffffffffffffffffff03821115611e4857611e47611b2b565b5b828201905092915050565b600081519050611e6281611963565b92915050565b60008060408385031215611e7f57611e7e611900565b5b6000611e8d85828601611e53565b9250506020611e9e85828601611e53565b9150509250929050565b6000611eb3826118cc565b9150611ebe836118cc565b925082611ece57611ecd611d0f565b5b828206905092915050565b600082825260208201905092915050565b7f457863656564204d617820537570706c79000000000000000000000000000000600082015250565b6000611f20601183611ed9565b9150611f2b82611eea565b602082019050919050565b60006020820190508181036000830152611f4f81611f13565b9050919050565b600081519050919050565b60005b83811015611f7f578082015181840152602081019050611f64565b83811115611f8e576000848401525b50505050565b6000601f19601f8301169050919050565b6000611fb082611f56565b611fba8185611ed9565b9350611fca818560208601611f61565b611fd381611f94565b840191505092915050565b60006040820190508181036000830152611ff88185611fa5565b905061200760208301846118d6565b9392505050565b600060208201905081810360008301526120288184611fa5565b905092915050565b7f4e487b7100000000000000000000000000000000000000000000000000000000600052605160045260246000fdfea2646970667358221220cc78b35820daf4ed401e2a101a5095b98b7e71e61ab3b9179940df51ef7f9e8d64736f6c634300080e0033",
  "linkReferences": {},
  "deployedLinkReferences": {}
}