{
  "_format": "hh-sol-artifact-1",
  "contractName": "CompoundBurnPendencyRandom",
  "sourceName": "contracts/CompoundBurnPendencyRandom.sol",
  "abi": [
    {
      "inputs": [
        {
          "internalType": "address",
          "name": "_analyticMath",
          "type": "address"
        }
      ],
      "stateMutability": "nonpayable",
      "type": "constructor"
    },
    {
      "inputs": [],
      "name": "DECIMALS",
      "outputs": [
        {
          "internalType": "uint8",
          "name": "",
          "type": "uint8"
        }
      ],
      "stateMutability": "view",
      "type": "function"
    },
    {
      "inputs": [],
      "name": "INITIAL_SUPPLY",
      "outputs": [
        {
          "internalType": "uint256",
          "name": "",
          "type": "uint256"
        }
      ],
      "stateMutability": "view",
      "type": "function"
    },
    {
      "inputs": [],
      "name": "MAX_SUPPLY",
      "outputs": [
        {
          "internalType": "uint256",
          "name": "",
          "type": "uint256"
        }
      ],
      "stateMutability": "view",
      "type": "function"
    },
    {
      "inputs": [
        {
          "internalType": "address",
          "name": "account",
          "type": "address"
        }
      ],
      "name": "balance",
      "outputs": [
        {
          "internalType": "uint256",
          "name": "",
          "type": "uint256"
        }
      ],
      "stateMutability": "view",
      "type": "function"
    },
    {
      "inputs": [
        {
          "internalType": "address",
          "name": "from",
          "type": "address"
        },
        {
          "internalType": "uint256",
          "name": "amount",
          "type": "uint256"
        }
      ],
      "name": "burn",
      "outputs": [],
      "stateMutability": "nonpayable",
      "type": "function"
    },
    {
      "inputs": [],
      "name": "checkForConsistency",
      "outputs": [
        {
          "internalType": "uint256",
          "name": "collective",
          "type": "uint256"
        },
        {
          "internalType": "uint256",
          "name": "marginal",
          "type": "uint256"
        },
        {
          "internalType": "uint256",
          "name": "abs_error",
          "type": "uint256"
        },
        {
          "internalType": "uint256",
          "name": "rel_error",
          "type": "uint256"
        },
        {
          "internalType": "uint256",
          "name": "solidityTruth",
          "type": "uint256"
        },
        {
          "internalType": "uint256",
          "name": "blockNo",
          "type": "uint256"
        }
      ],
      "stateMutability": "view",
      "type": "function"
    },
    {
      "inputs": [],
      "name": "getTotalState",
      "outputs": [
        {
          "internalType": "uint256",
          "name": "totalBalance",
          "type": "uint256"
        },
        {
          "internalType": "uint256",
          "name": "_latestBlock",
          "type": "uint256"
        },
        {
          "internalType": "uint256",
          "name": "_accRewardPerShare12",
          "type": "uint256"
        },
        {
          "internalType": "uint256",
          "name": "_rewordPool",
          "type": "uint256"
        },
        {
          "internalType": "uint256",
          "name": "_totalPendingReward",
          "type": "uint256"
        }
      ],
      "stateMutability": "view",
      "type": "function"
    },
    {
      "inputs": [
        {
          "internalType": "address",
          "name": "user",
          "type": "address"
        }
      ],
      "name": "getUserState",
      "outputs": [
        {
          "internalType": "uint256",
          "name": "_share",
          "type": "uint256"
        },
        {
          "internalType": "uint256",
          "name": "_reward",
          "type": "uint256"
        },
        {
          "internalType": "uint256",
          "name": "_rewardDebt",
          "type": "uint256"
        },
        {
          "internalType": "uint256",
          "name": "_userPendingReward",
          "type": "uint256"
        }
      ],
      "stateMutability": "view",
      "type": "function"
    },
    {
      "inputs": [],
      "name": "internals",
      "outputs": [
        {
          "internalType": "uint256",
          "name": "_initBlock",
          "type": "uint256"
        },
        {
          "internalType": "uint256",
          "name": "_rate",
          "type": "uint256"
        },
        {
          "internalType": "uint256",
          "name": "_scale",
          "type": "uint256"
        },
        {
          "internalType": "uint256",
          "name": "_cycle",
          "type": "uint256"
        },
        {
          "internalType": "uint256",
          "name": "_init_supply",
          "type": "uint256"
        }
      ],
      "stateMutability": "view",
      "type": "function"
    },
    {
      "inputs": [
        {
          "internalType": "address",
          "name": "to",
          "type": "address"
        },
        {
          "internalType": "uint256",
          "name": "amount",
          "type": "uint256"
        }
      ],
      "name": "mint",
      "outputs": [],
      "stateMutability": "nonpayable",
      "type": "function"
    },
    {
      "inputs": [],
      "name": "pendency",
      "outputs": [
        {
          "internalType": "uint256",
          "name": "",
          "type": "uint256"
        }
      ],
      "stateMutability": "view",
      "type": "function"
    },
    {
      "inputs": [
        {
          "internalType": "address",
          "name": "user",
          "type": "address"
        }
      ],
      "name": "pending",
      "outputs": [
        {
          "internalType": "uint256",
          "name": "pending",
          "type": "uint256"
        }
      ],
      "stateMutability": "view",
      "type": "function"
    },
    {
      "inputs": [],
      "name": "totalBalance",
      "outputs": [
        {
          "internalType": "uint256",
          "name": "",
          "type": "uint256"
        }
      ],
      "stateMutability": "view",
      "type": "function"
    },
    {
      "inputs": [],
      "name": "totalPending",
      "outputs": [
        {
          "internalType": "uint256",
          "name": "pending",
          "type": "uint256"
        }
      ],
      "stateMutability": "view",
      "type": "function"
    },
    {
      "inputs": [
        {
          "internalType": "address",
          "name": "recipient",
          "type": "address"
        },
        {
          "internalType": "uint256",
          "name": "amount",
          "type": "uint256"
        }
      ],
      "name": "transfer",
      "outputs": [
        {
          "internalType": "bool",
          "name": "",
          "type": "bool"
        }
      ],
      "stateMutability": "nonpayable",
      "type": "function"
    },
    {
      "inputs": [],
      "name": "update",
      "outputs": [],
      "stateMutability": "nonpayable",
      "type": "function"
    }
  ],
  "bytecode": "0x60806040523480156200001157600080fd5b506040516200354238038062003542833981810160405281019062000037919062000f39565b80600a60006101000a81548173ffffffffffffffffffffffffffffffffffffffff021916908373ffffffffffffffffffffffffffffffffffffffff160217905550436002819055507370997970c51812dc3a010c7d01b50e0d17dc79c8600760006101000a81548173ffffffffffffffffffffffffffffffffffffffff021916908373ffffffffffffffffffffffffffffffffffffffff160217905550733c44cdddb6a900fa2b585dd299e03d12fa4293bc600860006101000a81548173ffffffffffffffffffffffffffffffffffffffff021916908373ffffffffffffffffffffffffffffffffffffffff1602179055507390f79bf6eb2c4f870365e785982e1f101e93b906600960006101000a81548173ffffffffffffffffffffffffffffffffffffffff021916908373ffffffffffffffffffffffffffffffffffffffff16021790555033600660006101000a81548173ffffffffffffffffffffffffffffffffffffffff021916908373ffffffffffffffffffffffffffffffffffffffff1602179055506200021e600660009054906101000a900473ffffffffffffffffffffffffffffffffffffffff16600360096012620001f8919062000fa7565b600a62000206919062001143565b620002129190620011c3565b6200029c60201b60201c565b620002956040518060400160405280601781526020017f496e697461696c206d696e7420746f204f776e65723a200000000000000000008152506003600960126200026a919062000fa7565b600a62000278919062001143565b620002849190620011c3565b6200038860201b62000d701760201c565b506200152d565b600073ffffffffffffffffffffffffffffffffffffffff168273ffffffffffffffffffffffffffffffffffffffff1614156040518060400160405280600c81526020017f5a65726f206164647265737300000000000000000000000000000000000000008152509062000347576040517f08c379a00000000000000000000000000000000000000000000000000000000081526004016200033e91906200129f565b60405180910390fd5b506200035c600083836200042e60201b60201c565b62000370828260016200043360201b60201c565b62000384600083836200063d60201b60201c565b5050565b6200042a8282604051602401620003a1929190620012d4565b6040516020818303038152906040527fb60e72cc000000000000000000000000000000000000000000000000000000007bffffffffffffffffffffffffffffffffffffffffffffffffffffffff19166020820180517bffffffffffffffffffffffffffffffffffffffffffffffffffffffff83818316178352505050506200064260201b60201c565b5050565b505050565b620004436200066b60201b60201c565b600062000456846200081760201b60201c565b90506000811115620004ef57620004766004548262000ab560201b60201c565b600481905550806000808673ffffffffffffffffffffffffffffffffffffffff1673ffffffffffffffffffffffffffffffffffffffff1681526020019081526020016000206000828254620004cc919062001308565b925050819055508060016000828254620004e7919062001308565b925050819055505b60025443620004ff919062001308565b600560008673ffffffffffffffffffffffffffffffffffffffff1673ffffffffffffffffffffffffffffffffffffffff168152602001908152602001600020600201819055508115620005c457826000808673ffffffffffffffffffffffffffffffffffffffff1673ffffffffffffffffffffffffffffffffffffffff16815260200190815260200160002060008282546200059c919062001343565b925050819055508260016000828254620005b7919062001343565b9250508190555062000637565b826000808673ffffffffffffffffffffffffffffffffffffffff1673ffffffffffffffffffffffffffffffffffffffff168152602001908152602001600020600082825462000614919062001308565b9250508190555082600160008282546200062f919062001308565b925050819055505b50505050565b505050565b62000668816200066362000ae160201b62000e0c1762000b0260201b60201c565b60201c565b50565b60006003546002544362000680919062001308565b6200068c919062001308565b9050600081111562000814576000600454600154620006ac919062001308565b9050600080600a60009054906101000a900473ffffffffffffffffffffffffffffffffffffffff1673ffffffffffffffffffffffffffffffffffffffff16635aff34dc6101da620f424062000702919062001308565b620f424087600a6040518563ffffffff1660e01b81526004016200072a9493929190620013a0565b6040805180830381865afa15801562000747573d6000803e3d6000fd5b505050506040513d601f19601f820116820180604052508101906200076d91906200141e565b9150915060008060024362000783919062001465565b03620007b657620007a184848462000b1660201b62000e2d1760201c565b84620007ae919062001308565b9050620007de565b620007ce84848462000b7260201b62000e6f1760201c565b84620007db919062001308565b90505b8060046000828254620007f2919062001343565b925050819055506002544362000809919062001308565b600381905550505050505b50565b600080600560008473ffffffffffffffffffffffffffffffffffffffff1673ffffffffffffffffffffffffffffffffffffffff16815260200190815260200160002060020154600254436200086d919062001308565b62000879919062001308565b9050600081111562000aaf57600080600a60009054906101000a900473ffffffffffffffffffffffffffffffffffffffff1673ffffffffffffffffffffffffffffffffffffffff16635aff34dc6101da620f4240620008d9919062001308565b620f424086600a6040518563ffffffff1660e01b8152600401620009019493929190620013a0565b6040805180830381865afa1580156200091e573d6000803e3d6000fd5b505050506040513d601f19601f820116820180604052508101906200094491906200141e565b91509150600060024362000959919062001465565b0362000a0857620009b56000808773ffffffffffffffffffffffffffffffffffffffff1673ffffffffffffffffffffffffffffffffffffffff16815260200190815260200160002054838362000b7260201b62000e6f1760201c565b6000808773ffffffffffffffffffffffffffffffffffffffff1673ffffffffffffffffffffffffffffffffffffffff1681526020019081526020016000205462000a00919062001308565b935062000aac565b62000a5e6000808773ffffffffffffffffffffffffffffffffffffffff1673ffffffffffffffffffffffffffffffffffffffff16815260200190815260200160002054838362000b1660201b62000e2d1760201c565b6000808773ffffffffffffffffffffffffffffffffffffffff1673ffffffffffffffffffffffffffffffffffffffff1681526020019081526020016000205462000aa9919062001308565b93505b50505b50919050565b60008183111562000ad657818362000ace919062001308565b905062000adb565b600090505b92915050565b60006a636f6e736f6c652e6c6f679050600080835160208501845afa505050565b62000ec360201b620017fb17819050919050565b60008062000b2c85858562000b7260201b60201c565b9050600062000b4386868662000c9e60201b60201c565b111562000b665762000b5d81600162000cbe60201b60201c565b91505062000b6b565b809150505b9392505050565b600080600062000b89868662000cd660201b60201c565b915091506000820362000bb45783818162000ba95762000ba862001194565b5b049250505062000c97565b8382101562000c9257600062000bd287878762000c9e60201b60201c565b905060008062000bea85858562000d4160201b60201c565b915091506000820362000c185786818162000c0a5762000c0962001194565b5b049550505050505062000c97565b60008762000c2e60008a62000d7d60201b60201c565b169050600062000c4684848462000d9560201b60201c565b9050600062000c6e838b8162000c615762000c6062001194565b5b0462000e0360201b60201c565b905062000c82828262000e6460201b60201c565b9850505050505050505062000c97565b600080fd5b9392505050565b6000818062000cb25762000cb162001194565b5b83850990509392505050565b6000818362000cce919062001343565b905092915050565b600080600062000ced858562000e7c60201b60201c565b9050600062000d03868662000e6460201b60201c565b905080821062000d1d578082038193509350505062000d3a565b600162000d31838362000d7d60201b60201c565b03819350935050505b9250929050565b60008082841062000d5a57848385039150915062000d75565b6001850362000d70858562000d7d60201b60201c565b915091505b935093915050565b6000818362000d8d919062001308565b905092915050565b60008062000dd08362000db060008662000d7d60201b60201c565b8162000dc15762000dc062001194565b5b04600162000ebb60201b60201c565b905082848162000de55762000de462001194565b5b0462000df8868362000e6460201b60201c565b179150509392505050565b6000806001905060005b600881101562000e5a5762000e4c8262000e40600262000e34868962000e6460201b60201c565b62000d7d60201b60201c565b62000e6460201b60201c565b915080600101905062000e0d565b5080915050919050565b6000818362000e7491906200149d565b905092915050565b60007fffffffffffffffffffffffffffffffffffffffffffffffffffffffffffffffff8062000eb05762000eaf62001194565b5b828409905092915050565b600092915050565b62000ecd620014fe565b565b600080fd5b600073ffffffffffffffffffffffffffffffffffffffff82169050919050565b600062000f018262000ed4565b9050919050565b62000f138162000ef4565b811462000f1f57600080fd5b50565b60008151905062000f338162000f08565b92915050565b60006020828403121562000f525762000f5162000ecf565b5b600062000f628482850162000f22565b91505092915050565b600060ff82169050919050565b7f4e487b7100000000000000000000000000000000000000000000000000000000600052601160045260246000fd5b600062000fb48262000f6b565b915062000fc18362000f6b565b92508260ff0382111562000fda5762000fd962000f78565b5b828201905092915050565b60008160011c9050919050565b6000808291508390505b600185111562001044578086048111156200101c576200101b62000f78565b5b60018516156200102c5780820291505b80810290506200103c8562000fe5565b945062000ffc565b94509492505050565b6000826200105f576001905062001132565b816200106f576000905062001132565b81600181146200108857600281146200109357620010c9565b600191505062001132565b60ff841115620010a857620010a762000f78565b5b8360020a915084821115620010c257620010c162000f78565b5b5062001132565b5060208310610133831016604e8410600b8410161715620011035782820a905083811115620010fd57620010fc62000f78565b5b62001132565b62001112848484600162000ff2565b925090508184048111156200112c576200112b62000f78565b5b81810290505b9392505050565b6000819050919050565b6000620011508262001139565b91506200115d8362000f6b565b92506200118c7fffffffffffffffffffffffffffffffffffffffffffffffffffffffffffffffff84846200104d565b905092915050565b7f4e487b7100000000000000000000000000000000000000000000000000000000600052601260045260246000fd5b6000620011d08262001139565b9150620011dd8362001139565b925082620011f057620011ef62001194565b5b828204905092915050565b600081519050919050565b600082825260208201905092915050565b60005b83811015620012375780820151818401526020810190506200121a565b8381111562001247576000848401525b50505050565b6000601f19601f8301169050919050565b60006200126b82620011fb565b62001277818562001206565b93506200128981856020860162001217565b62001294816200124d565b840191505092915050565b60006020820190508181036000830152620012bb81846200125e565b905092915050565b620012ce8162001139565b82525050565b60006040820190508181036000830152620012f081856200125e565b9050620013016020830184620012c3565b9392505050565b6000620013158262001139565b9150620013228362001139565b92508282101562001338576200133762000f78565b5b828203905092915050565b6000620013508262001139565b91506200135d8362001139565b9250827fffffffffffffffffffffffffffffffffffffffffffffffffffffffffffffffff0382111562001395576200139462000f78565b5b828201905092915050565b6000608082019050620013b76000830187620012c3565b620013c66020830186620012c3565b620013d56040830185620012c3565b620013e46060830184620012c3565b95945050505050565b620013f88162001139565b81146200140457600080fd5b50565b6000815190506200141881620013ed565b92915050565b6000806040838503121562001438576200143762000ecf565b5b6000620014488582860162001407565b92505060206200145b8582860162001407565b9150509250929050565b6000620014728262001139565b91506200147f8362001139565b92508262001492576200149162001194565b5b828206905092915050565b6000620014aa8262001139565b9150620014b78362001139565b9250817fffffffffffffffffffffffffffffffffffffffffffffffffffffffffffffffff0483118215151615620014f357620014f262000f78565b5b828202905092915050565b7f4e487b7100000000000000000000000000000000000000000000000000000000600052605160045260246000fd5b612005806200153d6000396000f3fe608060405234801561001057600080fd5b50600436106101005760003560e01c80639dc29fac11610097578063bdfeb1e511610066578063bdfeb1e514610293578063ddc5eddc146102b5578063df94cf1d146102d3578063e3d670d7146102f557610100565b80639dc29fac1461021f578063a2e620451461023b578063a9059cbb14610245578063ad7a672f1461027557610100565b806340c10f19116100d357806340c10f191461017d578063416ae768146101995780635eebea20146101cc57806373957289146101fc57610100565b80632e0f2625146101055780632ff2e9dc1461012357806332cb6b0c146101415780633f90916a1461015f575b600080fd5b61010d610325565b60405161011a9190611821565b60405180910390f35b61012b61032a565b6040516101389190611855565b60405180910390f35b610149610353565b6040516101569190611855565b60405180910390f35b610167610388565b6040516101749190611855565b60405180910390f35b610197600480360381019061019291906118ff565b6104ef565b005b6101b360048036038101906101ae919061193f565b610583565b6040516101c3949392919061196c565b60405180910390f35b6101e660048036038101906101e1919061193f565b610666565b6040516101f39190611855565b60405180910390f35b6102046108d6565b604051610216969594939291906119b1565b60405180910390f35b610239600480360381019061023491906118ff565b610b39565b005b610243610b47565b005b61025f600480360381019061025a91906118ff565b610cbf565b60405161026c9190611a2d565b60405180910390f35b61027d610cd6565b60405161028a9190611855565b60405180910390f35b61029b610ce5565b6040516102ac959493929190611a48565b60405180910390f35b6102bd610d0d565b6040516102ca9190611855565b60405180910390f35b6102db610d13565b6040516102ec959493929190611a48565b60405180910390f35b61030f600480360381019061030a919061193f565b610d5e565b60405161031c9190611855565b60405180910390f35b601281565b60036009601261033a9190611aca565b600a6103469190611c34565b6103509190611cae565b81565b6003600960126103639190611aca565b600a61036f9190611c34565b6103799190611cae565b60646103859190611cdf565b81565b600060045490506000600354600254436103a29190611d39565b6103ac9190611d39565b905060008111156104eb5760006004546001546103c99190611d39565b9050600080600a60009054906101000a900473ffffffffffffffffffffffffffffffffffffffff1673ffffffffffffffffffffffffffffffffffffffff16635aff34dc6101da620f424061041d9190611d39565b620f424087600a6040518563ffffffff1660e01b8152600401610443949392919061196c565b6040805180830381865afa15801561045f573d6000803e3d6000fd5b505050506040513d601f19601f820116820180604052508101906104839190611d82565b9150915060006002436104969190611dc2565b036104c3576104a6838383610e6f565b836104b19190611d39565b856104bc9190611df3565b94506104e7565b6104ce838383610e2d565b836104d99190611d39565b856104e49190611df3565b94505b5050505b5090565b6003600960126104ff9190611aca565b600a61050b9190611c34565b6105159190611cae565b60646105219190611cdf565b8161052a610f54565b6105349190611df3565b1115610575576040517f08c379a000000000000000000000000000000000000000000000000000000000815260040161056c90611ea6565b60405180910390fd5b61057f8282610f70565b5050565b6000806000806000808673ffffffffffffffffffffffffffffffffffffffff1673ffffffffffffffffffffffffffffffffffffffff168152602001908152602001600020549350600560008673ffffffffffffffffffffffffffffffffffffffff1673ffffffffffffffffffffffffffffffffffffffff168152602001908152602001600020600101549250600560008673ffffffffffffffffffffffffffffffffffffffff1673ffffffffffffffffffffffffffffffffffffffff16815260200190815260200160002060000154915061065d85610666565b90509193509193565b600080600560008473ffffffffffffffffffffffffffffffffffffffff1673ffffffffffffffffffffffffffffffffffffffff16815260200190815260200160002060020154600254436106ba9190611d39565b6106c49190611d39565b905060008111156108d057600080600a60009054906101000a900473ffffffffffffffffffffffffffffffffffffffff1673ffffffffffffffffffffffffffffffffffffffff16635aff34dc6101da620f42406107219190611d39565b620f424086600a6040518563ffffffff1660e01b8152600401610747949392919061196c565b6040805180830381865afa158015610763573d6000803e3d6000fd5b505050506040513d601f19601f820116820180604052508101906107879190611d82565b91509150600060024361079a9190611dc2565b03610838576107e86000808773ffffffffffffffffffffffffffffffffffffffff1673ffffffffffffffffffffffffffffffffffffffff168152602001908152602001600020548383610e6f565b6000808773ffffffffffffffffffffffffffffffffffffffff1673ffffffffffffffffffffffffffffffffffffffff168152602001908152602001600020546108319190611d39565b93506108cd565b6108816000808773ffffffffffffffffffffffffffffffffffffffff1673ffffffffffffffffffffffffffffffffffffffff168152602001908152602001600020548383610e2d565b6000808773ffffffffffffffffffffffffffffffffffffffff1673ffffffffffffffffffffffffffffffffffffffff168152602001908152602001600020546108ca9190611d39565b93505b50505b50919050565b6000806000806000806108e7610cd6565b9550610914600660009054906101000a900473ffffffffffffffffffffffffffffffffffffffff16610d5e565b8561091f9190611df3565b945061094c600760009054906101000a900473ffffffffffffffffffffffffffffffffffffffff16610d5e565b856109579190611df3565b9450610984600860009054906101000a900473ffffffffffffffffffffffffffffffffffffffff16610d5e565b8561098f9190611df3565b94506109bc600960009054906101000a900473ffffffffffffffffffffffffffffffffffffffff16610d5e565b856109c79190611df3565b94506000858710156109e95786866109df9190611d39565b94508590506109fb565b85876109f59190611d39565b94508690505b6000811115610a2a5785856b033b2e3c9fd0803ce8000000610a1d9190611cdf565b610a279190611cae565b93505b600060025443610a3a9190611d39565b9050600080600a60009054906101000a900473ffffffffffffffffffffffffffffffffffffffff1673ffffffffffffffffffffffffffffffffffffffff16635aff34dc6101da620f4240610a8e9190611d39565b620f424086600a6040518563ffffffff1660e01b8152600401610ab4949392919061196c565b6040805180830381865afa158015610ad0573d6000803e3d6000fd5b505050506040513d601f19601f82011682018060405250810190610af49190611d82565b91509150610b28600360096012610b0b9190611aca565b600a610b179190611c34565b610b219190611cae565b8383610e2d565b955043945050505050909192939495565b610b438282611041565b5050565b600060035460025443610b5a9190611d39565b610b649190611d39565b90506000811115610cbc576000600454600154610b819190611d39565b9050600080600a60009054906101000a900473ffffffffffffffffffffffffffffffffffffffff1673ffffffffffffffffffffffffffffffffffffffff16635aff34dc6101da620f4240610bd59190611d39565b620f424087600a6040518563ffffffff1660e01b8152600401610bfb949392919061196c565b6040805180830381865afa158015610c17573d6000803e3d6000fd5b505050506040513d601f19601f82011682018060405250810190610c3b9190611d82565b91509150600080600243610c4f9190611dc2565b03610c7157610c5f848484610e2d565b84610c6a9190611d39565b9050610c8a565b610c7c848484610e6f565b84610c879190611d39565b90505b8060046000828254610c9c9190611df3565b9250508190555060025443610cb19190611d39565b600381905550505050505b50565b6000610ccc33848461119c565b6001905092915050565b6000610ce0610f54565b905090565b6000806000806000600154945060035493506004549150610d04610388565b90509091929394565b60045481565b600080600080600060025494506101da9350620f42409250600a9150600360096012610d3f9190611aca565b600a610d4b9190611c34565b610d559190611cae565b90509091929394565b6000610d69826113ab565b9050919050565b610e088282604051602401610d86929190611f4e565b6040516020818303038152906040527fb60e72cc000000000000000000000000000000000000000000000000000000007bffffffffffffffffffffffffffffffffffffffffffffffffffffffff19166020820180517bffffffffffffffffffffffffffffffffffffffffffffffffffffffff8381831617835250505050611406565b5050565b60006a636f6e736f6c652e6c6f679050600080835160208501845afa505050565b600080610e3b858585610e6f565b90506000610e4a868686611420565b1115610e6357610e5b81600161143d565b915050610e68565b809150505b9392505050565b6000806000610e7e8686611453565b9150915060008203610ea457838181610e9a57610e99611c7f565b5b0492505050610f4d565b83821015610f48576000610eb9878787611420565b9050600080610ec98585856114a4565b9150915060008203610ef257868181610ee557610ee4611c7f565b5b0495505050505050610f4d565b600087610f0060008a6114d6565b1690506000610f108484846114ec565b90506000610f2d838b81610f2757610f26611c7f565b5b0461153c565b9050610f398282611583565b98505050505050505050610f4d565b600080fd5b9392505050565b6000610f5e610388565b600154610f6b9190611d39565b905090565b600073ffffffffffffffffffffffffffffffffffffffff168273ffffffffffffffffffffffffffffffffffffffff1614156040518060400160405280600c81526020017f5a65726f2061646472657373000000000000000000000000000000000000000081525090611018576040517f08c379a000000000000000000000000000000000000000000000000000000000815260040161100f9190611f7e565b60405180910390fd5b5061102560008383611599565b6110318282600161159e565b61103d6000838361177f565b5050565b600073ffffffffffffffffffffffffffffffffffffffff168273ffffffffffffffffffffffffffffffffffffffff1614156040518060400160405280600c81526020017f5a65726f20616464726573730000000000000000000000000000000000000000815250906110e9576040517f08c379a00000000000000000000000000000000000000000000000000000000081526004016110e09190611f7e565b60405180910390fd5b5060006110f5836113ab565b9050818110156040518060400160405280600f81526020017f457863656564732062616c616e6365000000000000000000000000000000000081525090611172576040517f08c379a00000000000000000000000000000000000000000000000000000000081526004016111699190611f7e565b60405180910390fd5b5061117f83600084611599565b61118b8383600061159e565b6111978360008461177f565b505050565b600073ffffffffffffffffffffffffffffffffffffffff168373ffffffffffffffffffffffffffffffffffffffff1614156040518060400160405280600c81526020017f5a65726f2061646472657373000000000000000000000000000000000000000081525090611244576040517f08c379a000000000000000000000000000000000000000000000000000000000815260040161123b9190611f7e565b60405180910390fd5b50600073ffffffffffffffffffffffffffffffffffffffff168273ffffffffffffffffffffffffffffffffffffffff1614156040518060400160405280600c81526020017f5a65726f20616464726573730000000000000000000000000000000000000000815250906112ed576040517f08c379a00000000000000000000000000000000000000000000000000000000081526004016112e49190611f7e565b60405180910390fd5b5060006112f9846113ab565b9050818110156040518060400160405280600f81526020017f457863656564732062616c616e6365000000000000000000000000000000000081525090611376576040517f08c379a000000000000000000000000000000000000000000000000000000000815260040161136d9190611f7e565b60405180910390fd5b50611382848484611599565b61138e8483600061159e565b61139a8383600161159e565b6113a584848461177f565b50505050565b60006113b682610666565b6000808473ffffffffffffffffffffffffffffffffffffffff1673ffffffffffffffffffffffffffffffffffffffff168152602001908152602001600020546113ff9190611d39565b9050919050565b61141d81611415610e0c611784565b63ffffffff16565b50565b6000818061143157611430611c7f565b5b83850990509392505050565b6000818361144b9190611df3565b905092915050565b6000806000611462858561178f565b905060006114708686611583565b9050808210611488578082038193509350505061149d565b600161149483836114d6565b03819350935050505b9250929050565b6000808284106114bb5784838503915091506114ce565b600185036114c985856114d6565b915091505b935093915050565b600081836114e49190611d39565b905092915050565b600080611514836114fe6000866114d6565b8161150c5761150b611c7f565b5b0460016117cb565b905082848161152657611525611c7f565b5b046115318683611583565b179150509392505050565b6000806001905060005b60088110156115795761156c8261156760026115628689611583565b6114d6565b611583565b9150806001019050611546565b5080915050919050565b600081836115919190611cdf565b905092915050565b505050565b6115a6610b47565b60006115b184610666565b9050600081111561163d576115c8600454826117d3565b600481905550806000808673ffffffffffffffffffffffffffffffffffffffff1673ffffffffffffffffffffffffffffffffffffffff168152602001908152602001600020600082825461161c9190611d39565b9250508190555080600160008282546116359190611d39565b925050819055505b6002544361164b9190611d39565b600560008673ffffffffffffffffffffffffffffffffffffffff1673ffffffffffffffffffffffffffffffffffffffff16815260200190815260200160002060020181905550811561170a57826000808673ffffffffffffffffffffffffffffffffffffffff1673ffffffffffffffffffffffffffffffffffffffff16815260200190815260200160002060008282546116e59190611df3565b9250508190555082600160008282546116fe9190611df3565b92505081905550611779565b826000808673ffffffffffffffffffffffffffffffffffffffff1673ffffffffffffffffffffffffffffffffffffffff16815260200190815260200160002060008282546117589190611d39565b9250508190555082600160008282546117719190611d39565b925050819055505b50505050565b505050565b6117fb819050919050565b60007fffffffffffffffffffffffffffffffffffffffffffffffffffffffffffffffff806117c0576117bf611c7f565b5b828409905092915050565b600092915050565b6000818311156117f05781836117e99190611d39565b90506117f5565b600090505b92915050565b611803611fa0565b565b600060ff82169050919050565b61181b81611805565b82525050565b60006020820190506118366000830184611812565b92915050565b6000819050919050565b61184f8161183c565b82525050565b600060208201905061186a6000830184611846565b92915050565b600080fd5b600073ffffffffffffffffffffffffffffffffffffffff82169050919050565b60006118a082611875565b9050919050565b6118b081611895565b81146118bb57600080fd5b50565b6000813590506118cd816118a7565b92915050565b6118dc8161183c565b81146118e757600080fd5b50565b6000813590506118f9816118d3565b92915050565b6000806040838503121561191657611915611870565b5b6000611924858286016118be565b9250506020611935858286016118ea565b9150509250929050565b60006020828403121561195557611954611870565b5b6000611963848285016118be565b91505092915050565b60006080820190506119816000830187611846565b61198e6020830186611846565b61199b6040830185611846565b6119a86060830184611846565b95945050505050565b600060c0820190506119c66000830189611846565b6119d36020830188611846565b6119e06040830187611846565b6119ed6060830186611846565b6119fa6080830185611846565b611a0760a0830184611846565b979650505050505050565b60008115159050919050565b611a2781611a12565b82525050565b6000602082019050611a426000830184611a1e565b92915050565b600060a082019050611a5d6000830188611846565b611a6a6020830187611846565b611a776040830186611846565b611a846060830185611846565b611a916080830184611846565b9695505050505050565b7f4e487b7100000000000000000000000000000000000000000000000000000000600052601160045260246000fd5b6000611ad582611805565b9150611ae083611805565b92508260ff03821115611af657611af5611a9b565b5b828201905092915050565b60008160011c9050919050565b6000808291508390505b6001851115611b5857808604811115611b3457611b33611a9b565b5b6001851615611b435780820291505b8081029050611b5185611b01565b9450611b18565b94509492505050565b600082611b715760019050611c2d565b81611b7f5760009050611c2d565b8160018114611b955760028114611b9f57611bce565b6001915050611c2d565b60ff841115611bb157611bb0611a9b565b5b8360020a915084821115611bc857611bc7611a9b565b5b50611c2d565b5060208310610133831016604e8410600b8410161715611c035782820a905083811115611bfe57611bfd611a9b565b5b611c2d565b611c108484846001611b0e565b92509050818404811115611c2757611c26611a9b565b5b81810290505b9392505050565b6000611c3f8261183c565b9150611c4a83611805565b9250611c777fffffffffffffffffffffffffffffffffffffffffffffffffffffffffffffffff8484611b61565b905092915050565b7f4e487b7100000000000000000000000000000000000000000000000000000000600052601260045260246000fd5b6000611cb98261183c565b9150611cc48361183c565b925082611cd457611cd3611c7f565b5b828204905092915050565b6000611cea8261183c565b9150611cf58361183c565b9250817fffffffffffffffffffffffffffffffffffffffffffffffffffffffffffffffff0483118215151615611d2e57611d2d611a9b565b5b828202905092915050565b6000611d448261183c565b9150611d4f8361183c565b925082821015611d6257611d61611a9b565b5b828203905092915050565b600081519050611d7c816118d3565b92915050565b60008060408385031215611d9957611d98611870565b5b6000611da785828601611d6d565b9250506020611db885828601611d6d565b9150509250929050565b6000611dcd8261183c565b9150611dd88361183c565b925082611de857611de7611c7f565b5b828206905092915050565b6000611dfe8261183c565b9150611e098361183c565b9250827fffffffffffffffffffffffffffffffffffffffffffffffffffffffffffffffff03821115611e3e57611e3d611a9b565b5b828201905092915050565b600082825260208201905092915050565b7f457863656564204d617820537570706c79000000000000000000000000000000600082015250565b6000611e90601183611e49565b9150611e9b82611e5a565b602082019050919050565b60006020820190508181036000830152611ebf81611e83565b9050919050565b600081519050919050565b60005b83811015611eef578082015181840152602081019050611ed4565b83811115611efe576000848401525b50505050565b6000601f19601f8301169050919050565b6000611f2082611ec6565b611f2a8185611e49565b9350611f3a818560208601611ed1565b611f4381611f04565b840191505092915050565b60006040820190508181036000830152611f688185611f15565b9050611f776020830184611846565b9392505050565b60006020820190508181036000830152611f988184611f15565b905092915050565b7f4e487b7100000000000000000000000000000000000000000000000000000000600052605160045260246000fdfea26469706673582212207a1b6ea56a1cc39b7a2233e938738adeb76d3facc0b7094099589a85d817b69364736f6c634300080e0033",
  "linkReferences": {},
  "deployedLinkReferences": {}
}