{
  "_format": "hh-sol-artifact-1",
  "contractName": "SimpleInterestPendency",
  "sourceName": "contracts/SimpleInterestPendency.sol",
  "abi": [
    {
      "inputs": [
        {
          "internalType": "address",
          "name": "_analyticMath",
          "type": "address"
        }
      ],
      "stateMutability": "nonpayable",
      "type": "constructor"
    },
    {
      "inputs": [],
      "name": "DECIMALS",
      "outputs": [
        {
          "internalType": "uint8",
          "name": "",
          "type": "uint8"
        }
      ],
      "stateMutability": "view",
      "type": "function"
    },
    {
      "inputs": [],
      "name": "INITIAL_SUPPLY",
      "outputs": [
        {
          "internalType": "uint256",
          "name": "",
          "type": "uint256"
        }
      ],
      "stateMutability": "view",
      "type": "function"
    },
    {
      "inputs": [],
      "name": "MAX_SUPPLY",
      "outputs": [
        {
          "internalType": "uint256",
          "name": "",
          "type": "uint256"
        }
      ],
      "stateMutability": "view",
      "type": "function"
    },
    {
      "inputs": [
        {
          "internalType": "address",
          "name": "account",
          "type": "address"
        }
      ],
      "name": "balance",
      "outputs": [
        {
          "internalType": "uint256",
          "name": "",
          "type": "uint256"
        }
      ],
      "stateMutability": "view",
      "type": "function"
    },
    {
      "inputs": [
        {
          "internalType": "address",
          "name": "from",
          "type": "address"
        },
        {
          "internalType": "uint256",
          "name": "amount",
          "type": "uint256"
        }
      ],
      "name": "burn",
      "outputs": [],
      "stateMutability": "nonpayable",
      "type": "function"
    },
    {
      "inputs": [],
      "name": "checkForConsistency",
      "outputs": [
        {
          "internalType": "uint256",
          "name": "collective",
          "type": "uint256"
        },
        {
          "internalType": "uint256",
          "name": "marginal",
          "type": "uint256"
        },
        {
          "internalType": "uint256",
          "name": "abs_error",
          "type": "uint256"
        },
        {
          "internalType": "uint256",
          "name": "rel_error",
          "type": "uint256"
        },
        {
          "internalType": "uint256",
          "name": "solidityTruth",
          "type": "uint256"
        },
        {
          "internalType": "uint256",
          "name": "blockNo",
          "type": "uint256"
        }
      ],
      "stateMutability": "view",
      "type": "function"
    },
    {
      "inputs": [],
      "name": "getTotalState",
      "outputs": [
        {
          "internalType": "uint256",
          "name": "totalBalance",
          "type": "uint256"
        },
        {
          "internalType": "uint256",
          "name": "_latestBlock",
          "type": "uint256"
        },
        {
          "internalType": "uint256",
          "name": "_accRewardPerShare12",
          "type": "uint256"
        },
        {
          "internalType": "uint256",
          "name": "_rewordPool",
          "type": "uint256"
        },
        {
          "internalType": "uint256",
          "name": "_totalPendingReward",
          "type": "uint256"
        }
      ],
      "stateMutability": "view",
      "type": "function"
    },
    {
      "inputs": [
        {
          "internalType": "address",
          "name": "user",
          "type": "address"
        }
      ],
      "name": "getUserState",
      "outputs": [
        {
          "internalType": "uint256",
          "name": "_share",
          "type": "uint256"
        },
        {
          "internalType": "uint256",
          "name": "_reward",
          "type": "uint256"
        },
        {
          "internalType": "uint256",
          "name": "_rewardDebt",
          "type": "uint256"
        },
        {
          "internalType": "uint256",
          "name": "_userPendingReward",
          "type": "uint256"
        }
      ],
      "stateMutability": "view",
      "type": "function"
    },
    {
      "inputs": [],
      "name": "internals",
      "outputs": [
        {
          "internalType": "uint256",
          "name": "_initBlock",
          "type": "uint256"
        },
        {
          "internalType": "uint256",
          "name": "_rate",
          "type": "uint256"
        },
        {
          "internalType": "uint256",
          "name": "_scale",
          "type": "uint256"
        },
        {
          "internalType": "uint256",
          "name": "_cycle",
          "type": "uint256"
        },
        {
          "internalType": "uint256",
          "name": "_init_supply",
          "type": "uint256"
        }
      ],
      "stateMutability": "view",
      "type": "function"
    },
    {
      "inputs": [
        {
          "internalType": "address",
          "name": "to",
          "type": "address"
        },
        {
          "internalType": "uint256",
          "name": "amount",
          "type": "uint256"
        }
      ],
      "name": "mint",
      "outputs": [],
      "stateMutability": "nonpayable",
      "type": "function"
    },
    {
      "inputs": [],
      "name": "pendency",
      "outputs": [
        {
          "internalType": "uint256",
          "name": "",
          "type": "uint256"
        }
      ],
      "stateMutability": "view",
      "type": "function"
    },
    {
      "inputs": [
        {
          "internalType": "address",
          "name": "user",
          "type": "address"
        }
      ],
      "name": "pending",
      "outputs": [
        {
          "internalType": "uint256",
          "name": "pending",
          "type": "uint256"
        }
      ],
      "stateMutability": "view",
      "type": "function"
    },
    {
      "inputs": [],
      "name": "totalBalance",
      "outputs": [
        {
          "internalType": "uint256",
          "name": "",
          "type": "uint256"
        }
      ],
      "stateMutability": "view",
      "type": "function"
    },
    {
      "inputs": [],
      "name": "totalPending",
      "outputs": [
        {
          "internalType": "uint256",
          "name": "pending",
          "type": "uint256"
        }
      ],
      "stateMutability": "view",
      "type": "function"
    },
    {
      "inputs": [],
      "name": "totalReward",
      "outputs": [
        {
          "internalType": "uint256",
          "name": "",
          "type": "uint256"
        }
      ],
      "stateMutability": "view",
      "type": "function"
    },
    {
      "inputs": [
        {
          "internalType": "address",
          "name": "recipient",
          "type": "address"
        },
        {
          "internalType": "uint256",
          "name": "amount",
          "type": "uint256"
        }
      ],
      "name": "transfer",
      "outputs": [
        {
          "internalType": "bool",
          "name": "",
          "type": "bool"
        }
      ],
      "stateMutability": "nonpayable",
      "type": "function"
    },
    {
      "inputs": [],
      "name": "update",
      "outputs": [],
      "stateMutability": "nonpayable",
      "type": "function"
    }
  ],
  "bytecode": "0x60806040523480156200001157600080fd5b5060405162002aa138038062002aa18339818101604052810190620000379190620008af565b80600b60006101000a81548173ffffffffffffffffffffffffffffffffffffffff021916908373ffffffffffffffffffffffffffffffffffffffff160217905550436002819055507370997970c51812dc3a010c7d01b50e0d17dc79c8600860006101000a81548173ffffffffffffffffffffffffffffffffffffffff021916908373ffffffffffffffffffffffffffffffffffffffff160217905550733c44cdddb6a900fa2b585dd299e03d12fa4293bc600960006101000a81548173ffffffffffffffffffffffffffffffffffffffff021916908373ffffffffffffffffffffffffffffffffffffffff1602179055507390f79bf6eb2c4f870365e785982e1f101e93b906600a60006101000a81548173ffffffffffffffffffffffffffffffffffffffff021916908373ffffffffffffffffffffffffffffffffffffffff16021790555033600760006101000a81548173ffffffffffffffffffffffffffffffffffffffff021916908373ffffffffffffffffffffffffffffffffffffffff1602179055506200021e600760009054906101000a900473ffffffffffffffffffffffffffffffffffffffff16600360096012620001f891906200091d565b600a62000206919062000ab9565b62000212919062000b39565b6200029c60201b60201c565b620002956040518060400160405280601781526020017f496e697461696c206d696e7420746f204f776e65723a200000000000000000008152506003600960126200026a91906200091d565b600a62000278919062000ab9565b62000284919062000b39565b6200038860201b62000b1e1760201c565b5062000da6565b600073ffffffffffffffffffffffffffffffffffffffff168273ffffffffffffffffffffffffffffffffffffffff1614156040518060400160405280600c81526020017f5a65726f206164647265737300000000000000000000000000000000000000008152509062000347576040517f08c379a00000000000000000000000000000000000000000000000000000000081526004016200033e919062000c15565b60405180910390fd5b506200035c600083836200042e60201b60201c565b62000370828260016200043360201b60201c565b62000384600083836200064260201b60201c565b5050565b6200042a8282604051602401620003a192919062000c4a565b6040516020818303038152906040527fb60e72cc000000000000000000000000000000000000000000000000000000007bffffffffffffffffffffffffffffffffffffffffffffffffffffffff19166020820180517bffffffffffffffffffffffffffffffffffffffffffffffffffffffff83818316178352505050506200064760201b60201c565b5050565b505050565b620004436200067060201b60201c565b600062000456846200071460201b60201c565b90506000811115620004f457806004600082825462000476919062000c7e565b9250508190555080600660008673ffffffffffffffffffffffffffffffffffffffff1673ffffffffffffffffffffffffffffffffffffffff1681526020019081526020016000206000016000828254620004d1919062000cb9565b925050819055508060056000828254620004ec919062000cb9565b925050819055505b81156200057357826000808673ffffffffffffffffffffffffffffffffffffffff1673ffffffffffffffffffffffffffffffffffffffff16815260200190815260200160002060008282546200054b919062000cb9565b92505081905550826001600082825462000566919062000cb9565b92505081905550620005e6565b826000808673ffffffffffffffffffffffffffffffffffffffff1673ffffffffffffffffffffffffffffffffffffffff1681526020019081526020016000206000828254620005c3919062000c7e565b925050819055508260016000828254620005de919062000c7e565b925050819055505b60025443620005f6919062000c7e565b600660008673ffffffffffffffffffffffffffffffffffffffff1673ffffffffffffffffffffffffffffffffffffffff1681526020019081526020016000206001018190555050505050565b505050565b6200066d81620006686200080460201b62000bba176200082560201b60201c565b60201c565b50565b60006003546002544362000685919062000c7e565b62000691919062000c7e565b9050600081111562000711576000600a620f4240836101da600154620006b8919062000d16565b620006c4919062000d16565b620006d0919062000b39565b620006dc919062000b39565b90508060046000828254620006f2919062000cb9565b925050819055506002544362000709919062000c7e565b600381905550505b50565b600080600660008473ffffffffffffffffffffffffffffffffffffffff1673ffffffffffffffffffffffffffffffffffffffff16815260200190815260200160002060010154600254436200076a919062000c7e565b62000776919062000c7e565b90506000811115620007fe57600a620f4240826101da6000808873ffffffffffffffffffffffffffffffffffffffff1673ffffffffffffffffffffffffffffffffffffffff16815260200190815260200160002054620007d7919062000d16565b620007e3919062000d16565b620007ef919062000b39565b620007fb919062000b39565b91505b50919050565b60006a636f6e736f6c652e6c6f679050600080835160208501845afa505050565b6200083960201b6200156717819050919050565b6200084362000d77565b565b600080fd5b600073ffffffffffffffffffffffffffffffffffffffff82169050919050565b600062000877826200084a565b9050919050565b62000889816200086a565b81146200089557600080fd5b50565b600081519050620008a9816200087e565b92915050565b600060208284031215620008c857620008c762000845565b5b6000620008d88482850162000898565b91505092915050565b600060ff82169050919050565b7f4e487b7100000000000000000000000000000000000000000000000000000000600052601160045260246000fd5b60006200092a82620008e1565b91506200093783620008e1565b92508260ff0382111562000950576200094f620008ee565b5b828201905092915050565b60008160011c9050919050565b6000808291508390505b6001851115620009ba57808604811115620009925762000991620008ee565b5b6001851615620009a25780820291505b8081029050620009b2856200095b565b945062000972565b94509492505050565b600082620009d5576001905062000aa8565b81620009e5576000905062000aa8565b8160018114620009fe576002811462000a095762000a3f565b600191505062000aa8565b60ff84111562000a1e5762000a1d620008ee565b5b8360020a91508482111562000a385762000a37620008ee565b5b5062000aa8565b5060208310610133831016604e8410600b841016171562000a795782820a90508381111562000a735762000a72620008ee565b5b62000aa8565b62000a88848484600162000968565b9250905081840481111562000aa25762000aa1620008ee565b5b81810290505b9392505050565b6000819050919050565b600062000ac68262000aaf565b915062000ad383620008e1565b925062000b027fffffffffffffffffffffffffffffffffffffffffffffffffffffffffffffffff8484620009c3565b905092915050565b7f4e487b7100000000000000000000000000000000000000000000000000000000600052601260045260246000fd5b600062000b468262000aaf565b915062000b538362000aaf565b92508262000b665762000b6562000b0a565b5b828204905092915050565b600081519050919050565b600082825260208201905092915050565b60005b8381101562000bad57808201518184015260208101905062000b90565b8381111562000bbd576000848401525b50505050565b6000601f19601f8301169050919050565b600062000be18262000b71565b62000bed818562000b7c565b935062000bff81856020860162000b8d565b62000c0a8162000bc3565b840191505092915050565b6000602082019050818103600083015262000c31818462000bd4565b905092915050565b62000c448162000aaf565b82525050565b6000604082019050818103600083015262000c66818562000bd4565b905062000c77602083018462000c39565b9392505050565b600062000c8b8262000aaf565b915062000c988362000aaf565b92508282101562000cae5762000cad620008ee565b5b828203905092915050565b600062000cc68262000aaf565b915062000cd38362000aaf565b9250827fffffffffffffffffffffffffffffffffffffffffffffffffffffffffffffffff0382111562000d0b5762000d0a620008ee565b5b828201905092915050565b600062000d238262000aaf565b915062000d308362000aaf565b9250817fffffffffffffffffffffffffffffffffffffffffffffffffffffffffffffffff048311821515161562000d6c5762000d6b620008ee565b5b828202905092915050565b7f4e487b7100000000000000000000000000000000000000000000000000000000600052605160045260246000fd5b611ceb8062000db66000396000f3fe608060405234801561001057600080fd5b506004361061010b5760003560e01c8063750142e6116100a2578063ad7a672f11610071578063ad7a672f1461029e578063bdfeb1e5146102bc578063ddc5eddc146102de578063df94cf1d146102fc578063e3d670d71461031e5761010b565b8063750142e61461022a5780639dc29fac14610248578063a2e6204514610264578063a9059cbb1461026e5761010b565b806340c10f19116100de57806340c10f1914610188578063416ae768146101a45780635eebea20146101d757806373957289146102075761010b565b80632e0f2625146101105780632ff2e9dc1461012e57806332cb6b0c1461014c5780633f90916a1461016a575b600080fd5b61011861034e565b604051610125919061158d565b60405180910390f35b610136610353565b60405161014391906115c1565b60405180910390f35b61015461037c565b60405161016191906115c1565b60405180910390f35b6101726103b1565b60405161017f91906115c1565b60405180910390f35b6101a2600480360381019061019d919061166b565b610427565b005b6101be60048036038101906101b991906116ab565b6104bb565b6040516101ce94939291906116d8565b60405180910390f35b6101f160048036038101906101ec91906116ab565b610559565b6040516101fe91906115c1565b60405180910390f35b61020f61063c565b6040516102219695949392919061171d565b60405180910390f35b6102326109c6565b60405161023f91906115c1565b60405180910390f35b610262600480360381019061025d919061166b565b6109cc565b005b61026c6109da565b005b6102886004803603810190610283919061166b565b610a6d565b6040516102959190611799565b60405180910390f35b6102a6610a84565b6040516102b391906115c1565b60405180910390f35b6102c4610a93565b6040516102d59594939291906117b4565b60405180910390f35b6102e6610abb565b6040516102f391906115c1565b60405180910390f35b610304610ac1565b6040516103159594939291906117b4565b60405180910390f35b610338600480360381019061033391906116ab565b610b0c565b60405161034591906115c1565b60405180910390f35b601281565b6003600960126103639190611836565b600a61036f91906119a0565b6103799190611a1a565b81565b60036009601261038c9190611836565b600a61039891906119a0565b6103a29190611a1a565b60646103ae9190611a4b565b81565b600060045490506000600354600254436103cb9190611aa5565b6103d59190611aa5565b9050600081111561042357600a620f4240826101da6001546103f79190611a4b565b6104019190611a4b565b61040b9190611a1a565b6104159190611a1a565b826104209190611ad9565b91505b5090565b6003600960126104379190611836565b600a61044391906119a0565b61044d9190611a1a565b60646104599190611a4b565b81610462610bdb565b61046c9190611ad9565b11156104ad576040517f08c379a00000000000000000000000000000000000000000000000000000000081526004016104a490611b8c565b60405180910390fd5b6104b78282610be5565b5050565b6000806000806000808673ffffffffffffffffffffffffffffffffffffffff1673ffffffffffffffffffffffffffffffffffffffff168152602001908152602001600020549350600660008673ffffffffffffffffffffffffffffffffffffffff1673ffffffffffffffffffffffffffffffffffffffff16815260200190815260200160002060000154925061055085610559565b90509193509193565b600080600660008473ffffffffffffffffffffffffffffffffffffffff1673ffffffffffffffffffffffffffffffffffffffff16815260200190815260200160002060010154600254436105ad9190611aa5565b6105b79190611aa5565b9050600081111561063657600a620f4240826101da6000808873ffffffffffffffffffffffffffffffffffffffff1673ffffffffffffffffffffffffffffffffffffffff168152602001908152602001600020546106159190611a4b565b61061f9190611a4b565b6106299190611a1a565b6106339190611a1a565b91505b50919050565b60008060008060008061064d6103b1565b60055461065a9190611ad9565b9550610687600760009054906101000a900473ffffffffffffffffffffffffffffffffffffffff16610559565b60066000600760009054906101000a900473ffffffffffffffffffffffffffffffffffffffff1673ffffffffffffffffffffffffffffffffffffffff1673ffffffffffffffffffffffffffffffffffffffff168152602001908152602001600020600001546106f69190611ad9565b856107019190611ad9565b945061072e600860009054906101000a900473ffffffffffffffffffffffffffffffffffffffff16610559565b60066000600860009054906101000a900473ffffffffffffffffffffffffffffffffffffffff1673ffffffffffffffffffffffffffffffffffffffff1673ffffffffffffffffffffffffffffffffffffffff1681526020019081526020016000206000015461079d9190611ad9565b856107a89190611ad9565b94506107d5600960009054906101000a900473ffffffffffffffffffffffffffffffffffffffff16610559565b60066000600960009054906101000a900473ffffffffffffffffffffffffffffffffffffffff1673ffffffffffffffffffffffffffffffffffffffff1673ffffffffffffffffffffffffffffffffffffffff168152602001908152602001600020600001546108449190611ad9565b8561084f9190611ad9565b945061087c600a60009054906101000a900473ffffffffffffffffffffffffffffffffffffffff16610559565b60066000600a60009054906101000a900473ffffffffffffffffffffffffffffffffffffffff1673ffffffffffffffffffffffffffffffffffffffff1673ffffffffffffffffffffffffffffffffffffffff168152602001908152602001600020600001546108eb9190611ad9565b856108f69190611ad9565b945060008587101561091857868661090e9190611aa5565b945085905061092a565b85876109249190611aa5565b94508690505b60008111156109595785856b033b2e3c9fd0803ce800000061094c9190611a4b565b6109569190611a1a565b93505b6000600254436109699190611aa5565b90506109b760036009601261097e9190611836565b600a61098a91906119a0565b6109949190611a1a565b826101da6109a29190611a4b565b600a620f42406109b29190611a4b565b610cb6565b93504392505050909192939495565b60055481565b6109d68282610cf8565b5050565b6000600354600254436109ed9190611aa5565b6109f79190611aa5565b90506000811115610a6a576000600a620f4240836101da600154610a1b9190611a4b565b610a259190611a4b565b610a2f9190611a1a565b610a399190611a1a565b90508060046000828254610a4d9190611ad9565b9250508190555060025443610a629190611aa5565b600381905550505b50565b6000610a7a338484610e53565b6001905092915050565b6000610a8e610bdb565b905090565b6000806000806000600154945060035493506004549150610ab26103b1565b90509091929394565b60045481565b600080600080600060025494506101da9350620f42409250600a9150600360096012610aed9190611836565b600a610af991906119a0565b610b039190611a1a565b90509091929394565b6000610b1782611062565b9050919050565b610bb68282604051602401610b34929190611c34565b6040516020818303038152906040527fb60e72cc000000000000000000000000000000000000000000000000000000007bffffffffffffffffffffffffffffffffffffffffffffffffffffffff19166020820180517bffffffffffffffffffffffffffffffffffffffffffffffffffffffff83818316178352505050506110aa565b5050565b60006a636f6e736f6c652e6c6f679050600080835160208501845afa505050565b6000600154905090565b600073ffffffffffffffffffffffffffffffffffffffff168273ffffffffffffffffffffffffffffffffffffffff1614156040518060400160405280600c81526020017f5a65726f2061646472657373000000000000000000000000000000000000000081525090610c8d576040517f08c379a0000000000000000000000000000000000000000000000000000000008152600401610c849190611c64565b60405180910390fd5b50610c9a600083836110c4565b610ca6828260016110c9565b610cb2600083836112b5565b5050565b600080610cc48585856112ba565b90506000610cd386868661139f565b1115610cec57610ce48160016113bc565b915050610cf1565b809150505b9392505050565b600073ffffffffffffffffffffffffffffffffffffffff168273ffffffffffffffffffffffffffffffffffffffff1614156040518060400160405280600c81526020017f5a65726f2061646472657373000000000000000000000000000000000000000081525090610da0576040517f08c379a0000000000000000000000000000000000000000000000000000000008152600401610d979190611c64565b60405180910390fd5b506000610dac83611062565b9050818110156040518060400160405280600f81526020017f457863656564732062616c616e6365000000000000000000000000000000000081525090610e29576040517f08c379a0000000000000000000000000000000000000000000000000000000008152600401610e209190611c64565b60405180910390fd5b50610e36836000846110c4565b610e42838360006110c9565b610e4e836000846112b5565b505050565b600073ffffffffffffffffffffffffffffffffffffffff168373ffffffffffffffffffffffffffffffffffffffff1614156040518060400160405280600c81526020017f5a65726f2061646472657373000000000000000000000000000000000000000081525090610efb576040517f08c379a0000000000000000000000000000000000000000000000000000000008152600401610ef29190611c64565b60405180910390fd5b50600073ffffffffffffffffffffffffffffffffffffffff168273ffffffffffffffffffffffffffffffffffffffff1614156040518060400160405280600c81526020017f5a65726f2061646472657373000000000000000000000000000000000000000081525090610fa4576040517f08c379a0000000000000000000000000000000000000000000000000000000008152600401610f9b9190611c64565b60405180910390fd5b506000610fb084611062565b9050818110156040518060400160405280600f81526020017f457863656564732062616c616e636500000000000000000000000000000000008152509061102d576040517f08c379a00000000000000000000000000000000000000000000000000000000081526004016110249190611c64565b60405180910390fd5b506110398484846110c4565b611045848360006110c9565b611051838360016110c9565b61105c8484846112b5565b50505050565b60008060008373ffffffffffffffffffffffffffffffffffffffff1673ffffffffffffffffffffffffffffffffffffffff168152602001908152602001600020549050919050565b6110c1816110b9610bba6113d2565b63ffffffff16565b50565b505050565b6110d16109da565b60006110dc84610559565b905060008111156111735780600460008282546110f99190611aa5565b9250508190555080600660008673ffffffffffffffffffffffffffffffffffffffff1673ffffffffffffffffffffffffffffffffffffffff16815260200190815260200160002060000160008282546111529190611ad9565b92505081905550806005600082825461116b9190611ad9565b925050819055505b81156111ec57826000808673ffffffffffffffffffffffffffffffffffffffff1673ffffffffffffffffffffffffffffffffffffffff16815260200190815260200160002060008282546111c79190611ad9565b9250508190555082600160008282546111e09190611ad9565b9250508190555061125b565b826000808673ffffffffffffffffffffffffffffffffffffffff1673ffffffffffffffffffffffffffffffffffffffff168152602001908152602001600020600082825461123a9190611aa5565b9250508190555082600160008282546112539190611aa5565b925050819055505b600254436112699190611aa5565b600660008673ffffffffffffffffffffffffffffffffffffffff1673ffffffffffffffffffffffffffffffffffffffff1681526020019081526020016000206001018190555050505050565b505050565b60008060006112c986866113dd565b91509150600082036112ef578381816112e5576112e46119eb565b5b0492505050611398565b8382101561139357600061130487878761139f565b905060008061131485858561142e565b915091506000820361133d578681816113305761132f6119eb565b5b0495505050505050611398565b60008761134b60008a611460565b169050600061135b848484611476565b90506000611378838b81611372576113716119eb565b5b046114c6565b9050611384828261150d565b98505050505050505050611398565b600080fd5b9392505050565b600081806113b0576113af6119eb565b5b83850990509392505050565b600081836113ca9190611ad9565b905092915050565b611567819050919050565b60008060006113ec8585611523565b905060006113fa868661150d565b90508082106114125780820381935093505050611427565b600161141e8383611460565b03819350935050505b9250929050565b600080828410611445578483850391509150611458565b600185036114538585611460565b915091505b935093915050565b6000818361146e9190611aa5565b905092915050565b60008061149e83611488600086611460565b81611496576114956119eb565b5b04600161155f565b90508284816114b0576114af6119eb565b5b046114bb868361150d565b179150509392505050565b6000806001905060005b6008811015611503576114f6826114f160026114ec868961150d565b611460565b61150d565b91508060010190506114d0565b5080915050919050565b6000818361151b9190611a4b565b905092915050565b60007fffffffffffffffffffffffffffffffffffffffffffffffffffffffffffffffff80611554576115536119eb565b5b828409905092915050565b600092915050565b61156f611c86565b565b600060ff82169050919050565b61158781611571565b82525050565b60006020820190506115a2600083018461157e565b92915050565b6000819050919050565b6115bb816115a8565b82525050565b60006020820190506115d660008301846115b2565b92915050565b600080fd5b600073ffffffffffffffffffffffffffffffffffffffff82169050919050565b600061160c826115e1565b9050919050565b61161c81611601565b811461162757600080fd5b50565b60008135905061163981611613565b92915050565b611648816115a8565b811461165357600080fd5b50565b6000813590506116658161163f565b92915050565b60008060408385031215611682576116816115dc565b5b60006116908582860161162a565b92505060206116a185828601611656565b9150509250929050565b6000602082840312156116c1576116c06115dc565b5b60006116cf8482850161162a565b91505092915050565b60006080820190506116ed60008301876115b2565b6116fa60208301866115b2565b61170760408301856115b2565b61171460608301846115b2565b95945050505050565b600060c08201905061173260008301896115b2565b61173f60208301886115b2565b61174c60408301876115b2565b61175960608301866115b2565b61176660808301856115b2565b61177360a08301846115b2565b979650505050505050565b60008115159050919050565b6117938161177e565b82525050565b60006020820190506117ae600083018461178a565b92915050565b600060a0820190506117c960008301886115b2565b6117d660208301876115b2565b6117e360408301866115b2565b6117f060608301856115b2565b6117fd60808301846115b2565b9695505050505050565b7f4e487b7100000000000000000000000000000000000000000000000000000000600052601160045260246000fd5b600061184182611571565b915061184c83611571565b92508260ff0382111561186257611861611807565b5b828201905092915050565b60008160011c9050919050565b6000808291508390505b60018511156118c4578086048111156118a05761189f611807565b5b60018516156118af5780820291505b80810290506118bd8561186d565b9450611884565b94509492505050565b6000826118dd5760019050611999565b816118eb5760009050611999565b8160018114611901576002811461190b5761193a565b6001915050611999565b60ff84111561191d5761191c611807565b5b8360020a91508482111561193457611933611807565b5b50611999565b5060208310610133831016604e8410600b841016171561196f5782820a90508381111561196a57611969611807565b5b611999565b61197c848484600161187a565b9250905081840481111561199357611992611807565b5b81810290505b9392505050565b60006119ab826115a8565b91506119b683611571565b92506119e37fffffffffffffffffffffffffffffffffffffffffffffffffffffffffffffffff84846118cd565b905092915050565b7f4e487b7100000000000000000000000000000000000000000000000000000000600052601260045260246000fd5b6000611a25826115a8565b9150611a30836115a8565b925082611a4057611a3f6119eb565b5b828204905092915050565b6000611a56826115a8565b9150611a61836115a8565b9250817fffffffffffffffffffffffffffffffffffffffffffffffffffffffffffffffff0483118215151615611a9a57611a99611807565b5b828202905092915050565b6000611ab0826115a8565b9150611abb836115a8565b925082821015611ace57611acd611807565b5b828203905092915050565b6000611ae4826115a8565b9150611aef836115a8565b9250827fffffffffffffffffffffffffffffffffffffffffffffffffffffffffffffffff03821115611b2457611b23611807565b5b828201905092915050565b600082825260208201905092915050565b7f457863656564204d617820537570706c79000000000000000000000000000000600082015250565b6000611b76601183611b2f565b9150611b8182611b40565b602082019050919050565b60006020820190508181036000830152611ba581611b69565b9050919050565b600081519050919050565b60005b83811015611bd5578082015181840152602081019050611bba565b83811115611be4576000848401525b50505050565b6000601f19601f8301169050919050565b6000611c0682611bac565b611c108185611b2f565b9350611c20818560208601611bb7565b611c2981611bea565b840191505092915050565b60006040820190508181036000830152611c4e8185611bfb565b9050611c5d60208301846115b2565b9392505050565b60006020820190508181036000830152611c7e8184611bfb565b905092915050565b7f4e487b7100000000000000000000000000000000000000000000000000000000600052605160045260246000fdfea2646970667358221220acaeafdb588a8fbb499c926a768aee63e65d5b818be329b137d376df03af8d7c64736f6c634300080e0033",
  "linkReferences": {},
  "deployedLinkReferences": {}
}