{
  "_format": "hh-sol-artifact-1",
  "contractName": "CompoundBurnActivityRandom",
  "sourceName": "contracts/CompoundBurnActivityRandom.sol",
  "abi": [
    {
      "inputs": [
        {
          "internalType": "address",
          "name": "_analyticMath",
          "type": "address"
        }
      ],
      "stateMutability": "nonpayable",
      "type": "constructor"
    },
    {
      "inputs": [],
      "name": "DECIMALS",
      "outputs": [
        {
          "internalType": "uint8",
          "name": "",
          "type": "uint8"
        }
      ],
      "stateMutability": "view",
      "type": "function"
    },
    {
      "inputs": [],
      "name": "INITIAL_SUPPLY",
      "outputs": [
        {
          "internalType": "uint256",
          "name": "",
          "type": "uint256"
        }
      ],
      "stateMutability": "view",
      "type": "function"
    },
    {
      "inputs": [],
      "name": "MAX_SUPPLY",
      "outputs": [
        {
          "internalType": "uint256",
          "name": "",
          "type": "uint256"
        }
      ],
      "stateMutability": "view",
      "type": "function"
    },
    {
      "inputs": [
        {
          "internalType": "address",
          "name": "account",
          "type": "address"
        }
      ],
      "name": "balance",
      "outputs": [
        {
          "internalType": "uint256",
          "name": "",
          "type": "uint256"
        }
      ],
      "stateMutability": "view",
      "type": "function"
    },
    {
      "inputs": [
        {
          "internalType": "address",
          "name": "from",
          "type": "address"
        },
        {
          "internalType": "uint256",
          "name": "amount",
          "type": "uint256"
        }
      ],
      "name": "burn",
      "outputs": [],
      "stateMutability": "nonpayable",
      "type": "function"
    },
    {
      "inputs": [],
      "name": "checkForConsistency",
      "outputs": [
        {
          "internalType": "uint256",
          "name": "collective",
          "type": "uint256"
        },
        {
          "internalType": "uint256",
          "name": "marginal",
          "type": "uint256"
        },
        {
          "internalType": "uint256",
          "name": "abs_error",
          "type": "uint256"
        },
        {
          "internalType": "uint256",
          "name": "rel_error",
          "type": "uint256"
        },
        {
          "internalType": "uint256",
          "name": "solidityTruth",
          "type": "uint256"
        },
        {
          "internalType": "uint256",
          "name": "blockNo",
          "type": "uint256"
        }
      ],
      "stateMutability": "view",
      "type": "function"
    },
    {
      "inputs": [],
      "name": "getTotalState",
      "outputs": [
        {
          "internalType": "uint256",
          "name": "totalBalance",
          "type": "uint256"
        },
        {
          "internalType": "uint256",
          "name": "_lastNet",
          "type": "uint256"
        },
        {
          "internalType": "uint256",
          "name": "_VIRTUAL",
          "type": "uint256"
        },
        {
          "internalType": "uint256",
          "name": "blocks",
          "type": "uint256"
        },
        {
          "internalType": "uint256",
          "name": "_totalPendingReward",
          "type": "uint256"
        },
        {
          "internalType": "uint256",
          "name": "_burnDone",
          "type": "uint256"
        }
      ],
      "stateMutability": "view",
      "type": "function"
    },
    {
      "inputs": [
        {
          "internalType": "address",
          "name": "user",
          "type": "address"
        }
      ],
      "name": "getUserState",
      "outputs": [
        {
          "internalType": "uint256",
          "name": "_share",
          "type": "uint256"
        },
        {
          "internalType": "uint256",
          "name": "_VIRTUAL",
          "type": "uint256"
        },
        {
          "internalType": "uint256",
          "name": "blocks",
          "type": "uint256"
        },
        {
          "internalType": "uint256",
          "name": "_userPendingReward",
          "type": "uint256"
        },
        {
          "internalType": "uint256",
          "name": "_latestBlock",
          "type": "uint256"
        }
      ],
      "stateMutability": "view",
      "type": "function"
    },
    {
      "inputs": [],
      "name": "internals",
      "outputs": [
        {
          "internalType": "uint256",
          "name": "_initBlock",
          "type": "uint256"
        },
        {
          "internalType": "uint256",
          "name": "_rate",
          "type": "uint256"
        },
        {
          "internalType": "uint256",
          "name": "_scale",
          "type": "uint256"
        },
        {
          "internalType": "uint256",
          "name": "_cycle",
          "type": "uint256"
        },
        {
          "internalType": "uint256",
          "name": "_init_supply",
          "type": "uint256"
        }
      ],
      "stateMutability": "view",
      "type": "function"
    },
    {
      "inputs": [
        {
          "internalType": "address",
          "name": "to",
          "type": "address"
        },
        {
          "internalType": "uint256",
          "name": "amount",
          "type": "uint256"
        }
      ],
      "name": "mint",
      "outputs": [],
      "stateMutability": "nonpayable",
      "type": "function"
    },
    {
      "inputs": [
        {
          "internalType": "address",
          "name": "user",
          "type": "address"
        }
      ],
      "name": "pending",
      "outputs": [
        {
          "internalType": "uint256",
          "name": "pending",
          "type": "uint256"
        }
      ],
      "stateMutability": "view",
      "type": "function"
    },
    {
      "inputs": [],
      "name": "totalBalance",
      "outputs": [
        {
          "internalType": "uint256",
          "name": "",
          "type": "uint256"
        }
      ],
      "stateMutability": "view",
      "type": "function"
    },
    {
      "inputs": [],
      "name": "totalPending",
      "outputs": [
        {
          "internalType": "uint256",
          "name": "pending",
          "type": "uint256"
        }
      ],
      "stateMutability": "view",
      "type": "function"
    },
    {
      "inputs": [
        {
          "internalType": "address",
          "name": "recipient",
          "type": "address"
        },
        {
          "internalType": "uint256",
          "name": "amount",
          "type": "uint256"
        }
      ],
      "name": "transfer",
      "outputs": [
        {
          "internalType": "bool",
          "name": "",
          "type": "bool"
        }
      ],
      "stateMutability": "nonpayable",
      "type": "function"
    }
  ],
  "bytecode": "0x60806040523480156200001157600080fd5b506040516200382f3803806200382f83398181016040528101906200003791906200110b565b80600a60006101000a81548173ffffffffffffffffffffffffffffffffffffffff021916908373ffffffffffffffffffffffffffffffffffffffff160217905550436002819055507370997970c51812dc3a010c7d01b50e0d17dc79c8600560006101000a81548173ffffffffffffffffffffffffffffffffffffffff021916908373ffffffffffffffffffffffffffffffffffffffff160217905550733c44cdddb6a900fa2b585dd299e03d12fa4293bc600660006101000a81548173ffffffffffffffffffffffffffffffffffffffff021916908373ffffffffffffffffffffffffffffffffffffffff1602179055507390f79bf6eb2c4f870365e785982e1f101e93b906600760006101000a81548173ffffffffffffffffffffffffffffffffffffffff021916908373ffffffffffffffffffffffffffffffffffffffff16021790555033600460006101000a81548173ffffffffffffffffffffffffffffffffffffffff021916908373ffffffffffffffffffffffffffffffffffffffff1602179055506200021e600460009054906101000a900473ffffffffffffffffffffffffffffffffffffffff16600360096012620001f8919062001179565b600a62000206919062001315565b62000212919062001395565b6200029c60201b60201c565b620002956040518060400160405280601781526020017f496e697461696c206d696e7420746f204f776e65723a200000000000000000008152506003600960126200026a919062001179565b600a62000278919062001315565b62000284919062001395565b6200038860201b62000b5d1760201c565b50620016ff565b600073ffffffffffffffffffffffffffffffffffffffff168273ffffffffffffffffffffffffffffffffffffffff1614156040518060400160405280600c81526020017f5a65726f206164647265737300000000000000000000000000000000000000008152509062000347576040517f08c379a00000000000000000000000000000000000000000000000000000000081526004016200033e919062001471565b60405180910390fd5b506200035c600083836200042e60201b60201c565b62000370828260016200043360201b60201c565b6200038460008383620009b760201b60201c565b5050565b6200042a8282604051602401620003a1929190620014a6565b6040516020818303038152906040527fb60e72cc000000000000000000000000000000000000000000000000000000007bffffffffffffffffffffffffffffffffffffffffffffffffffffffff19166020820180517bffffffffffffffffffffffffffffffffffffffffffffffffffffffff8381831617835250505050620009bc60201b60201c565b5050565b505050565b600060095460025443620004489190620014da565b620004549190620014da565b9050600080600a60009054906101000a900473ffffffffffffffffffffffffffffffffffffffff1673ffffffffffffffffffffffffffffffffffffffff16635aff34dc6101da620f4240620004aa9190620014da565b620f424086600a6040518563ffffffff1660e01b8152600401620004d2949392919062001515565b6040805180830381865afa158015620004ef573d6000803e3d6000fd5b505050506040513d601f19601f8201168201806040525081019062000515919062001593565b91509150600360008773ffffffffffffffffffffffffffffffffffffffff1673ffffffffffffffffffffffffffffffffffffffff16815260200190815260200160002060010154600254436200056c9190620014da565b620005789190620014da565b9250600080600a60009054906101000a900473ffffffffffffffffffffffffffffffffffffffff1673ffffffffffffffffffffffffffffffffffffffff16635aff34dc6101da620f4240620005ce9190620014da565b620f424088600a6040518563ffffffff1660e01b8152600401620005f6949392919062001515565b6040805180830381865afa15801562000613573d6000803e3d6000fd5b505050506040513d601f19601f8201168201806040525081019062000639919062001593565b9150915060006002436200064e9190620015da565b03620006e057620006d4620006726008548686620009e560201b62000bf91760201c565b620006c86000808c73ffffffffffffffffffffffffffffffffffffffff1673ffffffffffffffffffffffffffffffffffffffff16815260200190815260200160002054858562000b1160201b62000cde1760201c565b62000b6d60201b60201c565b60088190555062000763565b620007366000808a73ffffffffffffffffffffffffffffffffffffffff1673ffffffffffffffffffffffffffffffffffffffff168152602001908152602001600020548383620009e560201b62000bf91760201c565b62000750600854868662000b1160201b62000cde1760201c565b6200075c9190620014da565b6008819055505b60025443620007739190620014da565b60098190555050505050506000620007918462000b9960201b60201c565b905060008111156200081057806000808673ffffffffffffffffffffffffffffffffffffffff1673ffffffffffffffffffffffffffffffffffffffff1681526020019081526020016000206000828254620007ed9190620014da565b925050819055508060016000828254620008089190620014da565b925050819055505b60025443620008209190620014da565b600360008673ffffffffffffffffffffffffffffffffffffffff1673ffffffffffffffffffffffffffffffffffffffff168152602001908152602001600020600101819055508115620008e557826000808673ffffffffffffffffffffffffffffffffffffffff1673ffffffffffffffffffffffffffffffffffffffff1681526020019081526020016000206000828254620008bd919062001612565b925050819055508260016000828254620008d8919062001612565b9250508190555062000958565b826000808673ffffffffffffffffffffffffffffffffffffffff1673ffffffffffffffffffffffffffffffffffffffff1681526020019081526020016000206000828254620009359190620014da565b925050819055508260016000828254620009509190620014da565b925050819055505b6000808573ffffffffffffffffffffffffffffffffffffffff1673ffffffffffffffffffffffffffffffffffffffff1681526020019081526020016000205460086000828254620009aa919062001612565b9250508190555050505050565b505050565b620009e281620009dd62000e3b60201b62000d201762000e5c60201b60201c565b60201c565b50565b6000806000620009fc868662000e7060201b60201c565b915091506000820362000a275783818162000a1c5762000a1b62001366565b5b049250505062000b0a565b8382101562000b0557600062000a4587878762000edb60201b60201c565b905060008062000a5d85858562000efb60201b60201c565b915091506000820362000a8b5786818162000a7d5762000a7c62001366565b5b049550505050505062000b0a565b60008762000aa160008a62000f3760201b60201c565b169050600062000ab984848462000f4f60201b60201c565b9050600062000ae1838b8162000ad45762000ad362001366565b5b0462000fbd60201b60201c565b905062000af582826200101e60201b60201c565b9850505050505050505062000b0a565b600080fd5b9392505050565b60008062000b27858585620009e560201b60201c565b9050600062000b3e86868662000edb60201b60201c565b111562000b615762000b588160016200103660201b60201c565b91505062000b66565b809150505b9392505050565b60008183111562000b8e57818362000b869190620014da565b905062000b93565b600090505b92915050565b600080600360008473ffffffffffffffffffffffffffffffffffffffff1673ffffffffffffffffffffffffffffffffffffffff168152602001908152602001600020600101546002544362000bef9190620014da565b62000bfb9190620014da565b9050600081111562000e3557600080600a60009054906101000a900473ffffffffffffffffffffffffffffffffffffffff1673ffffffffffffffffffffffffffffffffffffffff16635aff34dc6101da620f424062000c5b9190620014da565b620f424086600a6040518563ffffffff1660e01b815260040162000c83949392919062001515565b6040805180830381865afa15801562000ca0573d6000803e3d6000fd5b505050506040513d601f19601f8201168201806040525081019062000cc6919062001593565b91509150600060024362000cdb9190620015da565b0362000d8a5762000d376000808773ffffffffffffffffffffffffffffffffffffffff1673ffffffffffffffffffffffffffffffffffffffff168152602001908152602001600020548383620009e560201b62000bf91760201c565b6000808773ffffffffffffffffffffffffffffffffffffffff1673ffffffffffffffffffffffffffffffffffffffff1681526020019081526020016000205462000d829190620014da565b935062000e32565b62000e2f6000808773ffffffffffffffffffffffffffffffffffffffff1673ffffffffffffffffffffffffffffffffffffffff1681526020019081526020016000205462000e236000808973ffffffffffffffffffffffffffffffffffffffff1673ffffffffffffffffffffffffffffffffffffffff16815260200190815260200160002054858562000b1160201b62000cde1760201c565b62000b6d60201b60201c565b93505b50505b50919050565b60006a636f6e736f6c652e6c6f679050600080835160208501845afa505050565b6200109560201b6200191617819050919050565b600080600062000e8785856200104e60201b60201c565b9050600062000e9d86866200101e60201b60201c565b905080821062000eb7578082038193509350505062000ed4565b600162000ecb838362000f3760201b60201c565b03819350935050505b9250929050565b6000818062000eef5762000eee62001366565b5b83850990509392505050565b60008082841062000f1457848385039150915062000f2f565b6001850362000f2a858562000f3760201b60201c565b915091505b935093915050565b6000818362000f479190620014da565b905092915050565b60008062000f8a8362000f6a60008662000f3760201b60201c565b8162000f7b5762000f7a62001366565b5b0460016200108d60201b60201c565b905082848162000f9f5762000f9e62001366565b5b0462000fb286836200101e60201b60201c565b179150509392505050565b6000806001905060005b60088110156200101457620010068262000ffa600262000fee86896200101e60201b60201c565b62000f3760201b60201c565b6200101e60201b60201c565b915080600101905062000fc7565b5080915050919050565b600081836200102e91906200166f565b905092915050565b6000818362001046919062001612565b905092915050565b60007fffffffffffffffffffffffffffffffffffffffffffffffffffffffffffffffff8062001082576200108162001366565b5b828409905092915050565b600092915050565b6200109f620016d0565b565b600080fd5b600073ffffffffffffffffffffffffffffffffffffffff82169050919050565b6000620010d382620010a6565b9050919050565b620010e581620010c6565b8114620010f157600080fd5b50565b6000815190506200110581620010da565b92915050565b600060208284031215620011245762001123620010a1565b5b60006200113484828501620010f4565b91505092915050565b600060ff82169050919050565b7f4e487b7100000000000000000000000000000000000000000000000000000000600052601160045260246000fd5b600062001186826200113d565b915062001193836200113d565b92508260ff03821115620011ac57620011ab6200114a565b5b828201905092915050565b60008160011c9050919050565b6000808291508390505b60018511156200121657808604811115620011ee57620011ed6200114a565b5b6001851615620011fe5780820291505b80810290506200120e85620011b7565b9450620011ce565b94509492505050565b60008262001231576001905062001304565b8162001241576000905062001304565b81600181146200125a576002811462001265576200129b565b600191505062001304565b60ff8411156200127a57620012796200114a565b5b8360020a9150848211156200129457620012936200114a565b5b5062001304565b5060208310610133831016604e8410600b8410161715620012d55782820a905083811115620012cf57620012ce6200114a565b5b62001304565b620012e48484846001620011c4565b92509050818404811115620012fe57620012fd6200114a565b5b81810290505b9392505050565b6000819050919050565b600062001322826200130b565b91506200132f836200113d565b92506200135e7fffffffffffffffffffffffffffffffffffffffffffffffffffffffffffffffff84846200121f565b905092915050565b7f4e487b7100000000000000000000000000000000000000000000000000000000600052601260045260246000fd5b6000620013a2826200130b565b9150620013af836200130b565b925082620013c257620013c162001366565b5b828204905092915050565b600081519050919050565b600082825260208201905092915050565b60005b8381101562001409578082015181840152602081019050620013ec565b8381111562001419576000848401525b50505050565b6000601f19601f8301169050919050565b60006200143d82620013cd565b620014498185620013d8565b93506200145b818560208601620013e9565b62001466816200141f565b840191505092915050565b600060208201905081810360008301526200148d818462001430565b905092915050565b620014a0816200130b565b82525050565b60006040820190508181036000830152620014c2818562001430565b9050620014d3602083018462001495565b9392505050565b6000620014e7826200130b565b9150620014f4836200130b565b9250828210156200150a57620015096200114a565b5b828203905092915050565b60006080820190506200152c600083018762001495565b6200153b602083018662001495565b6200154a604083018562001495565b62001559606083018462001495565b95945050505050565b6200156d816200130b565b81146200157957600080fd5b50565b6000815190506200158d8162001562565b92915050565b60008060408385031215620015ad57620015ac620010a1565b5b6000620015bd858286016200157c565b9250506020620015d0858286016200157c565b9150509250929050565b6000620015e7826200130b565b9150620015f4836200130b565b92508262001607576200160662001366565b5b828206905092915050565b60006200161f826200130b565b91506200162c836200130b565b9250827fffffffffffffffffffffffffffffffffffffffffffffffffffffffffffffffff038211156200166457620016636200114a565b5b828201905092915050565b60006200167c826200130b565b915062001689836200130b565b9250817fffffffffffffffffffffffffffffffffffffffffffffffffffffffffffffffff0483118215151615620016c557620016c46200114a565b5b828202905092915050565b7f4e487b7100000000000000000000000000000000000000000000000000000000600052605160045260246000fd5b612120806200170f6000396000f3fe608060405234801561001057600080fd5b50600436106100ea5760003560e01c8063739572891161008c578063ad7a672f11610066578063ad7a672f14610256578063bdfeb1e514610274578063df94cf1d14610297578063e3d670d7146102b9576100ea565b806373957289146101e75780639dc29fac1461020a578063a9059cbb14610226576100ea565b80633f90916a116100c85780633f90916a1461014957806340c10f1914610167578063416ae768146101835780635eebea20146101b7576100ea565b80632e0f2625146100ef5780632ff2e9dc1461010d57806332cb6b0c1461012b575b600080fd5b6100f76102e9565b604051610104919061193c565b60405180910390f35b6101156102ee565b6040516101229190611970565b60405180910390f35b610133610317565b6040516101409190611970565b60405180910390f35b61015161034c565b60405161015e9190611970565b60405180910390f35b610181600480360381019061017c9190611a1a565b61047c565b005b61019d60048036038101906101989190611a5a565b610510565b6040516101ae959493929190611a87565b60405180910390f35b6101d160048036038101906101cc9190611a5a565b6105c6565b6040516101de9190611970565b60405180910390f35b6101ef610834565b60405161020196959493929190611ada565b60405180910390f35b610224600480360381019061021f9190611a1a565b610a97565b005b610240600480360381019061023b9190611a1a565b610aa5565b60405161024d9190611b56565b60405180910390f35b61025e610abc565b60405161026b9190611970565b60405180910390f35b61027c610acb565b60405161028e96959493929190611ada565b60405180910390f35b61029f610b00565b6040516102b0959493929190611a87565b60405180910390f35b6102d360048036038101906102ce9190611a5a565b610b4b565b6040516102e09190611970565b60405180910390f35b601281565b6003600960126102fe9190611ba0565b600a61030a9190611d0a565b6103149190611d84565b81565b6003600960126103279190611ba0565b600a6103339190611d0a565b61033d9190611d84565b60646103499190611db5565b81565b600080600954600254436103609190611e0f565b61036a9190611e0f565b9050600080600a60009054906101000a900473ffffffffffffffffffffffffffffffffffffffff1673ffffffffffffffffffffffffffffffffffffffff16635aff34dc6101da620f42406103be9190611e0f565b620f424086600a6040518563ffffffff1660e01b81526004016103e49493929190611e43565b6040805180830381865afa158015610400573d6000803e3d6000fd5b505050506040513d601f19601f820116820180604052508101906104249190611e9d565b9150915060006002436104379190611edd565b0361045b5761045460015461044f6008548585610bf9565b610d41565b9350610476565b61047360015461046e6008548585610cde565b610d41565b93505b50505090565b60036009601261048c9190611ba0565b600a6104989190611d0a565b6104a29190611d84565b60646104ae9190611db5565b816104b7610d69565b6104c19190611f0e565b1115610502576040517f08c379a00000000000000000000000000000000000000000000000000000000081526004016104f990611fc1565b60405180910390fd5b61050c8282610d85565b5050565b60008060008060008060008773ffffffffffffffffffffffffffffffffffffffff1673ffffffffffffffffffffffffffffffffffffffff168152602001908152602001600020549450600093506002544361056b9190611e0f565b9250610576866105c6565b9150600360008773ffffffffffffffffffffffffffffffffffffffff1673ffffffffffffffffffffffffffffffffffffffff16815260200190815260200160002060010154905091939590929450565b600080600360008473ffffffffffffffffffffffffffffffffffffffff1673ffffffffffffffffffffffffffffffffffffffff168152602001908152602001600020600101546002544361061a9190611e0f565b6106249190611e0f565b9050600081111561082e57600080600a60009054906101000a900473ffffffffffffffffffffffffffffffffffffffff1673ffffffffffffffffffffffffffffffffffffffff16635aff34dc6101da620f42406106819190611e0f565b620f424086600a6040518563ffffffff1660e01b81526004016106a79493929190611e43565b6040805180830381865afa1580156106c3573d6000803e3d6000fd5b505050506040513d601f19601f820116820180604052508101906106e79190611e9d565b9150915060006002436106fa9190611edd565b03610798576107486000808773ffffffffffffffffffffffffffffffffffffffff1673ffffffffffffffffffffffffffffffffffffffff168152602001908152602001600020548383610bf9565b6000808773ffffffffffffffffffffffffffffffffffffffff1673ffffffffffffffffffffffffffffffffffffffff168152602001908152602001600020546107919190611e0f565b935061082b565b6108286000808773ffffffffffffffffffffffffffffffffffffffff1673ffffffffffffffffffffffffffffffffffffffff168152602001908152602001600020546108236000808973ffffffffffffffffffffffffffffffffffffffff1673ffffffffffffffffffffffffffffffffffffffff168152602001908152602001600020548585610cde565b610d41565b93505b50505b50919050565b600080600080600080610845610abc565b9550610872600460009054906101000a900473ffffffffffffffffffffffffffffffffffffffff16610b4b565b8561087d9190611f0e565b94506108aa600560009054906101000a900473ffffffffffffffffffffffffffffffffffffffff16610b4b565b856108b59190611f0e565b94506108e2600660009054906101000a900473ffffffffffffffffffffffffffffffffffffffff16610b4b565b856108ed9190611f0e565b945061091a600760009054906101000a900473ffffffffffffffffffffffffffffffffffffffff16610b4b565b856109259190611f0e565b945060008587101561094757868661093d9190611e0f565b9450859050610959565b85876109539190611e0f565b94508690505b60008111156109885785856b033b2e3c9fd0803ce800000061097b9190611db5565b6109859190611d84565b93505b6000600254436109989190611e0f565b9050600080600a60009054906101000a900473ffffffffffffffffffffffffffffffffffffffff1673ffffffffffffffffffffffffffffffffffffffff16635aff34dc6101da620f42406109ec9190611e0f565b620f424086600a6040518563ffffffff1660e01b8152600401610a129493929190611e43565b6040805180830381865afa158015610a2e573d6000803e3d6000fd5b505050506040513d601f19601f82011682018060405250810190610a529190611e9d565b91509150610a86600360096012610a699190611ba0565b600a610a759190611d0a565b610a7f9190611d84565b8383610cde565b955043945050505050909192939495565b610aa18282610e56565b5050565b6000610ab2338484610fb1565b6001905092915050565b6000610ac6610d69565b905090565b6000806000806000806001549550600854935060025443610aec9190611e0f565b9250610af661034c565b9150909192939495565b600080600080600060025494506101da9350620f42409250600a9150600360096012610b2c9190611ba0565b600a610b389190611d0a565b610b429190611d84565b90509091929394565b6000610b56826111c0565b9050919050565b610bf58282604051602401610b73929190612069565b6040516020818303038152906040527fb60e72cc000000000000000000000000000000000000000000000000000000007bffffffffffffffffffffffffffffffffffffffffffffffffffffffff19166020820180517bffffffffffffffffffffffffffffffffffffffffffffffffffffffff838183161783525050505061121b565b5050565b6000806000610c088686611235565b9150915060008203610c2e57838181610c2457610c23611d55565b5b0492505050610cd7565b83821015610cd2576000610c43878787611286565b9050600080610c538585856112a3565b9150915060008203610c7c57868181610c6f57610c6e611d55565b5b0495505050505050610cd7565b600087610c8a60008a6112d5565b1690506000610c9a8484846112eb565b90506000610cb7838b81610cb157610cb0611d55565b5b0461133b565b9050610cc38282611382565b98505050505050505050610cd7565b600080fd5b9392505050565b600080610cec858585610bf9565b90506000610cfb868686611286565b1115610d1457610d0c816001611398565b915050610d19565b809150505b9392505050565b60006a636f6e736f6c652e6c6f679050600080835160208501845afa505050565b600081831115610d5e578183610d579190611e0f565b9050610d63565b600090505b92915050565b6000610d7361034c565b600154610d809190611e0f565b905090565b600073ffffffffffffffffffffffffffffffffffffffff168273ffffffffffffffffffffffffffffffffffffffff1614156040518060400160405280600c81526020017f5a65726f2061646472657373000000000000000000000000000000000000000081525090610e2d576040517f08c379a0000000000000000000000000000000000000000000000000000000008152600401610e249190612099565b60405180910390fd5b50610e3a600083836113ae565b610e46828260016113b3565b610e52600083836118c2565b5050565b600073ffffffffffffffffffffffffffffffffffffffff168273ffffffffffffffffffffffffffffffffffffffff1614156040518060400160405280600c81526020017f5a65726f2061646472657373000000000000000000000000000000000000000081525090610efe576040517f08c379a0000000000000000000000000000000000000000000000000000000008152600401610ef59190612099565b60405180910390fd5b506000610f0a836111c0565b9050818110156040518060400160405280600f81526020017f457863656564732062616c616e6365000000000000000000000000000000000081525090610f87576040517f08c379a0000000000000000000000000000000000000000000000000000000008152600401610f7e9190612099565b60405180910390fd5b50610f94836000846113ae565b610fa0838360006113b3565b610fac836000846118c2565b505050565b600073ffffffffffffffffffffffffffffffffffffffff168373ffffffffffffffffffffffffffffffffffffffff1614156040518060400160405280600c81526020017f5a65726f2061646472657373000000000000000000000000000000000000000081525090611059576040517f08c379a00000000000000000000000000000000000000000000000000000000081526004016110509190612099565b60405180910390fd5b50600073ffffffffffffffffffffffffffffffffffffffff168273ffffffffffffffffffffffffffffffffffffffff1614156040518060400160405280600c81526020017f5a65726f2061646472657373000000000000000000000000000000000000000081525090611102576040517f08c379a00000000000000000000000000000000000000000000000000000000081526004016110f99190612099565b60405180910390fd5b50600061110e846111c0565b9050818110156040518060400160405280600f81526020017f457863656564732062616c616e636500000000000000000000000000000000008152509061118b576040517f08c379a00000000000000000000000000000000000000000000000000000000081526004016111829190612099565b60405180910390fd5b506111978484846113ae565b6111a3848360006113b3565b6111af838360016113b3565b6111ba8484846118c2565b50505050565b60006111cb826105c6565b6000808473ffffffffffffffffffffffffffffffffffffffff1673ffffffffffffffffffffffffffffffffffffffff168152602001908152602001600020546112149190611e0f565b9050919050565b6112328161122a610d206118c7565b63ffffffff16565b50565b600080600061124485856118d2565b905060006112528686611382565b905080821061126a578082038193509350505061127f565b600161127683836112d5565b03819350935050505b9250929050565b6000818061129757611296611d55565b5b83850990509392505050565b6000808284106112ba5784838503915091506112cd565b600185036112c885856112d5565b915091505b935093915050565b600081836112e39190611e0f565b905092915050565b600080611313836112fd6000866112d5565b8161130b5761130a611d55565b5b04600161190e565b905082848161132557611324611d55565b5b046113308683611382565b179150509392505050565b6000806001905060005b60088110156113785761136b8261136660026113618689611382565b6112d5565b611382565b9150806001019050611345565b5080915050919050565b600081836113909190611db5565b905092915050565b600081836113a69190611f0e565b905092915050565b505050565b6000600954600254436113c69190611e0f565b6113d09190611e0f565b9050600080600a60009054906101000a900473ffffffffffffffffffffffffffffffffffffffff1673ffffffffffffffffffffffffffffffffffffffff16635aff34dc6101da620f42406114249190611e0f565b620f424086600a6040518563ffffffff1660e01b815260040161144a9493929190611e43565b6040805180830381865afa158015611466573d6000803e3d6000fd5b505050506040513d601f19601f8201168201806040525081019061148a9190611e9d565b91509150600360008773ffffffffffffffffffffffffffffffffffffffff1673ffffffffffffffffffffffffffffffffffffffff16815260200190815260200160002060010154600254436114df9190611e0f565b6114e99190611e0f565b9250600080600a60009054906101000a900473ffffffffffffffffffffffffffffffffffffffff1673ffffffffffffffffffffffffffffffffffffffff16635aff34dc6101da620f424061153d9190611e0f565b620f424088600a6040518563ffffffff1660e01b81526004016115639493929190611e43565b6040805180830381865afa15801561157f573d6000803e3d6000fd5b505050506040513d601f19601f820116820180604052508101906115a39190611e9d565b9150915060006002436115b69190611edd565b03611624576116196115cb6008548686610bf9565b6116146000808c73ffffffffffffffffffffffffffffffffffffffff1673ffffffffffffffffffffffffffffffffffffffff168152602001908152602001600020548585610cde565b610d41565b60088190555061168b565b61166d6000808a73ffffffffffffffffffffffffffffffffffffffff1673ffffffffffffffffffffffffffffffffffffffff168152602001908152602001600020548383610bf9565b61167a6008548686610cde565b6116849190611e0f565b6008819055505b600254436116999190611e0f565b600981905550505050505060006116af846105c6565b9050600081111561172957806000808673ffffffffffffffffffffffffffffffffffffffff1673ffffffffffffffffffffffffffffffffffffffff16815260200190815260200160002060008282546117089190611e0f565b9250508190555080600160008282546117219190611e0f565b925050819055505b600254436117379190611e0f565b600360008673ffffffffffffffffffffffffffffffffffffffff1673ffffffffffffffffffffffffffffffffffffffff1681526020019081526020016000206001018190555081156117f657826000808673ffffffffffffffffffffffffffffffffffffffff1673ffffffffffffffffffffffffffffffffffffffff16815260200190815260200160002060008282546117d19190611f0e565b9250508190555082600160008282546117ea9190611f0e565b92505081905550611865565b826000808673ffffffffffffffffffffffffffffffffffffffff1673ffffffffffffffffffffffffffffffffffffffff16815260200190815260200160002060008282546118449190611e0f565b92505081905550826001600082825461185d9190611e0f565b925050819055505b6000808573ffffffffffffffffffffffffffffffffffffffff1673ffffffffffffffffffffffffffffffffffffffff16815260200190815260200160002054600860008282546118b59190611f0e565b9250508190555050505050565b505050565b611916819050919050565b60007fffffffffffffffffffffffffffffffffffffffffffffffffffffffffffffffff8061190357611902611d55565b5b828409905092915050565b600092915050565b61191e6120bb565b565b600060ff82169050919050565b61193681611920565b82525050565b6000602082019050611951600083018461192d565b92915050565b6000819050919050565b61196a81611957565b82525050565b60006020820190506119856000830184611961565b92915050565b600080fd5b600073ffffffffffffffffffffffffffffffffffffffff82169050919050565b60006119bb82611990565b9050919050565b6119cb816119b0565b81146119d657600080fd5b50565b6000813590506119e8816119c2565b92915050565b6119f781611957565b8114611a0257600080fd5b50565b600081359050611a14816119ee565b92915050565b60008060408385031215611a3157611a3061198b565b5b6000611a3f858286016119d9565b9250506020611a5085828601611a05565b9150509250929050565b600060208284031215611a7057611a6f61198b565b5b6000611a7e848285016119d9565b91505092915050565b600060a082019050611a9c6000830188611961565b611aa96020830187611961565b611ab66040830186611961565b611ac36060830185611961565b611ad06080830184611961565b9695505050505050565b600060c082019050611aef6000830189611961565b611afc6020830188611961565b611b096040830187611961565b611b166060830186611961565b611b236080830185611961565b611b3060a0830184611961565b979650505050505050565b60008115159050919050565b611b5081611b3b565b82525050565b6000602082019050611b6b6000830184611b47565b92915050565b7f4e487b7100000000000000000000000000000000000000000000000000000000600052601160045260246000fd5b6000611bab82611920565b9150611bb683611920565b92508260ff03821115611bcc57611bcb611b71565b5b828201905092915050565b60008160011c9050919050565b6000808291508390505b6001851115611c2e57808604811115611c0a57611c09611b71565b5b6001851615611c195780820291505b8081029050611c2785611bd7565b9450611bee565b94509492505050565b600082611c475760019050611d03565b81611c555760009050611d03565b8160018114611c6b5760028114611c7557611ca4565b6001915050611d03565b60ff841115611c8757611c86611b71565b5b8360020a915084821115611c9e57611c9d611b71565b5b50611d03565b5060208310610133831016604e8410600b8410161715611cd95782820a905083811115611cd457611cd3611b71565b5b611d03565b611ce68484846001611be4565b92509050818404811115611cfd57611cfc611b71565b5b81810290505b9392505050565b6000611d1582611957565b9150611d2083611920565b9250611d4d7fffffffffffffffffffffffffffffffffffffffffffffffffffffffffffffffff8484611c37565b905092915050565b7f4e487b7100000000000000000000000000000000000000000000000000000000600052601260045260246000fd5b6000611d8f82611957565b9150611d9a83611957565b925082611daa57611da9611d55565b5b828204905092915050565b6000611dc082611957565b9150611dcb83611957565b9250817fffffffffffffffffffffffffffffffffffffffffffffffffffffffffffffffff0483118215151615611e0457611e03611b71565b5b828202905092915050565b6000611e1a82611957565b9150611e2583611957565b925082821015611e3857611e37611b71565b5b828203905092915050565b6000608082019050611e586000830187611961565b611e656020830186611961565b611e726040830185611961565b611e7f6060830184611961565b95945050505050565b600081519050611e97816119ee565b92915050565b60008060408385031215611eb457611eb361198b565b5b6000611ec285828601611e88565b9250506020611ed385828601611e88565b9150509250929050565b6000611ee882611957565b9150611ef383611957565b925082611f0357611f02611d55565b5b828206905092915050565b6000611f1982611957565b9150611f2483611957565b9250827fffffffffffffffffffffffffffffffffffffffffffffffffffffffffffffffff03821115611f5957611f58611b71565b5b828201905092915050565b600082825260208201905092915050565b7f457863656564204d617820537570706c79000000000000000000000000000000600082015250565b6000611fab601183611f64565b9150611fb682611f75565b602082019050919050565b60006020820190508181036000830152611fda81611f9e565b9050919050565b600081519050919050565b60005b8381101561200a578082015181840152602081019050611fef565b83811115612019576000848401525b50505050565b6000601f19601f8301169050919050565b600061203b82611fe1565b6120458185611f64565b9350612055818560208601611fec565b61205e8161201f565b840191505092915050565b600060408201905081810360008301526120838185612030565b90506120926020830184611961565b9392505050565b600060208201905081810360008301526120b38184612030565b905092915050565b7f4e487b7100000000000000000000000000000000000000000000000000000000600052605160045260246000fdfea264697066735822122085c7fd96c9231075b37e758f25f724255ce4963b8fd8bd26c05a87159b0556d564736f6c634300080e0033",
  "linkReferences": {},
  "deployedLinkReferences": {}
}