{
  "_format": "hh-sol-artifact-1",
  "contractName": "SimpleInterestActivity",
  "sourceName": "contracts/SimpleInterestActivity.sol",
  "abi": [
    {
      "inputs": [
        {
          "internalType": "address",
          "name": "_analyticMath",
          "type": "address"
        }
      ],
      "stateMutability": "nonpayable",
      "type": "constructor"
    },
    {
      "inputs": [],
      "name": "DECIMALS",
      "outputs": [
        {
          "internalType": "uint8",
          "name": "",
          "type": "uint8"
        }
      ],
      "stateMutability": "view",
      "type": "function"
    },
    {
      "inputs": [],
      "name": "INITIAL_SUPPLY",
      "outputs": [
        {
          "internalType": "uint256",
          "name": "",
          "type": "uint256"
        }
      ],
      "stateMutability": "view",
      "type": "function"
    },
    {
      "inputs": [],
      "name": "MAX_SUPPLY",
      "outputs": [
        {
          "internalType": "uint256",
          "name": "",
          "type": "uint256"
        }
      ],
      "stateMutability": "view",
      "type": "function"
    },
    {
      "inputs": [
        {
          "internalType": "address",
          "name": "account",
          "type": "address"
        }
      ],
      "name": "balance",
      "outputs": [
        {
          "internalType": "uint256",
          "name": "",
          "type": "uint256"
        }
      ],
      "stateMutability": "view",
      "type": "function"
    },
    {
      "inputs": [
        {
          "internalType": "address",
          "name": "from",
          "type": "address"
        },
        {
          "internalType": "uint256",
          "name": "amount",
          "type": "uint256"
        }
      ],
      "name": "burn",
      "outputs": [],
      "stateMutability": "nonpayable",
      "type": "function"
    },
    {
      "inputs": [],
      "name": "checkForConsistency",
      "outputs": [
        {
          "internalType": "uint256",
          "name": "collective",
          "type": "uint256"
        },
        {
          "internalType": "uint256",
          "name": "marginal",
          "type": "uint256"
        },
        {
          "internalType": "uint256",
          "name": "abs_error",
          "type": "uint256"
        },
        {
          "internalType": "uint256",
          "name": "rel_error",
          "type": "uint256"
        },
        {
          "internalType": "uint256",
          "name": "solidityTruth",
          "type": "uint256"
        },
        {
          "internalType": "uint256",
          "name": "blockNo",
          "type": "uint256"
        }
      ],
      "stateMutability": "view",
      "type": "function"
    },
    {
      "inputs": [],
      "name": "getTotalState",
      "outputs": [
        {
          "internalType": "uint256",
          "name": "totalBalance",
          "type": "uint256"
        },
        {
          "internalType": "uint256",
          "name": "_lastNet",
          "type": "uint256"
        },
        {
          "internalType": "uint256",
          "name": "_VIRTUAL",
          "type": "uint256"
        },
        {
          "internalType": "uint256",
          "name": "blocks",
          "type": "uint256"
        },
        {
          "internalType": "uint256",
          "name": "_totalPendingReward",
          "type": "uint256"
        },
        {
          "internalType": "uint256",
          "name": "_burnDone",
          "type": "uint256"
        }
      ],
      "stateMutability": "view",
      "type": "function"
    },
    {
      "inputs": [
        {
          "internalType": "address",
          "name": "user",
          "type": "address"
        }
      ],
      "name": "getUserState",
      "outputs": [
        {
          "internalType": "uint256",
          "name": "_share",
          "type": "uint256"
        },
        {
          "internalType": "uint256",
          "name": "_VIRTUAL",
          "type": "uint256"
        },
        {
          "internalType": "uint256",
          "name": "blocks",
          "type": "uint256"
        },
        {
          "internalType": "uint256",
          "name": "_userPendingReward",
          "type": "uint256"
        },
        {
          "internalType": "uint256",
          "name": "_latestBlock",
          "type": "uint256"
        }
      ],
      "stateMutability": "view",
      "type": "function"
    },
    {
      "inputs": [],
      "name": "internals",
      "outputs": [
        {
          "internalType": "uint256",
          "name": "_initBlock",
          "type": "uint256"
        },
        {
          "internalType": "uint256",
          "name": "_rate",
          "type": "uint256"
        },
        {
          "internalType": "uint256",
          "name": "_scale",
          "type": "uint256"
        },
        {
          "internalType": "uint256",
          "name": "_cycle",
          "type": "uint256"
        },
        {
          "internalType": "uint256",
          "name": "_init_supply",
          "type": "uint256"
        }
      ],
      "stateMutability": "view",
      "type": "function"
    },
    {
      "inputs": [
        {
          "internalType": "address",
          "name": "to",
          "type": "address"
        },
        {
          "internalType": "uint256",
          "name": "amount",
          "type": "uint256"
        }
      ],
      "name": "mint",
      "outputs": [],
      "stateMutability": "nonpayable",
      "type": "function"
    },
    {
      "inputs": [
        {
          "internalType": "address",
          "name": "user",
          "type": "address"
        }
      ],
      "name": "pending",
      "outputs": [
        {
          "internalType": "uint256",
          "name": "pending",
          "type": "uint256"
        }
      ],
      "stateMutability": "view",
      "type": "function"
    },
    {
      "inputs": [],
      "name": "totalBalance",
      "outputs": [
        {
          "internalType": "uint256",
          "name": "",
          "type": "uint256"
        }
      ],
      "stateMutability": "view",
      "type": "function"
    },
    {
      "inputs": [],
      "name": "totalPending",
      "outputs": [
        {
          "internalType": "uint256",
          "name": "pending",
          "type": "uint256"
        }
      ],
      "stateMutability": "view",
      "type": "function"
    },
    {
      "inputs": [
        {
          "internalType": "address",
          "name": "recipient",
          "type": "address"
        },
        {
          "internalType": "uint256",
          "name": "amount",
          "type": "uint256"
        }
      ],
      "name": "transfer",
      "outputs": [
        {
          "internalType": "bool",
          "name": "",
          "type": "bool"
        }
      ],
      "stateMutability": "nonpayable",
      "type": "function"
    }
  ],
  "bytecode": "0x60806040523480156200001157600080fd5b5060405162002b0a38038062002b0a833981810160405281019062000037919062000930565b80600b60006101000a81548173ffffffffffffffffffffffffffffffffffffffff021916908373ffffffffffffffffffffffffffffffffffffffff160217905550436002819055507370997970c51812dc3a010c7d01b50e0d17dc79c8600560006101000a81548173ffffffffffffffffffffffffffffffffffffffff021916908373ffffffffffffffffffffffffffffffffffffffff160217905550733c44cdddb6a900fa2b585dd299e03d12fa4293bc600660006101000a81548173ffffffffffffffffffffffffffffffffffffffff021916908373ffffffffffffffffffffffffffffffffffffffff1602179055507390f79bf6eb2c4f870365e785982e1f101e93b906600760006101000a81548173ffffffffffffffffffffffffffffffffffffffff021916908373ffffffffffffffffffffffffffffffffffffffff16021790555033600460006101000a81548173ffffffffffffffffffffffffffffffffffffffff021916908373ffffffffffffffffffffffffffffffffffffffff1602179055506200021e600460009054906101000a900473ffffffffffffffffffffffffffffffffffffffff16600360096012620001f891906200099e565b600a62000206919062000b3a565b62000212919062000bba565b6200029c60201b60201c565b620002956040518060400160405280601781526020017f496e697461696c206d696e7420746f204f776e65723a200000000000000000008152506003600960126200026a91906200099e565b600a62000278919062000b3a565b62000284919062000bba565b6200038860201b62000a241760201c565b5062000e27565b600073ffffffffffffffffffffffffffffffffffffffff168273ffffffffffffffffffffffffffffffffffffffff1614156040518060400160405280600c81526020017f5a65726f206164647265737300000000000000000000000000000000000000008152509062000347576040517f08c379a00000000000000000000000000000000000000000000000000000000081526004016200033e919062000c96565b60405180910390fd5b506200035c600083836200042e60201b60201c565b62000370828260016200043360201b60201c565b62000384600083836200076760201b60201c565b5050565b6200042a8282604051602401620003a192919062000ccb565b6040516020818303038152906040527fb60e72cc000000000000000000000000000000000000000000000000000000007bffffffffffffffffffffffffffffffffffffffffffffffffffffffff19166020820180517bffffffffffffffffffffffffffffffffffffffffffffffffffffffff83818316178352505050506200076c60201b60201c565b5050565b505050565b600360008473ffffffffffffffffffffffffffffffffffffffff1673ffffffffffffffffffffffffffffffffffffffff168152602001908152602001600020600101546000808573ffffffffffffffffffffffffffffffffffffffff1673ffffffffffffffffffffffffffffffffffffffff16815260200190815260200160002054620004c1919062000cff565b60086000828254620004d4919062000d60565b925050819055506000620004ee846200079560201b60201c565b90506000811115620005715780600360008673ffffffffffffffffffffffffffffffffffffffff1673ffffffffffffffffffffffffffffffffffffffff16815260200190815260200160002060000160008282546200054e919062000d9b565b92505081905550806009600082825462000569919062000d9b565b925050819055505b6002544362000581919062000d60565b600360008673ffffffffffffffffffffffffffffffffffffffff1673ffffffffffffffffffffffffffffffffffffffff1681526020019081526020016000206001018190555081156200064657826000808673ffffffffffffffffffffffffffffffffffffffff1673ffffffffffffffffffffffffffffffffffffffff16815260200190815260200160002060008282546200061e919062000d9b565b92505081905550826001600082825462000639919062000d9b565b92505081905550620006b9565b826000808673ffffffffffffffffffffffffffffffffffffffff1673ffffffffffffffffffffffffffffffffffffffff168152602001908152602001600020600082825462000696919062000d60565b925050819055508260016000828254620006b1919062000d60565b925050819055505b600360008573ffffffffffffffffffffffffffffffffffffffff1673ffffffffffffffffffffffffffffffffffffffff168152602001908152602001600020600101546000808673ffffffffffffffffffffffffffffffffffffffff1673ffffffffffffffffffffffffffffffffffffffff1681526020019081526020016000205462000747919062000cff565b600860008282546200075a919062000d9b565b9250508190555050505050565b505050565b62000792816200078d6200088560201b62000ac017620008a660201b60201c565b60201c565b50565b600080600360008473ffffffffffffffffffffffffffffffffffffffff1673ffffffffffffffffffffffffffffffffffffffff1681526020019081526020016000206001015460025443620007eb919062000d60565b620007f7919062000d60565b905060008111156200087f57600a620f4240826101da6000808873ffffffffffffffffffffffffffffffffffffffff1673ffffffffffffffffffffffffffffffffffffffff1681526020019081526020016000205462000858919062000cff565b62000864919062000cff565b62000870919062000bba565b6200087c919062000bba565b91505b50919050565b60006a636f6e736f6c652e6c6f679050600080835160208501845afa505050565b620008ba60201b6200159417819050919050565b620008c462000df8565b565b600080fd5b600073ffffffffffffffffffffffffffffffffffffffff82169050919050565b6000620008f882620008cb565b9050919050565b6200090a81620008eb565b81146200091657600080fd5b50565b6000815190506200092a81620008ff565b92915050565b600060208284031215620009495762000948620008c6565b5b6000620009598482850162000919565b91505092915050565b600060ff82169050919050565b7f4e487b7100000000000000000000000000000000000000000000000000000000600052601160045260246000fd5b6000620009ab8262000962565b9150620009b88362000962565b92508260ff03821115620009d157620009d06200096f565b5b828201905092915050565b60008160011c9050919050565b6000808291508390505b600185111562000a3b5780860481111562000a135762000a126200096f565b5b600185161562000a235780820291505b808102905062000a3385620009dc565b9450620009f3565b94509492505050565b60008262000a56576001905062000b29565b8162000a66576000905062000b29565b816001811462000a7f576002811462000a8a5762000ac0565b600191505062000b29565b60ff84111562000a9f5762000a9e6200096f565b5b8360020a91508482111562000ab95762000ab86200096f565b5b5062000b29565b5060208310610133831016604e8410600b841016171562000afa5782820a90508381111562000af45762000af36200096f565b5b62000b29565b62000b098484846001620009e9565b9250905081840481111562000b235762000b226200096f565b5b81810290505b9392505050565b6000819050919050565b600062000b478262000b30565b915062000b548362000962565b925062000b837fffffffffffffffffffffffffffffffffffffffffffffffffffffffffffffffff848462000a44565b905092915050565b7f4e487b7100000000000000000000000000000000000000000000000000000000600052601260045260246000fd5b600062000bc78262000b30565b915062000bd48362000b30565b92508262000be75762000be662000b8b565b5b828204905092915050565b600081519050919050565b600082825260208201905092915050565b60005b8381101562000c2e57808201518184015260208101905062000c11565b8381111562000c3e576000848401525b50505050565b6000601f19601f8301169050919050565b600062000c628262000bf2565b62000c6e818562000bfd565b935062000c8081856020860162000c0e565b62000c8b8162000c44565b840191505092915050565b6000602082019050818103600083015262000cb2818462000c55565b905092915050565b62000cc58162000b30565b82525050565b6000604082019050818103600083015262000ce7818562000c55565b905062000cf8602083018462000cba565b9392505050565b600062000d0c8262000b30565b915062000d198362000b30565b9250817fffffffffffffffffffffffffffffffffffffffffffffffffffffffffffffffff048311821515161562000d555762000d546200096f565b5b828202905092915050565b600062000d6d8262000b30565b915062000d7a8362000b30565b92508282101562000d905762000d8f6200096f565b5b828203905092915050565b600062000da88262000b30565b915062000db58362000b30565b9250827fffffffffffffffffffffffffffffffffffffffffffffffffffffffffffffffff0382111562000ded5762000dec6200096f565b5b828201905092915050565b7f4e487b7100000000000000000000000000000000000000000000000000000000600052605160045260246000fd5b611cd38062000e376000396000f3fe608060405234801561001057600080fd5b50600436106100ea5760003560e01c8063739572891161008c578063ad7a672f11610066578063ad7a672f14610256578063bdfeb1e514610274578063df94cf1d14610297578063e3d670d7146102b9576100ea565b806373957289146101e75780639dc29fac1461020a578063a9059cbb14610226576100ea565b80633f90916a116100c85780633f90916a1461014957806340c10f1914610167578063416ae768146101835780635eebea20146101b7576100ea565b80632e0f2625146100ef5780632ff2e9dc1461010d57806332cb6b0c1461012b575b600080fd5b6100f76102e9565b60405161010491906115ba565b60405180910390f35b6101156102ee565b60405161012291906115ee565b60405180910390f35b610133610317565b60405161014091906115ee565b60405180910390f35b61015161034c565b60405161015e91906115ee565b60405180910390f35b610181600480360381019061017c9190611698565b6103a7565b005b61019d600480360381019061019891906116d8565b61043b565b6040516101ae959493929190611705565b60405180910390f35b6101d160048036038101906101cc91906116d8565b6104f1565b6040516101de91906115ee565b60405180910390f35b6101ef6105d4565b60405161020196959493929190611758565b60405180910390f35b610224600480360381019061021f9190611698565b61095e565b005b610240600480360381019061023b9190611698565b61096c565b60405161024d91906117d4565b60405180910390f35b61025e610983565b60405161026b91906115ee565b60405180910390f35b61027c610992565b60405161028e96959493929190611758565b60405180910390f35b61029f6109c7565b6040516102b0959493929190611705565b60405180910390f35b6102d360048036038101906102ce91906116d8565b610a12565b6040516102e091906115ee565b60405180910390f35b601281565b6003600960126102fe919061181e565b600a61030a9190611988565b6103149190611a02565b81565b600360096012610327919061181e565b600a6103339190611988565b61033d9190611a02565b60646103499190611a33565b81565b6000806002544361035d9190611a8d565b9050600a620f42406101da600854846001546103799190611a33565b6103839190611a8d565b61038d9190611a33565b6103979190611a02565b6103a19190611a02565b91505090565b6003600960126103b7919061181e565b600a6103c39190611988565b6103cd9190611a02565b60646103d99190611a33565b816103e2610ae1565b6103ec9190611ac1565b111561042d576040517f08c379a000000000000000000000000000000000000000000000000000000000815260040161042490611b74565b60405180910390fd5b6104378282610aeb565b5050565b60008060008060008060008773ffffffffffffffffffffffffffffffffffffffff1673ffffffffffffffffffffffffffffffffffffffff16815260200190815260200160002054945060009350600254436104969190611a8d565b92506104a1866104f1565b9150600360008773ffffffffffffffffffffffffffffffffffffffff1673ffffffffffffffffffffffffffffffffffffffff16815260200190815260200160002060010154905091939590929450565b600080600360008473ffffffffffffffffffffffffffffffffffffffff1673ffffffffffffffffffffffffffffffffffffffff16815260200190815260200160002060010154600254436105459190611a8d565b61054f9190611a8d565b905060008111156105ce57600a620f4240826101da6000808873ffffffffffffffffffffffffffffffffffffffff1673ffffffffffffffffffffffffffffffffffffffff168152602001908152602001600020546105ad9190611a33565b6105b79190611a33565b6105c19190611a02565b6105cb9190611a02565b91505b50919050565b6000806000806000806105e561034c565b6009546105f29190611ac1565b955061061f600460009054906101000a900473ffffffffffffffffffffffffffffffffffffffff166104f1565b60036000600460009054906101000a900473ffffffffffffffffffffffffffffffffffffffff1673ffffffffffffffffffffffffffffffffffffffff1673ffffffffffffffffffffffffffffffffffffffff1681526020019081526020016000206000015461068e9190611ac1565b856106999190611ac1565b94506106c6600560009054906101000a900473ffffffffffffffffffffffffffffffffffffffff166104f1565b60036000600560009054906101000a900473ffffffffffffffffffffffffffffffffffffffff1673ffffffffffffffffffffffffffffffffffffffff1673ffffffffffffffffffffffffffffffffffffffff168152602001908152602001600020600001546107359190611ac1565b856107409190611ac1565b945061076d600660009054906101000a900473ffffffffffffffffffffffffffffffffffffffff166104f1565b60036000600660009054906101000a900473ffffffffffffffffffffffffffffffffffffffff1673ffffffffffffffffffffffffffffffffffffffff1673ffffffffffffffffffffffffffffffffffffffff168152602001908152602001600020600001546107dc9190611ac1565b856107e79190611ac1565b9450610814600760009054906101000a900473ffffffffffffffffffffffffffffffffffffffff166104f1565b60036000600760009054906101000a900473ffffffffffffffffffffffffffffffffffffffff1673ffffffffffffffffffffffffffffffffffffffff1673ffffffffffffffffffffffffffffffffffffffff168152602001908152602001600020600001546108839190611ac1565b8561088e9190611ac1565b94506000858710156108b05786866108a69190611a8d565b94508590506108c2565b85876108bc9190611a8d565b94508690505b60008111156108f15785856b033b2e3c9fd0803ce80000006108e49190611a33565b6108ee9190611a02565b93505b6000600254436109019190611a8d565b905061094f600360096012610916919061181e565b600a6109229190611988565b61092c9190611a02565b826101da61093a9190611a33565b600a620f424061094a9190611a33565b610bbc565b93504392505050909192939495565b6109688282610bfe565b5050565b6000610979338484610d59565b6001905092915050565b600061098d610ae1565b905090565b60008060008060008060015495506008549350600254436109b39190611a8d565b92506109bd61034c565b9150909192939495565b600080600080600060025494506101da9350620f42409250600a91506003600960126109f3919061181e565b600a6109ff9190611988565b610a099190611a02565b90509091929394565b6000610a1d82610f68565b9050919050565b610abc8282604051602401610a3a929190611c1c565b6040516020818303038152906040527fb60e72cc000000000000000000000000000000000000000000000000000000007bffffffffffffffffffffffffffffffffffffffffffffffffffffffff19166020820180517bffffffffffffffffffffffffffffffffffffffffffffffffffffffff8381831617835250505050610fb0565b5050565b60006a636f6e736f6c652e6c6f679050600080835160208501845afa505050565b6000600154905090565b600073ffffffffffffffffffffffffffffffffffffffff168273ffffffffffffffffffffffffffffffffffffffff1614156040518060400160405280600c81526020017f5a65726f2061646472657373000000000000000000000000000000000000000081525090610b93576040517f08c379a0000000000000000000000000000000000000000000000000000000008152600401610b8a9190611c4c565b60405180910390fd5b50610ba060008383610fca565b610bac82826001610fcf565b610bb8600083836112e2565b5050565b600080610bca8585856112e7565b90506000610bd98686866113cc565b1115610bf257610bea8160016113e9565b915050610bf7565b809150505b9392505050565b600073ffffffffffffffffffffffffffffffffffffffff168273ffffffffffffffffffffffffffffffffffffffff1614156040518060400160405280600c81526020017f5a65726f2061646472657373000000000000000000000000000000000000000081525090610ca6576040517f08c379a0000000000000000000000000000000000000000000000000000000008152600401610c9d9190611c4c565b60405180910390fd5b506000610cb283610f68565b9050818110156040518060400160405280600f81526020017f457863656564732062616c616e6365000000000000000000000000000000000081525090610d2f576040517f08c379a0000000000000000000000000000000000000000000000000000000008152600401610d269190611c4c565b60405180910390fd5b50610d3c83600084610fca565b610d4883836000610fcf565b610d54836000846112e2565b505050565b600073ffffffffffffffffffffffffffffffffffffffff168373ffffffffffffffffffffffffffffffffffffffff1614156040518060400160405280600c81526020017f5a65726f2061646472657373000000000000000000000000000000000000000081525090610e01576040517f08c379a0000000000000000000000000000000000000000000000000000000008152600401610df89190611c4c565b60405180910390fd5b50600073ffffffffffffffffffffffffffffffffffffffff168273ffffffffffffffffffffffffffffffffffffffff1614156040518060400160405280600c81526020017f5a65726f2061646472657373000000000000000000000000000000000000000081525090610eaa576040517f08c379a0000000000000000000000000000000000000000000000000000000008152600401610ea19190611c4c565b60405180910390fd5b506000610eb684610f68565b9050818110156040518060400160405280600f81526020017f457863656564732062616c616e6365000000000000000000000000000000000081525090610f33576040517f08c379a0000000000000000000000000000000000000000000000000000000008152600401610f2a9190611c4c565b60405180910390fd5b50610f3f848484610fca565b610f4b84836000610fcf565b610f5783836001610fcf565b610f628484846112e2565b50505050565b60008060008373ffffffffffffffffffffffffffffffffffffffff1673ffffffffffffffffffffffffffffffffffffffff168152602001908152602001600020549050919050565b610fc781610fbf610ac06113ff565b63ffffffff16565b50565b505050565b600360008473ffffffffffffffffffffffffffffffffffffffff1673ffffffffffffffffffffffffffffffffffffffff168152602001908152602001600020600101546000808573ffffffffffffffffffffffffffffffffffffffff1673ffffffffffffffffffffffffffffffffffffffff1681526020019081526020016000205461105b9190611a33565b6008600082825461106c9190611a8d565b92505081905550600061107e846104f1565b905060008111156110fc5780600360008673ffffffffffffffffffffffffffffffffffffffff1673ffffffffffffffffffffffffffffffffffffffff16815260200190815260200160002060000160008282546110db9190611ac1565b9250508190555080600960008282546110f49190611ac1565b925050819055505b6002544361110a9190611a8d565b600360008673ffffffffffffffffffffffffffffffffffffffff1673ffffffffffffffffffffffffffffffffffffffff1681526020019081526020016000206001018190555081156111c957826000808673ffffffffffffffffffffffffffffffffffffffff1673ffffffffffffffffffffffffffffffffffffffff16815260200190815260200160002060008282546111a49190611ac1565b9250508190555082600160008282546111bd9190611ac1565b92505081905550611238565b826000808673ffffffffffffffffffffffffffffffffffffffff1673ffffffffffffffffffffffffffffffffffffffff16815260200190815260200160002060008282546112179190611a8d565b9250508190555082600160008282546112309190611a8d565b925050819055505b600360008573ffffffffffffffffffffffffffffffffffffffff1673ffffffffffffffffffffffffffffffffffffffff168152602001908152602001600020600101546000808673ffffffffffffffffffffffffffffffffffffffff1673ffffffffffffffffffffffffffffffffffffffff168152602001908152602001600020546112c49190611a33565b600860008282546112d59190611ac1565b9250508190555050505050565b505050565b60008060006112f6868661140a565b915091506000820361131c57838181611312576113116119d3565b5b04925050506113c5565b838210156113c05760006113318787876113cc565b905060008061134185858561145b565b915091506000820361136a5786818161135d5761135c6119d3565b5b04955050505050506113c5565b60008761137860008a61148d565b16905060006113888484846114a3565b905060006113a5838b8161139f5761139e6119d3565b5b046114f3565b90506113b1828261153a565b985050505050505050506113c5565b600080fd5b9392505050565b600081806113dd576113dc6119d3565b5b83850990509392505050565b600081836113f79190611ac1565b905092915050565b611594819050919050565b60008060006114198585611550565b90506000611427868661153a565b905080821061143f5780820381935093505050611454565b600161144b838361148d565b03819350935050505b9250929050565b600080828410611472578483850391509150611485565b60018503611480858561148d565b915091505b935093915050565b6000818361149b9190611a8d565b905092915050565b6000806114cb836114b560008661148d565b816114c3576114c26119d3565b5b04600161158c565b90508284816114dd576114dc6119d3565b5b046114e8868361153a565b179150509392505050565b6000806001905060005b6008811015611530576115238261151e6002611519868961153a565b61148d565b61153a565b91508060010190506114fd565b5080915050919050565b600081836115489190611a33565b905092915050565b60007fffffffffffffffffffffffffffffffffffffffffffffffffffffffffffffffff80611581576115806119d3565b5b828409905092915050565b600092915050565b61159c611c6e565b565b600060ff82169050919050565b6115b48161159e565b82525050565b60006020820190506115cf60008301846115ab565b92915050565b6000819050919050565b6115e8816115d5565b82525050565b600060208201905061160360008301846115df565b92915050565b600080fd5b600073ffffffffffffffffffffffffffffffffffffffff82169050919050565b60006116398261160e565b9050919050565b6116498161162e565b811461165457600080fd5b50565b60008135905061166681611640565b92915050565b611675816115d5565b811461168057600080fd5b50565b6000813590506116928161166c565b92915050565b600080604083850312156116af576116ae611609565b5b60006116bd85828601611657565b92505060206116ce85828601611683565b9150509250929050565b6000602082840312156116ee576116ed611609565b5b60006116fc84828501611657565b91505092915050565b600060a08201905061171a60008301886115df565b61172760208301876115df565b61173460408301866115df565b61174160608301856115df565b61174e60808301846115df565b9695505050505050565b600060c08201905061176d60008301896115df565b61177a60208301886115df565b61178760408301876115df565b61179460608301866115df565b6117a160808301856115df565b6117ae60a08301846115df565b979650505050505050565b60008115159050919050565b6117ce816117b9565b82525050565b60006020820190506117e960008301846117c5565b92915050565b7f4e487b7100000000000000000000000000000000000000000000000000000000600052601160045260246000fd5b60006118298261159e565b91506118348361159e565b92508260ff0382111561184a576118496117ef565b5b828201905092915050565b60008160011c9050919050565b6000808291508390505b60018511156118ac57808604811115611888576118876117ef565b5b60018516156118975780820291505b80810290506118a585611855565b945061186c565b94509492505050565b6000826118c55760019050611981565b816118d35760009050611981565b81600181146118e957600281146118f357611922565b6001915050611981565b60ff841115611905576119046117ef565b5b8360020a91508482111561191c5761191b6117ef565b5b50611981565b5060208310610133831016604e8410600b84101617156119575782820a905083811115611952576119516117ef565b5b611981565b6119648484846001611862565b9250905081840481111561197b5761197a6117ef565b5b81810290505b9392505050565b6000611993826115d5565b915061199e8361159e565b92506119cb7fffffffffffffffffffffffffffffffffffffffffffffffffffffffffffffffff84846118b5565b905092915050565b7f4e487b7100000000000000000000000000000000000000000000000000000000600052601260045260246000fd5b6000611a0d826115d5565b9150611a18836115d5565b925082611a2857611a276119d3565b5b828204905092915050565b6000611a3e826115d5565b9150611a49836115d5565b9250817fffffffffffffffffffffffffffffffffffffffffffffffffffffffffffffffff0483118215151615611a8257611a816117ef565b5b828202905092915050565b6000611a98826115d5565b9150611aa3836115d5565b925082821015611ab657611ab56117ef565b5b828203905092915050565b6000611acc826115d5565b9150611ad7836115d5565b9250827fffffffffffffffffffffffffffffffffffffffffffffffffffffffffffffffff03821115611b0c57611b0b6117ef565b5b828201905092915050565b600082825260208201905092915050565b7f457863656564204d617820537570706c79000000000000000000000000000000600082015250565b6000611b5e601183611b17565b9150611b6982611b28565b602082019050919050565b60006020820190508181036000830152611b8d81611b51565b9050919050565b600081519050919050565b60005b83811015611bbd578082015181840152602081019050611ba2565b83811115611bcc576000848401525b50505050565b6000601f19601f8301169050919050565b6000611bee82611b94565b611bf88185611b17565b9350611c08818560208601611b9f565b611c1181611bd2565b840191505092915050565b60006040820190508181036000830152611c368185611be3565b9050611c4560208301846115df565b9392505050565b60006020820190508181036000830152611c668184611be3565b905092915050565b7f4e487b7100000000000000000000000000000000000000000000000000000000600052605160045260246000fdfea26469706673582212207a90194578b7313d7727a275d52885e7069a9bb1764d35f6ff65cea4e91bbaa064736f6c634300080e0033",
  "linkReferences": {},
  "deployedLinkReferences": {}
}