{
  "_format": "hh-sol-artifact-1",
  "contractName": "SimpleBurnPendencyRandom",
  "sourceName": "contracts/SimpleBurnPendencyRandom.sol",
  "abi": [
    {
      "inputs": [
        {
          "internalType": "address",
          "name": "_analyticMath",
          "type": "address"
        }
      ],
      "stateMutability": "nonpayable",
      "type": "constructor"
    },
    {
      "inputs": [],
      "name": "DECIMALS",
      "outputs": [
        {
          "internalType": "uint8",
          "name": "",
          "type": "uint8"
        }
      ],
      "stateMutability": "view",
      "type": "function"
    },
    {
      "inputs": [],
      "name": "INITIAL_SUPPLY",
      "outputs": [
        {
          "internalType": "uint256",
          "name": "",
          "type": "uint256"
        }
      ],
      "stateMutability": "view",
      "type": "function"
    },
    {
      "inputs": [],
      "name": "MAX_SUPPLY",
      "outputs": [
        {
          "internalType": "uint256",
          "name": "",
          "type": "uint256"
        }
      ],
      "stateMutability": "view",
      "type": "function"
    },
    {
      "inputs": [
        {
          "internalType": "address",
          "name": "account",
          "type": "address"
        }
      ],
      "name": "balance",
      "outputs": [
        {
          "internalType": "uint256",
          "name": "",
          "type": "uint256"
        }
      ],
      "stateMutability": "view",
      "type": "function"
    },
    {
      "inputs": [
        {
          "internalType": "address",
          "name": "from",
          "type": "address"
        },
        {
          "internalType": "uint256",
          "name": "amount",
          "type": "uint256"
        }
      ],
      "name": "burn",
      "outputs": [],
      "stateMutability": "nonpayable",
      "type": "function"
    },
    {
      "inputs": [],
      "name": "checkForConsistency",
      "outputs": [
        {
          "internalType": "uint256",
          "name": "collective",
          "type": "uint256"
        },
        {
          "internalType": "uint256",
          "name": "marginal",
          "type": "uint256"
        },
        {
          "internalType": "uint256",
          "name": "abs_error",
          "type": "uint256"
        },
        {
          "internalType": "uint256",
          "name": "rel_error",
          "type": "uint256"
        },
        {
          "internalType": "uint256",
          "name": "solidityTruth",
          "type": "uint256"
        },
        {
          "internalType": "uint256",
          "name": "blockNo",
          "type": "uint256"
        }
      ],
      "stateMutability": "view",
      "type": "function"
    },
    {
      "inputs": [],
      "name": "getTotalState",
      "outputs": [
        {
          "internalType": "uint256",
          "name": "totalBalance",
          "type": "uint256"
        },
        {
          "internalType": "uint256",
          "name": "_latestBlock",
          "type": "uint256"
        },
        {
          "internalType": "uint256",
          "name": "_accRewardPerShare12",
          "type": "uint256"
        },
        {
          "internalType": "uint256",
          "name": "_rewordPool",
          "type": "uint256"
        },
        {
          "internalType": "uint256",
          "name": "_totalPendingReward",
          "type": "uint256"
        }
      ],
      "stateMutability": "view",
      "type": "function"
    },
    {
      "inputs": [
        {
          "internalType": "address",
          "name": "user",
          "type": "address"
        }
      ],
      "name": "getUserState",
      "outputs": [
        {
          "internalType": "uint256",
          "name": "_share",
          "type": "uint256"
        },
        {
          "internalType": "uint256",
          "name": "_reward",
          "type": "uint256"
        },
        {
          "internalType": "uint256",
          "name": "_rewardDebt",
          "type": "uint256"
        },
        {
          "internalType": "uint256",
          "name": "_userPendingReward",
          "type": "uint256"
        }
      ],
      "stateMutability": "view",
      "type": "function"
    },
    {
      "inputs": [],
      "name": "internals",
      "outputs": [
        {
          "internalType": "uint256",
          "name": "_initBlock",
          "type": "uint256"
        },
        {
          "internalType": "uint256",
          "name": "_rate",
          "type": "uint256"
        },
        {
          "internalType": "uint256",
          "name": "_scale",
          "type": "uint256"
        },
        {
          "internalType": "uint256",
          "name": "_cycle",
          "type": "uint256"
        },
        {
          "internalType": "uint256",
          "name": "_init_supply",
          "type": "uint256"
        }
      ],
      "stateMutability": "view",
      "type": "function"
    },
    {
      "inputs": [
        {
          "internalType": "address",
          "name": "to",
          "type": "address"
        },
        {
          "internalType": "uint256",
          "name": "amount",
          "type": "uint256"
        }
      ],
      "name": "mint",
      "outputs": [],
      "stateMutability": "nonpayable",
      "type": "function"
    },
    {
      "inputs": [],
      "name": "pendency",
      "outputs": [
        {
          "internalType": "uint256",
          "name": "",
          "type": "uint256"
        }
      ],
      "stateMutability": "view",
      "type": "function"
    },
    {
      "inputs": [],
      "name": "totalBalance",
      "outputs": [
        {
          "internalType": "uint256",
          "name": "",
          "type": "uint256"
        }
      ],
      "stateMutability": "view",
      "type": "function"
    },
    {
      "inputs": [],
      "name": "totalPending",
      "outputs": [
        {
          "internalType": "uint256",
          "name": "pending",
          "type": "uint256"
        }
      ],
      "stateMutability": "view",
      "type": "function"
    },
    {
      "inputs": [],
      "name": "totalReward",
      "outputs": [
        {
          "internalType": "uint256",
          "name": "",
          "type": "uint256"
        }
      ],
      "stateMutability": "view",
      "type": "function"
    },
    {
      "inputs": [
        {
          "internalType": "address",
          "name": "recipient",
          "type": "address"
        },
        {
          "internalType": "uint256",
          "name": "amount",
          "type": "uint256"
        }
      ],
      "name": "transfer",
      "outputs": [
        {
          "internalType": "bool",
          "name": "",
          "type": "bool"
        }
      ],
      "stateMutability": "nonpayable",
      "type": "function"
    },
    {
      "inputs": [],
      "name": "update",
      "outputs": [],
      "stateMutability": "nonpayable",
      "type": "function"
    }
  ],
  "bytecode": "0x60806040523480156200001157600080fd5b506040516200308c3803806200308c833981810160405281019062000037919062000d70565b80600b60006101000a81548173ffffffffffffffffffffffffffffffffffffffff021916908373ffffffffffffffffffffffffffffffffffffffff160217905550436002819055507370997970c51812dc3a010c7d01b50e0d17dc79c8600860006101000a81548173ffffffffffffffffffffffffffffffffffffffff021916908373ffffffffffffffffffffffffffffffffffffffff160217905550733c44cdddb6a900fa2b585dd299e03d12fa4293bc600960006101000a81548173ffffffffffffffffffffffffffffffffffffffff021916908373ffffffffffffffffffffffffffffffffffffffff1602179055507390f79bf6eb2c4f870365e785982e1f101e93b906600a60006101000a81548173ffffffffffffffffffffffffffffffffffffffff021916908373ffffffffffffffffffffffffffffffffffffffff16021790555033600760006101000a81548173ffffffffffffffffffffffffffffffffffffffff021916908373ffffffffffffffffffffffffffffffffffffffff1602179055506200021e600760009054906101000a900473ffffffffffffffffffffffffffffffffffffffff16600360096012620001f8919062000dde565b600a62000206919062000f7a565b62000212919062000ffa565b6200029c60201b60201c565b620002956040518060400160405280601781526020017f496e697461696c206d696e7420746f204f776e65723a200000000000000000008152506003600960126200026a919062000dde565b600a62000278919062000f7a565b62000284919062000ffa565b6200038860201b62000a661760201c565b506200129f565b600073ffffffffffffffffffffffffffffffffffffffff168273ffffffffffffffffffffffffffffffffffffffff1614156040518060400160405280600c81526020017f5a65726f206164647265737300000000000000000000000000000000000000008152509062000347576040517f08c379a00000000000000000000000000000000000000000000000000000000081526004016200033e9190620010d6565b60405180910390fd5b506200035c600083836200042e60201b60201c565b62000370828260016200043360201b60201c565b62000384600083836200064160201b60201c565b5050565b6200042a8282604051602401620003a19291906200110b565b6040516020818303038152906040527fb60e72cc000000000000000000000000000000000000000000000000000000007bffffffffffffffffffffffffffffffffffffffffffffffffffffffff19166020820180517bffffffffffffffffffffffffffffffffffffffffffffffffffffffff83818316178352505050506200064660201b60201c565b5050565b505050565b620004436200066f60201b60201c565b600062000456846200076960201b60201c565b90506000811115620004f3576200047660045482620008ec60201b60201c565b60048190555080600660008673ffffffffffffffffffffffffffffffffffffffff1673ffffffffffffffffffffffffffffffffffffffff1681526020019081526020016000206000016000828254620004d091906200113f565b925050819055508060056000828254620004eb91906200113f565b925050819055505b81156200057257826000808673ffffffffffffffffffffffffffffffffffffffff1673ffffffffffffffffffffffffffffffffffffffff16815260200190815260200160002060008282546200054a91906200113f565b9250508190555082600160008282546200056591906200113f565b92505081905550620005e5565b826000808673ffffffffffffffffffffffffffffffffffffffff1673ffffffffffffffffffffffffffffffffffffffff1681526020019081526020016000206000828254620005c291906200119c565b925050819055508260016000828254620005dd91906200119c565b925050819055505b60025443620005f591906200119c565b600660008673ffffffffffffffffffffffffffffffffffffffff1673ffffffffffffffffffffffffffffffffffffffff1681526020019081526020016000206001018190555050505050565b505050565b6200066c81620006676200091860201b62000b02176200093960201b60201c565b60201c565b50565b6000600354600254436200068491906200119c565b6200069091906200119c565b905060008111156200076657600080600283620006ae9190620011d7565b03620006f657620006ee6101da600154620006ca91906200120f565b83600a620f4240620006dd91906200120f565b6200094d60201b62000b231760201c565b905062000733565b620007306101da6001546200070c91906200120f565b83600a620f42406200071f91906200120f565b62000a7960201b62000c081760201c565b90505b80600460008282546200074791906200113f565b92505081905550600254436200075e91906200119c565b600381905550505b50565b600080600660008473ffffffffffffffffffffffffffffffffffffffff1673ffffffffffffffffffffffffffffffffffffffff1681526020019081526020016000206001015460025443620007bf91906200119c565b620007cb91906200119c565b90506000811115620008e6576000600282620007e89190620011d7565b036200086c57620008646101da6000808673ffffffffffffffffffffffffffffffffffffffff1673ffffffffffffffffffffffffffffffffffffffff168152602001908152602001600020546200084091906200120f565b82600a620f42406200085391906200120f565b6200094d60201b62000b231760201c565b9150620008e5565b620008e26101da6000808673ffffffffffffffffffffffffffffffffffffffff1673ffffffffffffffffffffffffffffffffffffffff16815260200190815260200160002054620008be91906200120f565b82600a620f4240620008d191906200120f565b62000a7960201b62000c081760201c565b91505b5b50919050565b6000818311156200090d5781836200090591906200119c565b905062000912565b600090505b92915050565b60006a636f6e736f6c652e6c6f679050600080835160208501845afa505050565b62000cfa60201b6200162817819050919050565b600080600062000964868662000ad560201b60201c565b91509150600082036200098f5783818162000984576200098362000fcb565b5b049250505062000a72565b8382101562000a6d576000620009ad87878762000b4060201b60201c565b9050600080620009c585858562000b6060201b60201c565b9150915060008203620009f357868181620009e557620009e462000fcb565b5b049550505050505062000a72565b60008762000a0960008a62000b9c60201b60201c565b169050600062000a2184848462000bb460201b60201c565b9050600062000a49838b8162000a3c5762000a3b62000fcb565b5b0462000c2260201b60201c565b905062000a5d828262000c8360201b60201c565b9850505050505050505062000a72565b600080fd5b9392505050565b60008062000a8f8585856200094d60201b60201c565b9050600062000aa686868662000b4060201b60201c565b111562000ac95762000ac081600162000c9b60201b60201c565b91505062000ace565b809150505b9392505050565b600080600062000aec858562000cb360201b60201c565b9050600062000b02868662000c8360201b60201c565b905080821062000b1c578082038193509350505062000b39565b600162000b30838362000b9c60201b60201c565b03819350935050505b9250929050565b6000818062000b545762000b5362000fcb565b5b83850990509392505050565b60008082841062000b7957848385039150915062000b94565b6001850362000b8f858562000b9c60201b60201c565b915091505b935093915050565b6000818362000bac91906200119c565b905092915050565b60008062000bef8362000bcf60008662000b9c60201b60201c565b8162000be05762000bdf62000fcb565b5b04600162000cf260201b60201c565b905082848162000c045762000c0362000fcb565b5b0462000c17868362000c8360201b60201c565b179150509392505050565b6000806001905060005b600881101562000c795762000c6b8262000c5f600262000c53868962000c8360201b60201c565b62000b9c60201b60201c565b62000c8360201b60201c565b915080600101905062000c2c565b5080915050919050565b6000818362000c9391906200120f565b905092915050565b6000818362000cab91906200113f565b905092915050565b60007fffffffffffffffffffffffffffffffffffffffffffffffffffffffffffffffff8062000ce75762000ce662000fcb565b5b828409905092915050565b600092915050565b62000d0462001270565b565b600080fd5b600073ffffffffffffffffffffffffffffffffffffffff82169050919050565b600062000d388262000d0b565b9050919050565b62000d4a8162000d2b565b811462000d5657600080fd5b50565b60008151905062000d6a8162000d3f565b92915050565b60006020828403121562000d895762000d8862000d06565b5b600062000d998482850162000d59565b91505092915050565b600060ff82169050919050565b7f4e487b7100000000000000000000000000000000000000000000000000000000600052601160045260246000fd5b600062000deb8262000da2565b915062000df88362000da2565b92508260ff0382111562000e115762000e1062000daf565b5b828201905092915050565b60008160011c9050919050565b6000808291508390505b600185111562000e7b5780860481111562000e535762000e5262000daf565b5b600185161562000e635780820291505b808102905062000e738562000e1c565b945062000e33565b94509492505050565b60008262000e96576001905062000f69565b8162000ea6576000905062000f69565b816001811462000ebf576002811462000eca5762000f00565b600191505062000f69565b60ff84111562000edf5762000ede62000daf565b5b8360020a91508482111562000ef95762000ef862000daf565b5b5062000f69565b5060208310610133831016604e8410600b841016171562000f3a5782820a90508381111562000f345762000f3362000daf565b5b62000f69565b62000f49848484600162000e29565b9250905081840481111562000f635762000f6262000daf565b5b81810290505b9392505050565b6000819050919050565b600062000f878262000f70565b915062000f948362000da2565b925062000fc37fffffffffffffffffffffffffffffffffffffffffffffffffffffffffffffffff848462000e84565b905092915050565b7f4e487b7100000000000000000000000000000000000000000000000000000000600052601260045260246000fd5b6000620010078262000f70565b9150620010148362000f70565b92508262001027576200102662000fcb565b5b828204905092915050565b600081519050919050565b600082825260208201905092915050565b60005b838110156200106e57808201518184015260208101905062001051565b838111156200107e576000848401525b50505050565b6000601f19601f8301169050919050565b6000620010a28262001032565b620010ae81856200103d565b9350620010c08185602086016200104e565b620010cb8162001084565b840191505092915050565b60006020820190508181036000830152620010f2818462001095565b905092915050565b620011058162000f70565b82525050565b6000604082019050818103600083015262001127818562001095565b9050620011386020830184620010fa565b9392505050565b60006200114c8262000f70565b9150620011598362000f70565b9250827fffffffffffffffffffffffffffffffffffffffffffffffffffffffffffffffff0382111562001191576200119062000daf565b5b828201905092915050565b6000620011a98262000f70565b9150620011b68362000f70565b925082821015620011cc57620011cb62000daf565b5b828203905092915050565b6000620011e48262000f70565b9150620011f18362000f70565b92508262001204576200120362000fcb565b5b828206905092915050565b60006200121c8262000f70565b9150620012298362000f70565b9250817fffffffffffffffffffffffffffffffffffffffffffffffffffffffffffffffff048311821515161562001265576200126462000daf565b5b828202905092915050565b7f4e487b7100000000000000000000000000000000000000000000000000000000600052605160045260246000fd5b611ddd80620012af6000396000f3fe608060405234801561001057600080fd5b50600436106101005760003560e01c80639dc29fac11610097578063bdfeb1e511610066578063bdfeb1e514610281578063ddc5eddc146102a3578063df94cf1d146102c1578063e3d670d7146102e357610100565b80639dc29fac1461020d578063a2e6204514610229578063a9059cbb14610233578063ad7a672f1461026357610100565b806340c10f19116100d357806340c10f191461017d578063416ae7681461019957806373957289146101cc578063750142e6146101ef57610100565b80632e0f2625146101055780632ff2e9dc1461012357806332cb6b0c146101415780633f90916a1461015f575b600080fd5b61010d610313565b60405161011a919061164e565b60405180910390f35b61012b610318565b6040516101389190611682565b60405180910390f35b610149610341565b6040516101569190611682565b60405180910390f35b610167610376565b6040516101749190611682565b60405180910390f35b6101976004803603810190610192919061172c565b61041a565b005b6101b360048036038101906101ae919061176c565b6104ae565b6040516101c39493929190611799565b60405180910390f35b6101d461054c565b6040516101e6969594939291906117de565b60405180910390f35b6101f76108d6565b6040516102049190611682565b60405180910390f35b6102276004803603810190610222919061172c565b6108dc565b005b6102316108ea565b005b61024d6004803603810190610248919061172c565b6109b5565b60405161025a919061185a565b60405180910390f35b61026b6109cc565b6040516102789190611682565b60405180910390f35b6102896109db565b60405161029a959493929190611875565b60405180910390f35b6102ab610a03565b6040516102b89190611682565b60405180910390f35b6102c9610a09565b6040516102da959493929190611875565b60405180910390f35b6102fd60048036038101906102f8919061176c565b610a54565b60405161030a9190611682565b60405180910390f35b601281565b60036009601261032891906118f7565b600a6103349190611a61565b61033e9190611adb565b81565b60036009601261035191906118f7565b600a61035d9190611a61565b6103679190611adb565b60646103739190611b0c565b81565b600060045490506000600354600254436103909190611b66565b61039a9190611b66565b905060008111156104165760006002826103b49190611b9a565b036103e9576103e26101da6001546103cc9190611b0c565b82600a620f42406103dd9190611b0c565b610b23565b9150610415565b6104126101da6001546103fc9190611b0c565b82600a620f424061040d9190611b0c565b610c08565b91505b5b5090565b60036009601261042a91906118f7565b600a6104369190611a61565b6104409190611adb565b606461044c9190611b0c565b81610455610c4a565b61045f9190611bcb565b11156104a0576040517f08c379a000000000000000000000000000000000000000000000000000000000815260040161049790611c7e565b60405180910390fd5b6104aa8282610c54565b5050565b6000806000806000808673ffffffffffffffffffffffffffffffffffffffff1673ffffffffffffffffffffffffffffffffffffffff168152602001908152602001600020549350600660008673ffffffffffffffffffffffffffffffffffffffff1673ffffffffffffffffffffffffffffffffffffffff16815260200190815260200160002060000154925061054385610d25565b90509193509193565b60008060008060008061055d610376565b60055461056a9190611bcb565b9550610597600760009054906101000a900473ffffffffffffffffffffffffffffffffffffffff16610d25565b60066000600760009054906101000a900473ffffffffffffffffffffffffffffffffffffffff1673ffffffffffffffffffffffffffffffffffffffff1673ffffffffffffffffffffffffffffffffffffffff168152602001908152602001600020600001546106069190611bcb565b856106119190611bcb565b945061063e600860009054906101000a900473ffffffffffffffffffffffffffffffffffffffff16610d25565b60066000600860009054906101000a900473ffffffffffffffffffffffffffffffffffffffff1673ffffffffffffffffffffffffffffffffffffffff1673ffffffffffffffffffffffffffffffffffffffff168152602001908152602001600020600001546106ad9190611bcb565b856106b89190611bcb565b94506106e5600960009054906101000a900473ffffffffffffffffffffffffffffffffffffffff16610d25565b60066000600960009054906101000a900473ffffffffffffffffffffffffffffffffffffffff1673ffffffffffffffffffffffffffffffffffffffff1673ffffffffffffffffffffffffffffffffffffffff168152602001908152602001600020600001546107549190611bcb565b8561075f9190611bcb565b945061078c600a60009054906101000a900473ffffffffffffffffffffffffffffffffffffffff16610d25565b60066000600a60009054906101000a900473ffffffffffffffffffffffffffffffffffffffff1673ffffffffffffffffffffffffffffffffffffffff1673ffffffffffffffffffffffffffffffffffffffff168152602001908152602001600020600001546107fb9190611bcb565b856108069190611bcb565b945060008587101561082857868661081e9190611b66565b945085905061083a565b85876108349190611b66565b94508690505b60008111156108695785856b033b2e3c9fd0803ce800000061085c9190611b0c565b6108669190611adb565b93505b6000600254436108799190611b66565b90506108c760036009601261088e91906118f7565b600a61089a9190611a61565b6108a49190611adb565b826101da6108b29190611b0c565b600a620f42406108c29190611b0c565b610c08565b93504392505050909192939495565b60055481565b6108e68282610e7d565b5050565b6000600354600254436108fd9190611b66565b6109079190611b66565b905060008111156109b2576000806002836109229190611b9a565b03610957576109506101da60015461093a9190611b0c565b83600a620f424061094b9190611b0c565b610b23565b9050610983565b6109806101da60015461096a9190611b0c565b83600a620f424061097b9190611b0c565b610c08565b90505b80600460008282546109959190611bcb565b92505081905550600254436109aa9190611b66565b600381905550505b50565b60006109c2338484610fd8565b6001905092915050565b60006109d6610c4a565b905090565b60008060008060006001549450600354935060045491506109fa610376565b90509091929394565b60045481565b600080600080600060025494506101da9350620f42409250600a9150600360096012610a3591906118f7565b600a610a419190611a61565b610a4b9190611adb565b90509091929394565b6000610a5f826111e7565b9050919050565b610afe8282604051602401610a7c929190611d26565b6040516020818303038152906040527fb60e72cc000000000000000000000000000000000000000000000000000000007bffffffffffffffffffffffffffffffffffffffffffffffffffffffff19166020820180517bffffffffffffffffffffffffffffffffffffffffffffffffffffffff838183161783525050505061122f565b5050565b60006a636f6e736f6c652e6c6f679050600080835160208501845afa505050565b6000806000610b328686611249565b9150915060008203610b5857838181610b4e57610b4d611aac565b5b0492505050610c01565b83821015610bfc576000610b6d87878761129a565b9050600080610b7d8585856112b7565b9150915060008203610ba657868181610b9957610b98611aac565b5b0495505050505050610c01565b600087610bb460008a6112e9565b1690506000610bc48484846112ff565b90506000610be1838b81610bdb57610bda611aac565b5b0461134f565b9050610bed8282611396565b98505050505050505050610c01565b600080fd5b9392505050565b600080610c16858585610b23565b90506000610c2586868661129a565b1115610c3e57610c368160016113ac565b915050610c43565b809150505b9392505050565b6000600154905090565b600073ffffffffffffffffffffffffffffffffffffffff168273ffffffffffffffffffffffffffffffffffffffff1614156040518060400160405280600c81526020017f5a65726f2061646472657373000000000000000000000000000000000000000081525090610cfc576040517f08c379a0000000000000000000000000000000000000000000000000000000008152600401610cf39190611d56565b60405180910390fd5b50610d09600083836113c2565b610d15828260016113c7565b610d21600083836115ac565b5050565b600080600660008473ffffffffffffffffffffffffffffffffffffffff1673ffffffffffffffffffffffffffffffffffffffff1681526020019081526020016000206001015460025443610d799190611b66565b610d839190611b66565b90506000811115610e77576000600282610d9d9190611b9a565b03610e0e57610e076101da6000808673ffffffffffffffffffffffffffffffffffffffff1673ffffffffffffffffffffffffffffffffffffffff16815260200190815260200160002054610df19190611b0c565b82600a620f4240610e029190611b0c565b610b23565b9150610e76565b610e736101da6000808673ffffffffffffffffffffffffffffffffffffffff1673ffffffffffffffffffffffffffffffffffffffff16815260200190815260200160002054610e5d9190611b0c565b82600a620f4240610e6e9190611b0c565b610c08565b91505b5b50919050565b600073ffffffffffffffffffffffffffffffffffffffff168273ffffffffffffffffffffffffffffffffffffffff1614156040518060400160405280600c81526020017f5a65726f2061646472657373000000000000000000000000000000000000000081525090610f25576040517f08c379a0000000000000000000000000000000000000000000000000000000008152600401610f1c9190611d56565b60405180910390fd5b506000610f31836111e7565b9050818110156040518060400160405280600f81526020017f457863656564732062616c616e6365000000000000000000000000000000000081525090610fae576040517f08c379a0000000000000000000000000000000000000000000000000000000008152600401610fa59190611d56565b60405180910390fd5b50610fbb836000846113c2565b610fc7838360006113c7565b610fd3836000846115ac565b505050565b600073ffffffffffffffffffffffffffffffffffffffff168373ffffffffffffffffffffffffffffffffffffffff1614156040518060400160405280600c81526020017f5a65726f2061646472657373000000000000000000000000000000000000000081525090611080576040517f08c379a00000000000000000000000000000000000000000000000000000000081526004016110779190611d56565b60405180910390fd5b50600073ffffffffffffffffffffffffffffffffffffffff168273ffffffffffffffffffffffffffffffffffffffff1614156040518060400160405280600c81526020017f5a65726f2061646472657373000000000000000000000000000000000000000081525090611129576040517f08c379a00000000000000000000000000000000000000000000000000000000081526004016111209190611d56565b60405180910390fd5b506000611135846111e7565b9050818110156040518060400160405280600f81526020017f457863656564732062616c616e63650000000000000000000000000000000000815250906111b2576040517f08c379a00000000000000000000000000000000000000000000000000000000081526004016111a99190611d56565b60405180910390fd5b506111be8484846113c2565b6111ca848360006113c7565b6111d6838360016113c7565b6111e18484846115ac565b50505050565b60008060008373ffffffffffffffffffffffffffffffffffffffff1673ffffffffffffffffffffffffffffffffffffffff168152602001908152602001600020549050919050565b6112468161123e610b026115b1565b63ffffffff16565b50565b600080600061125885856115bc565b905060006112668686611396565b905080821061127e5780820381935093505050611293565b600161128a83836112e9565b03819350935050505b9250929050565b600081806112ab576112aa611aac565b5b83850990509392505050565b6000808284106112ce5784838503915091506112e1565b600185036112dc85856112e9565b915091505b935093915050565b600081836112f79190611b66565b905092915050565b600080611327836113116000866112e9565b8161131f5761131e611aac565b5b0460016115f8565b905082848161133957611338611aac565b5b046113448683611396565b179150509392505050565b6000806001905060005b600881101561138c5761137f8261137a60026113758689611396565b6112e9565b611396565b9150806001019050611359565b5080915050919050565b600081836113a49190611b0c565b905092915050565b600081836113ba9190611bcb565b905092915050565b505050565b6113cf6108ea565b60006113da84610d25565b9050600081111561146a576113f160045482611600565b60048190555080600660008673ffffffffffffffffffffffffffffffffffffffff1673ffffffffffffffffffffffffffffffffffffffff16815260200190815260200160002060000160008282546114499190611bcb565b9250508190555080600560008282546114629190611bcb565b925050819055505b81156114e357826000808673ffffffffffffffffffffffffffffffffffffffff1673ffffffffffffffffffffffffffffffffffffffff16815260200190815260200160002060008282546114be9190611bcb565b9250508190555082600160008282546114d79190611bcb565b92505081905550611552565b826000808673ffffffffffffffffffffffffffffffffffffffff1673ffffffffffffffffffffffffffffffffffffffff16815260200190815260200160002060008282546115319190611b66565b92505081905550826001600082825461154a9190611b66565b925050819055505b600254436115609190611b66565b600660008673ffffffffffffffffffffffffffffffffffffffff1673ffffffffffffffffffffffffffffffffffffffff1681526020019081526020016000206001018190555050505050565b505050565b611628819050919050565b60007fffffffffffffffffffffffffffffffffffffffffffffffffffffffffffffffff806115ed576115ec611aac565b5b828409905092915050565b600092915050565b60008183111561161d5781836116169190611b66565b9050611622565b600090505b92915050565b611630611d78565b565b600060ff82169050919050565b61164881611632565b82525050565b6000602082019050611663600083018461163f565b92915050565b6000819050919050565b61167c81611669565b82525050565b60006020820190506116976000830184611673565b92915050565b600080fd5b600073ffffffffffffffffffffffffffffffffffffffff82169050919050565b60006116cd826116a2565b9050919050565b6116dd816116c2565b81146116e857600080fd5b50565b6000813590506116fa816116d4565b92915050565b61170981611669565b811461171457600080fd5b50565b60008135905061172681611700565b92915050565b600080604083850312156117435761174261169d565b5b6000611751858286016116eb565b925050602061176285828601611717565b9150509250929050565b6000602082840312156117825761178161169d565b5b6000611790848285016116eb565b91505092915050565b60006080820190506117ae6000830187611673565b6117bb6020830186611673565b6117c86040830185611673565b6117d56060830184611673565b95945050505050565b600060c0820190506117f36000830189611673565b6118006020830188611673565b61180d6040830187611673565b61181a6060830186611673565b6118276080830185611673565b61183460a0830184611673565b979650505050505050565b60008115159050919050565b6118548161183f565b82525050565b600060208201905061186f600083018461184b565b92915050565b600060a08201905061188a6000830188611673565b6118976020830187611673565b6118a46040830186611673565b6118b16060830185611673565b6118be6080830184611673565b9695505050505050565b7f4e487b7100000000000000000000000000000000000000000000000000000000600052601160045260246000fd5b600061190282611632565b915061190d83611632565b92508260ff03821115611923576119226118c8565b5b828201905092915050565b60008160011c9050919050565b6000808291508390505b600185111561198557808604811115611961576119606118c8565b5b60018516156119705780820291505b808102905061197e8561192e565b9450611945565b94509492505050565b60008261199e5760019050611a5a565b816119ac5760009050611a5a565b81600181146119c257600281146119cc576119fb565b6001915050611a5a565b60ff8411156119de576119dd6118c8565b5b8360020a9150848211156119f5576119f46118c8565b5b50611a5a565b5060208310610133831016604e8410600b8410161715611a305782820a905083811115611a2b57611a2a6118c8565b5b611a5a565b611a3d848484600161193b565b92509050818404811115611a5457611a536118c8565b5b81810290505b9392505050565b6000611a6c82611669565b9150611a7783611632565b9250611aa47fffffffffffffffffffffffffffffffffffffffffffffffffffffffffffffffff848461198e565b905092915050565b7f4e487b7100000000000000000000000000000000000000000000000000000000600052601260045260246000fd5b6000611ae682611669565b9150611af183611669565b925082611b0157611b00611aac565b5b828204905092915050565b6000611b1782611669565b9150611b2283611669565b9250817fffffffffffffffffffffffffffffffffffffffffffffffffffffffffffffffff0483118215151615611b5b57611b5a6118c8565b5b828202905092915050565b6000611b7182611669565b9150611b7c83611669565b925082821015611b8f57611b8e6118c8565b5b828203905092915050565b6000611ba582611669565b9150611bb083611669565b925082611bc057611bbf611aac565b5b828206905092915050565b6000611bd682611669565b9150611be183611669565b9250827fffffffffffffffffffffffffffffffffffffffffffffffffffffffffffffffff03821115611c1657611c156118c8565b5b828201905092915050565b600082825260208201905092915050565b7f457863656564204d617820537570706c79000000000000000000000000000000600082015250565b6000611c68601183611c21565b9150611c7382611c32565b602082019050919050565b60006020820190508181036000830152611c9781611c5b565b9050919050565b600081519050919050565b60005b83811015611cc7578082015181840152602081019050611cac565b83811115611cd6576000848401525b50505050565b6000601f19601f8301169050919050565b6000611cf882611c9e565b611d028185611c21565b9350611d12818560208601611ca9565b611d1b81611cdc565b840191505092915050565b60006040820190508181036000830152611d408185611ced565b9050611d4f6020830184611673565b9392505050565b60006020820190508181036000830152611d708184611ced565b905092915050565b7f4e487b7100000000000000000000000000000000000000000000000000000000600052605160045260246000fdfea26469706673582212204c6270ae2b5f51dab5aea2c35c913181c0d15ffb59639f4e7bf720af77aabeba64736f6c634300080e0033",
  "linkReferences": {},
  "deployedLinkReferences": {}
}