{
  "_format": "hh-sol-artifact-1",
  "contractName": "SimpleInterestPendencyRandom",
  "sourceName": "contracts/SimpleInterestPendencyRandom.sol",
  "abi": [
    {
      "inputs": [
        {
          "internalType": "address",
          "name": "_analyticMath",
          "type": "address"
        }
      ],
      "stateMutability": "nonpayable",
      "type": "constructor"
    },
    {
      "inputs": [],
      "name": "DECIMALS",
      "outputs": [
        {
          "internalType": "uint8",
          "name": "",
          "type": "uint8"
        }
      ],
      "stateMutability": "view",
      "type": "function"
    },
    {
      "inputs": [],
      "name": "INITIAL_SUPPLY",
      "outputs": [
        {
          "internalType": "uint256",
          "name": "",
          "type": "uint256"
        }
      ],
      "stateMutability": "view",
      "type": "function"
    },
    {
      "inputs": [],
      "name": "MAX_SUPPLY",
      "outputs": [
        {
          "internalType": "uint256",
          "name": "",
          "type": "uint256"
        }
      ],
      "stateMutability": "view",
      "type": "function"
    },
    {
      "inputs": [
        {
          "internalType": "address",
          "name": "account",
          "type": "address"
        }
      ],
      "name": "balance",
      "outputs": [
        {
          "internalType": "uint256",
          "name": "",
          "type": "uint256"
        }
      ],
      "stateMutability": "view",
      "type": "function"
    },
    {
      "inputs": [
        {
          "internalType": "address",
          "name": "from",
          "type": "address"
        },
        {
          "internalType": "uint256",
          "name": "amount",
          "type": "uint256"
        }
      ],
      "name": "burn",
      "outputs": [],
      "stateMutability": "nonpayable",
      "type": "function"
    },
    {
      "inputs": [],
      "name": "checkForConsistency",
      "outputs": [
        {
          "internalType": "uint256",
          "name": "collective",
          "type": "uint256"
        },
        {
          "internalType": "uint256",
          "name": "marginal",
          "type": "uint256"
        },
        {
          "internalType": "uint256",
          "name": "abs_error",
          "type": "uint256"
        },
        {
          "internalType": "uint256",
          "name": "rel_error",
          "type": "uint256"
        },
        {
          "internalType": "uint256",
          "name": "solidityTruth",
          "type": "uint256"
        },
        {
          "internalType": "uint256",
          "name": "blockNo",
          "type": "uint256"
        }
      ],
      "stateMutability": "view",
      "type": "function"
    },
    {
      "inputs": [],
      "name": "getTotalState",
      "outputs": [
        {
          "internalType": "uint256",
          "name": "totalBalance",
          "type": "uint256"
        },
        {
          "internalType": "uint256",
          "name": "_latestBlock",
          "type": "uint256"
        },
        {
          "internalType": "uint256",
          "name": "_accRewardPerShare12",
          "type": "uint256"
        },
        {
          "internalType": "uint256",
          "name": "_rewordPool",
          "type": "uint256"
        },
        {
          "internalType": "uint256",
          "name": "_totalPendingReward",
          "type": "uint256"
        }
      ],
      "stateMutability": "view",
      "type": "function"
    },
    {
      "inputs": [
        {
          "internalType": "address",
          "name": "user",
          "type": "address"
        }
      ],
      "name": "getUserState",
      "outputs": [
        {
          "internalType": "uint256",
          "name": "_share",
          "type": "uint256"
        },
        {
          "internalType": "uint256",
          "name": "_reward",
          "type": "uint256"
        },
        {
          "internalType": "uint256",
          "name": "_rewardDebt",
          "type": "uint256"
        },
        {
          "internalType": "uint256",
          "name": "_userPendingReward",
          "type": "uint256"
        }
      ],
      "stateMutability": "view",
      "type": "function"
    },
    {
      "inputs": [],
      "name": "internals",
      "outputs": [
        {
          "internalType": "uint256",
          "name": "_initBlock",
          "type": "uint256"
        },
        {
          "internalType": "uint256",
          "name": "_rate",
          "type": "uint256"
        },
        {
          "internalType": "uint256",
          "name": "_scale",
          "type": "uint256"
        },
        {
          "internalType": "uint256",
          "name": "_cycle",
          "type": "uint256"
        },
        {
          "internalType": "uint256",
          "name": "_init_supply",
          "type": "uint256"
        }
      ],
      "stateMutability": "view",
      "type": "function"
    },
    {
      "inputs": [
        {
          "internalType": "address",
          "name": "to",
          "type": "address"
        },
        {
          "internalType": "uint256",
          "name": "amount",
          "type": "uint256"
        }
      ],
      "name": "mint",
      "outputs": [],
      "stateMutability": "nonpayable",
      "type": "function"
    },
    {
      "inputs": [],
      "name": "pendency",
      "outputs": [
        {
          "internalType": "uint256",
          "name": "",
          "type": "uint256"
        }
      ],
      "stateMutability": "view",
      "type": "function"
    },
    {
      "inputs": [
        {
          "internalType": "address",
          "name": "user",
          "type": "address"
        }
      ],
      "name": "pending",
      "outputs": [
        {
          "internalType": "uint256",
          "name": "pending",
          "type": "uint256"
        }
      ],
      "stateMutability": "view",
      "type": "function"
    },
    {
      "inputs": [],
      "name": "totalBalance",
      "outputs": [
        {
          "internalType": "uint256",
          "name": "",
          "type": "uint256"
        }
      ],
      "stateMutability": "view",
      "type": "function"
    },
    {
      "inputs": [],
      "name": "totalPending",
      "outputs": [
        {
          "internalType": "uint256",
          "name": "pending",
          "type": "uint256"
        }
      ],
      "stateMutability": "view",
      "type": "function"
    },
    {
      "inputs": [],
      "name": "totalReward",
      "outputs": [
        {
          "internalType": "uint256",
          "name": "",
          "type": "uint256"
        }
      ],
      "stateMutability": "view",
      "type": "function"
    },
    {
      "inputs": [
        {
          "internalType": "address",
          "name": "recipient",
          "type": "address"
        },
        {
          "internalType": "uint256",
          "name": "amount",
          "type": "uint256"
        }
      ],
      "name": "transfer",
      "outputs": [
        {
          "internalType": "bool",
          "name": "",
          "type": "bool"
        }
      ],
      "stateMutability": "nonpayable",
      "type": "function"
    },
    {
      "inputs": [],
      "name": "update",
      "outputs": [],
      "stateMutability": "nonpayable",
      "type": "function"
    }
  ],
  "bytecode": "0x60806040523480156200001157600080fd5b50604051620030c7380380620030c7833981810160405281019062000037919062000d70565b80600b60006101000a81548173ffffffffffffffffffffffffffffffffffffffff021916908373ffffffffffffffffffffffffffffffffffffffff160217905550436002819055507370997970c51812dc3a010c7d01b50e0d17dc79c8600860006101000a81548173ffffffffffffffffffffffffffffffffffffffff021916908373ffffffffffffffffffffffffffffffffffffffff160217905550733c44cdddb6a900fa2b585dd299e03d12fa4293bc600960006101000a81548173ffffffffffffffffffffffffffffffffffffffff021916908373ffffffffffffffffffffffffffffffffffffffff1602179055507390f79bf6eb2c4f870365e785982e1f101e93b906600a60006101000a81548173ffffffffffffffffffffffffffffffffffffffff021916908373ffffffffffffffffffffffffffffffffffffffff16021790555033600760006101000a81548173ffffffffffffffffffffffffffffffffffffffff021916908373ffffffffffffffffffffffffffffffffffffffff1602179055506200021e600760009054906101000a900473ffffffffffffffffffffffffffffffffffffffff16600360096012620001f8919062000dde565b600a62000206919062000f7a565b62000212919062000ffa565b6200029c60201b60201c565b620002956040518060400160405280601781526020017f496e697461696c206d696e7420746f204f776e65723a200000000000000000008152506003600960126200026a919062000dde565b600a62000278919062000f7a565b62000284919062000ffa565b6200038860201b62000bf91760201c565b506200129f565b600073ffffffffffffffffffffffffffffffffffffffff168273ffffffffffffffffffffffffffffffffffffffff1614156040518060400160405280600c81526020017f5a65726f206164647265737300000000000000000000000000000000000000008152509062000347576040517f08c379a00000000000000000000000000000000000000000000000000000000081526004016200033e9190620010d6565b60405180910390fd5b506200035c600083836200042e60201b60201c565b62000370828260016200043360201b60201c565b62000384600083836200064160201b60201c565b5050565b6200042a8282604051602401620003a19291906200110b565b6040516020818303038152906040527fb60e72cc000000000000000000000000000000000000000000000000000000007bffffffffffffffffffffffffffffffffffffffffffffffffffffffff19166020820180517bffffffffffffffffffffffffffffffffffffffffffffffffffffffff83818316178352505050506200064660201b60201c565b5050565b505050565b620004436200066f60201b60201c565b600062000456846200076960201b60201c565b90506000811115620004f3576200047660045482620008ec60201b60201c565b60048190555080600660008673ffffffffffffffffffffffffffffffffffffffff1673ffffffffffffffffffffffffffffffffffffffff1681526020019081526020016000206000016000828254620004d091906200113f565b925050819055508060056000828254620004eb91906200113f565b925050819055505b81156200057257826000808673ffffffffffffffffffffffffffffffffffffffff1673ffffffffffffffffffffffffffffffffffffffff16815260200190815260200160002060008282546200054a91906200113f565b9250508190555082600160008282546200056591906200113f565b92505081905550620005e5565b826000808673ffffffffffffffffffffffffffffffffffffffff1673ffffffffffffffffffffffffffffffffffffffff1681526020019081526020016000206000828254620005c291906200119c565b925050819055508260016000828254620005dd91906200119c565b925050819055505b60025443620005f591906200119c565b600660008673ffffffffffffffffffffffffffffffffffffffff1673ffffffffffffffffffffffffffffffffffffffff1681526020019081526020016000206001018190555050505050565b505050565b6200066c81620006676200091860201b62000c95176200093960201b60201c565b60201c565b50565b6000600354600254436200068491906200119c565b6200069091906200119c565b905060008111156200076657600080600283620006ae9190620011d7565b03620006f657620006ee6101da600154620006ca91906200120f565b83600a620f4240620006dd91906200120f565b6200094d60201b62000cb61760201c565b905062000733565b620007306101da6001546200070c91906200120f565b83600a620f42406200071f91906200120f565b620009a960201b62000cf81760201c565b90505b80600460008282546200074791906200113f565b92505081905550600254436200075e91906200119c565b600381905550505b50565b600080600660008473ffffffffffffffffffffffffffffffffffffffff1673ffffffffffffffffffffffffffffffffffffffff1681526020019081526020016000206001015460025443620007bf91906200119c565b620007cb91906200119c565b90506000811115620008e6576000600282620007e89190620011d7565b036200086c57620008646101da6000808673ffffffffffffffffffffffffffffffffffffffff1673ffffffffffffffffffffffffffffffffffffffff168152602001908152602001600020546200084091906200120f565b82600a620f42406200085391906200120f565b620009a960201b62000cf81760201c565b9150620008e5565b620008e26101da6000808673ffffffffffffffffffffffffffffffffffffffff1673ffffffffffffffffffffffffffffffffffffffff16815260200190815260200160002054620008be91906200120f565b82600a620f4240620008d191906200120f565b6200094d60201b62000cb61760201c565b91505b5b50919050565b6000818311156200090d5781836200090591906200119c565b905062000912565b600090505b92915050565b60006a636f6e736f6c652e6c6f679050600080835160208501845afa505050565b62000cfa60201b6200166317819050919050565b60008062000963858585620009a960201b60201c565b905060006200097a86868662000ad560201b60201c565b11156200099d576200099481600162000af560201b60201c565b915050620009a2565b809150505b9392505050565b6000806000620009c0868662000b0d60201b60201c565b9150915060008203620009eb57838181620009e057620009df62000fcb565b5b049250505062000ace565b8382101562000ac957600062000a0987878762000ad560201b60201c565b905060008062000a2185858562000b7860201b60201c565b915091506000820362000a4f5786818162000a415762000a4062000fcb565b5b049550505050505062000ace565b60008762000a6560008a62000bb460201b60201c565b169050600062000a7d84848462000bcc60201b60201c565b9050600062000aa5838b8162000a985762000a9762000fcb565b5b0462000c3a60201b60201c565b905062000ab9828262000c9b60201b60201c565b9850505050505050505062000ace565b600080fd5b9392505050565b6000818062000ae95762000ae862000fcb565b5b83850990509392505050565b6000818362000b0591906200113f565b905092915050565b600080600062000b24858562000cb360201b60201c565b9050600062000b3a868662000c9b60201b60201c565b905080821062000b54578082038193509350505062000b71565b600162000b68838362000bb460201b60201c565b03819350935050505b9250929050565b60008082841062000b9157848385039150915062000bac565b6001850362000ba7858562000bb460201b60201c565b915091505b935093915050565b6000818362000bc491906200119c565b905092915050565b60008062000c078362000be760008662000bb460201b60201c565b8162000bf85762000bf762000fcb565b5b04600162000cf260201b60201c565b905082848162000c1c5762000c1b62000fcb565b5b0462000c2f868362000c9b60201b60201c565b179150509392505050565b6000806001905060005b600881101562000c915762000c838262000c77600262000c6b868962000c9b60201b60201c565b62000bb460201b60201c565b62000c9b60201b60201c565b915080600101905062000c44565b5080915050919050565b6000818362000cab91906200120f565b905092915050565b60007fffffffffffffffffffffffffffffffffffffffffffffffffffffffffffffffff8062000ce75762000ce662000fcb565b5b828409905092915050565b600092915050565b62000d0462001270565b565b600080fd5b600073ffffffffffffffffffffffffffffffffffffffff82169050919050565b600062000d388262000d0b565b9050919050565b62000d4a8162000d2b565b811462000d5657600080fd5b50565b60008151905062000d6a8162000d3f565b92915050565b60006020828403121562000d895762000d8862000d06565b5b600062000d998482850162000d59565b91505092915050565b600060ff82169050919050565b7f4e487b7100000000000000000000000000000000000000000000000000000000600052601160045260246000fd5b600062000deb8262000da2565b915062000df88362000da2565b92508260ff0382111562000e115762000e1062000daf565b5b828201905092915050565b60008160011c9050919050565b6000808291508390505b600185111562000e7b5780860481111562000e535762000e5262000daf565b5b600185161562000e635780820291505b808102905062000e738562000e1c565b945062000e33565b94509492505050565b60008262000e96576001905062000f69565b8162000ea6576000905062000f69565b816001811462000ebf576002811462000eca5762000f00565b600191505062000f69565b60ff84111562000edf5762000ede62000daf565b5b8360020a91508482111562000ef95762000ef862000daf565b5b5062000f69565b5060208310610133831016604e8410600b841016171562000f3a5782820a90508381111562000f345762000f3362000daf565b5b62000f69565b62000f49848484600162000e29565b9250905081840481111562000f635762000f6262000daf565b5b81810290505b9392505050565b6000819050919050565b600062000f878262000f70565b915062000f948362000da2565b925062000fc37fffffffffffffffffffffffffffffffffffffffffffffffffffffffffffffffff848462000e84565b905092915050565b7f4e487b7100000000000000000000000000000000000000000000000000000000600052601260045260246000fd5b6000620010078262000f70565b9150620010148362000f70565b92508262001027576200102662000fcb565b5b828204905092915050565b600081519050919050565b600082825260208201905092915050565b60005b838110156200106e57808201518184015260208101905062001051565b838111156200107e576000848401525b50505050565b6000601f19601f8301169050919050565b6000620010a28262001032565b620010ae81856200103d565b9350620010c08185602086016200104e565b620010cb8162001084565b840191505092915050565b60006020820190508181036000830152620010f2818462001095565b905092915050565b620011058162000f70565b82525050565b6000604082019050818103600083015262001127818562001095565b9050620011386020830184620010fa565b9392505050565b60006200114c8262000f70565b9150620011598362000f70565b9250827fffffffffffffffffffffffffffffffffffffffffffffffffffffffffffffffff0382111562001191576200119062000daf565b5b828201905092915050565b6000620011a98262000f70565b9150620011b68362000f70565b925082821015620011cc57620011cb62000daf565b5b828203905092915050565b6000620011e48262000f70565b9150620011f18362000f70565b92508262001204576200120362000fcb565b5b828206905092915050565b60006200121c8262000f70565b9150620012298362000f70565b9250817fffffffffffffffffffffffffffffffffffffffffffffffffffffffffffffffff048311821515161562001265576200126462000daf565b5b828202905092915050565b7f4e487b7100000000000000000000000000000000000000000000000000000000600052605160045260246000fd5b611e1880620012af6000396000f3fe608060405234801561001057600080fd5b506004361061010b5760003560e01c8063750142e6116100a2578063ad7a672f11610071578063ad7a672f1461029e578063bdfeb1e5146102bc578063ddc5eddc146102de578063df94cf1d146102fc578063e3d670d71461031e5761010b565b8063750142e61461022a5780639dc29fac14610248578063a2e6204514610264578063a9059cbb1461026e5761010b565b806340c10f19116100de57806340c10f1914610188578063416ae768146101a45780635eebea20146101d757806373957289146102075761010b565b80632e0f2625146101105780632ff2e9dc1461012e57806332cb6b0c1461014c5780633f90916a1461016a575b600080fd5b61011861034e565b6040516101259190611689565b60405180910390f35b610136610353565b60405161014391906116bd565b60405180910390f35b61015461037c565b60405161016191906116bd565b60405180910390f35b6101726103b1565b60405161017f91906116bd565b60405180910390f35b6101a2600480360381019061019d9190611767565b610455565b005b6101be60048036038101906101b991906117a7565b6104e9565b6040516101ce94939291906117d4565b60405180910390f35b6101f160048036038101906101ec91906117a7565b610587565b6040516101fe91906116bd565b60405180910390f35b61020f6106df565b60405161022196959493929190611819565b60405180910390f35b610232610a69565b60405161023f91906116bd565b60405180910390f35b610262600480360381019061025d9190611767565b610a6f565b005b61026c610a7d565b005b61028860048036038101906102839190611767565b610b48565b6040516102959190611895565b60405180910390f35b6102a6610b5f565b6040516102b391906116bd565b60405180910390f35b6102c4610b6e565b6040516102d59594939291906118b0565b60405180910390f35b6102e6610b96565b6040516102f391906116bd565b60405180910390f35b610304610b9c565b6040516103159594939291906118b0565b60405180910390f35b610338600480360381019061033391906117a7565b610be7565b60405161034591906116bd565b60405180910390f35b601281565b6003600960126103639190611932565b600a61036f9190611a9c565b6103799190611b16565b81565b60036009601261038c9190611932565b600a6103989190611a9c565b6103a29190611b16565b60646103ae9190611b47565b81565b600060045490506000600354600254436103cb9190611ba1565b6103d59190611ba1565b905060008111156104515760006002826103ef9190611bd5565b036104245761041d6101da6001546104079190611b47565b82600a620f42406104189190611b47565b610cf8565b9150610450565b61044d6101da6001546104379190611b47565b82600a620f42406104489190611b47565b610cb6565b91505b5b5090565b6003600960126104659190611932565b600a6104719190611a9c565b61047b9190611b16565b60646104879190611b47565b81610490610ddd565b61049a9190611c06565b11156104db576040517f08c379a00000000000000000000000000000000000000000000000000000000081526004016104d290611cb9565b60405180910390fd5b6104e58282610de7565b5050565b6000806000806000808673ffffffffffffffffffffffffffffffffffffffff1673ffffffffffffffffffffffffffffffffffffffff168152602001908152602001600020549350600660008673ffffffffffffffffffffffffffffffffffffffff1673ffffffffffffffffffffffffffffffffffffffff16815260200190815260200160002060000154925061057e85610587565b90509193509193565b600080600660008473ffffffffffffffffffffffffffffffffffffffff1673ffffffffffffffffffffffffffffffffffffffff16815260200190815260200160002060010154600254436105db9190611ba1565b6105e59190611ba1565b905060008111156106d95760006002826105ff9190611bd5565b03610670576106696101da6000808673ffffffffffffffffffffffffffffffffffffffff1673ffffffffffffffffffffffffffffffffffffffff168152602001908152602001600020546106539190611b47565b82600a620f42406106649190611b47565b610cf8565b91506106d8565b6106d56101da6000808673ffffffffffffffffffffffffffffffffffffffff1673ffffffffffffffffffffffffffffffffffffffff168152602001908152602001600020546106bf9190611b47565b82600a620f42406106d09190611b47565b610cb6565b91505b5b50919050565b6000806000806000806106f06103b1565b6005546106fd9190611c06565b955061072a600760009054906101000a900473ffffffffffffffffffffffffffffffffffffffff16610587565b60066000600760009054906101000a900473ffffffffffffffffffffffffffffffffffffffff1673ffffffffffffffffffffffffffffffffffffffff1673ffffffffffffffffffffffffffffffffffffffff168152602001908152602001600020600001546107999190611c06565b856107a49190611c06565b94506107d1600860009054906101000a900473ffffffffffffffffffffffffffffffffffffffff16610587565b60066000600860009054906101000a900473ffffffffffffffffffffffffffffffffffffffff1673ffffffffffffffffffffffffffffffffffffffff1673ffffffffffffffffffffffffffffffffffffffff168152602001908152602001600020600001546108409190611c06565b8561084b9190611c06565b9450610878600960009054906101000a900473ffffffffffffffffffffffffffffffffffffffff16610587565b60066000600960009054906101000a900473ffffffffffffffffffffffffffffffffffffffff1673ffffffffffffffffffffffffffffffffffffffff1673ffffffffffffffffffffffffffffffffffffffff168152602001908152602001600020600001546108e79190611c06565b856108f29190611c06565b945061091f600a60009054906101000a900473ffffffffffffffffffffffffffffffffffffffff16610587565b60066000600a60009054906101000a900473ffffffffffffffffffffffffffffffffffffffff1673ffffffffffffffffffffffffffffffffffffffff1673ffffffffffffffffffffffffffffffffffffffff1681526020019081526020016000206000015461098e9190611c06565b856109999190611c06565b94506000858710156109bb5786866109b19190611ba1565b94508590506109cd565b85876109c79190611ba1565b94508690505b60008111156109fc5785856b033b2e3c9fd0803ce80000006109ef9190611b47565b6109f99190611b16565b93505b600060025443610a0c9190611ba1565b9050610a5a600360096012610a219190611932565b600a610a2d9190611a9c565b610a379190611b16565b826101da610a459190611b47565b600a620f4240610a559190611b47565b610cb6565b93504392505050909192939495565b60055481565b610a798282610eb8565b5050565b600060035460025443610a909190611ba1565b610a9a9190611ba1565b90506000811115610b4557600080600283610ab59190611bd5565b03610aea57610ae36101da600154610acd9190611b47565b83600a620f4240610ade9190611b47565b610cb6565b9050610b16565b610b136101da600154610afd9190611b47565b83600a620f4240610b0e9190611b47565b610cf8565b90505b8060046000828254610b289190611c06565b9250508190555060025443610b3d9190611ba1565b600381905550505b50565b6000610b55338484611013565b6001905092915050565b6000610b69610ddd565b905090565b6000806000806000600154945060035493506004549150610b8d6103b1565b90509091929394565b60045481565b600080600080600060025494506101da9350620f42409250600a9150600360096012610bc89190611932565b600a610bd49190611a9c565b610bde9190611b16565b90509091929394565b6000610bf282611222565b9050919050565b610c918282604051602401610c0f929190611d61565b6040516020818303038152906040527fb60e72cc000000000000000000000000000000000000000000000000000000007bffffffffffffffffffffffffffffffffffffffffffffffffffffffff19166020820180517bffffffffffffffffffffffffffffffffffffffffffffffffffffffff838183161783525050505061126a565b5050565b60006a636f6e736f6c652e6c6f679050600080835160208501845afa505050565b600080610cc4858585610cf8565b90506000610cd3868686611284565b1115610cec57610ce48160016112a1565b915050610cf1565b809150505b9392505050565b6000806000610d0786866112b7565b9150915060008203610d2d57838181610d2357610d22611ae7565b5b0492505050610dd6565b83821015610dd1576000610d42878787611284565b9050600080610d52858585611308565b9150915060008203610d7b57868181610d6e57610d6d611ae7565b5b0495505050505050610dd6565b600087610d8960008a61133a565b1690506000610d99848484611350565b90506000610db6838b81610db057610daf611ae7565b5b046113a0565b9050610dc282826113e7565b98505050505050505050610dd6565b600080fd5b9392505050565b6000600154905090565b600073ffffffffffffffffffffffffffffffffffffffff168273ffffffffffffffffffffffffffffffffffffffff1614156040518060400160405280600c81526020017f5a65726f2061646472657373000000000000000000000000000000000000000081525090610e8f576040517f08c379a0000000000000000000000000000000000000000000000000000000008152600401610e869190611d91565b60405180910390fd5b50610e9c600083836113fd565b610ea882826001611402565b610eb4600083836115e7565b5050565b600073ffffffffffffffffffffffffffffffffffffffff168273ffffffffffffffffffffffffffffffffffffffff1614156040518060400160405280600c81526020017f5a65726f2061646472657373000000000000000000000000000000000000000081525090610f60576040517f08c379a0000000000000000000000000000000000000000000000000000000008152600401610f579190611d91565b60405180910390fd5b506000610f6c83611222565b9050818110156040518060400160405280600f81526020017f457863656564732062616c616e6365000000000000000000000000000000000081525090610fe9576040517f08c379a0000000000000000000000000000000000000000000000000000000008152600401610fe09190611d91565b60405180910390fd5b50610ff6836000846113fd565b61100283836000611402565b61100e836000846115e7565b505050565b600073ffffffffffffffffffffffffffffffffffffffff168373ffffffffffffffffffffffffffffffffffffffff1614156040518060400160405280600c81526020017f5a65726f20616464726573730000000000000000000000000000000000000000815250906110bb576040517f08c379a00000000000000000000000000000000000000000000000000000000081526004016110b29190611d91565b60405180910390fd5b50600073ffffffffffffffffffffffffffffffffffffffff168273ffffffffffffffffffffffffffffffffffffffff1614156040518060400160405280600c81526020017f5a65726f2061646472657373000000000000000000000000000000000000000081525090611164576040517f08c379a000000000000000000000000000000000000000000000000000000000815260040161115b9190611d91565b60405180910390fd5b50600061117084611222565b9050818110156040518060400160405280600f81526020017f457863656564732062616c616e63650000000000000000000000000000000000815250906111ed576040517f08c379a00000000000000000000000000000000000000000000000000000000081526004016111e49190611d91565b60405180910390fd5b506111f98484846113fd565b61120584836000611402565b61121183836001611402565b61121c8484846115e7565b50505050565b60008060008373ffffffffffffffffffffffffffffffffffffffff1673ffffffffffffffffffffffffffffffffffffffff168152602001908152602001600020549050919050565b61128181611279610c956115ec565b63ffffffff16565b50565b6000818061129557611294611ae7565b5b83850990509392505050565b600081836112af9190611c06565b905092915050565b60008060006112c685856115f7565b905060006112d486866113e7565b90508082106112ec5780820381935093505050611301565b60016112f8838361133a565b03819350935050505b9250929050565b60008082841061131f578483850391509150611332565b6001850361132d858561133a565b915091505b935093915050565b600081836113489190611ba1565b905092915050565b6000806113788361136260008661133a565b816113705761136f611ae7565b5b046001611633565b905082848161138a57611389611ae7565b5b0461139586836113e7565b179150509392505050565b6000806001905060005b60088110156113dd576113d0826113cb60026113c686896113e7565b61133a565b6113e7565b91508060010190506113aa565b5080915050919050565b600081836113f59190611b47565b905092915050565b505050565b61140a610a7d565b600061141584610587565b905060008111156114a55761142c6004548261163b565b60048190555080600660008673ffffffffffffffffffffffffffffffffffffffff1673ffffffffffffffffffffffffffffffffffffffff16815260200190815260200160002060000160008282546114849190611c06565b92505081905550806005600082825461149d9190611c06565b925050819055505b811561151e57826000808673ffffffffffffffffffffffffffffffffffffffff1673ffffffffffffffffffffffffffffffffffffffff16815260200190815260200160002060008282546114f99190611c06565b9250508190555082600160008282546115129190611c06565b9250508190555061158d565b826000808673ffffffffffffffffffffffffffffffffffffffff1673ffffffffffffffffffffffffffffffffffffffff168152602001908152602001600020600082825461156c9190611ba1565b9250508190555082600160008282546115859190611ba1565b925050819055505b6002544361159b9190611ba1565b600660008673ffffffffffffffffffffffffffffffffffffffff1673ffffffffffffffffffffffffffffffffffffffff1681526020019081526020016000206001018190555050505050565b505050565b611663819050919050565b60007fffffffffffffffffffffffffffffffffffffffffffffffffffffffffffffffff8061162857611627611ae7565b5b828409905092915050565b600092915050565b6000818311156116585781836116519190611ba1565b905061165d565b600090505b92915050565b61166b611db3565b565b600060ff82169050919050565b6116838161166d565b82525050565b600060208201905061169e600083018461167a565b92915050565b6000819050919050565b6116b7816116a4565b82525050565b60006020820190506116d260008301846116ae565b92915050565b600080fd5b600073ffffffffffffffffffffffffffffffffffffffff82169050919050565b6000611708826116dd565b9050919050565b611718816116fd565b811461172357600080fd5b50565b6000813590506117358161170f565b92915050565b611744816116a4565b811461174f57600080fd5b50565b6000813590506117618161173b565b92915050565b6000806040838503121561177e5761177d6116d8565b5b600061178c85828601611726565b925050602061179d85828601611752565b9150509250929050565b6000602082840312156117bd576117bc6116d8565b5b60006117cb84828501611726565b91505092915050565b60006080820190506117e960008301876116ae565b6117f660208301866116ae565b61180360408301856116ae565b61181060608301846116ae565b95945050505050565b600060c08201905061182e60008301896116ae565b61183b60208301886116ae565b61184860408301876116ae565b61185560608301866116ae565b61186260808301856116ae565b61186f60a08301846116ae565b979650505050505050565b60008115159050919050565b61188f8161187a565b82525050565b60006020820190506118aa6000830184611886565b92915050565b600060a0820190506118c560008301886116ae565b6118d260208301876116ae565b6118df60408301866116ae565b6118ec60608301856116ae565b6118f960808301846116ae565b9695505050505050565b7f4e487b7100000000000000000000000000000000000000000000000000000000600052601160045260246000fd5b600061193d8261166d565b91506119488361166d565b92508260ff0382111561195e5761195d611903565b5b828201905092915050565b60008160011c9050919050565b6000808291508390505b60018511156119c05780860481111561199c5761199b611903565b5b60018516156119ab5780820291505b80810290506119b985611969565b9450611980565b94509492505050565b6000826119d95760019050611a95565b816119e75760009050611a95565b81600181146119fd5760028114611a0757611a36565b6001915050611a95565b60ff841115611a1957611a18611903565b5b8360020a915084821115611a3057611a2f611903565b5b50611a95565b5060208310610133831016604e8410600b8410161715611a6b5782820a905083811115611a6657611a65611903565b5b611a95565b611a788484846001611976565b92509050818404811115611a8f57611a8e611903565b5b81810290505b9392505050565b6000611aa7826116a4565b9150611ab28361166d565b9250611adf7fffffffffffffffffffffffffffffffffffffffffffffffffffffffffffffffff84846119c9565b905092915050565b7f4e487b7100000000000000000000000000000000000000000000000000000000600052601260045260246000fd5b6000611b21826116a4565b9150611b2c836116a4565b925082611b3c57611b3b611ae7565b5b828204905092915050565b6000611b52826116a4565b9150611b5d836116a4565b9250817fffffffffffffffffffffffffffffffffffffffffffffffffffffffffffffffff0483118215151615611b9657611b95611903565b5b828202905092915050565b6000611bac826116a4565b9150611bb7836116a4565b925082821015611bca57611bc9611903565b5b828203905092915050565b6000611be0826116a4565b9150611beb836116a4565b925082611bfb57611bfa611ae7565b5b828206905092915050565b6000611c11826116a4565b9150611c1c836116a4565b9250827fffffffffffffffffffffffffffffffffffffffffffffffffffffffffffffffff03821115611c5157611c50611903565b5b828201905092915050565b600082825260208201905092915050565b7f457863656564204d617820537570706c79000000000000000000000000000000600082015250565b6000611ca3601183611c5c565b9150611cae82611c6d565b602082019050919050565b60006020820190508181036000830152611cd281611c96565b9050919050565b600081519050919050565b60005b83811015611d02578082015181840152602081019050611ce7565b83811115611d11576000848401525b50505050565b6000601f19601f8301169050919050565b6000611d3382611cd9565b611d3d8185611c5c565b9350611d4d818560208601611ce4565b611d5681611d17565b840191505092915050565b60006040820190508181036000830152611d7b8185611d28565b9050611d8a60208301846116ae565b9392505050565b60006020820190508181036000830152611dab8184611d28565b905092915050565b7f4e487b7100000000000000000000000000000000000000000000000000000000600052605160045260246000fdfea26469706673582212209a503350ed3de4e0f6aa73ec01538c4573d5c77785e6f3c36c8728ada89de3cf64736f6c634300080e0033",
  "linkReferences": {},
  "deployedLinkReferences": {}
}